S00E00004543555F52422E7372656346
S11300004AC2000078C2000076C2000074C2000038
S113001072C2000070C200006EC200006CC2000018
S11300206AC2000068C2000066C2000064C2000028
S11300300C94DB1760C200005EC200005CC20000CA
S11300405AC2000058C2000056C2000054C2000048
S113005052C2000050C200004EC20000F5C40000AD
S11300604AC2000048C2000046C2000044C2000068
S113007042C2000040C200003EC200003CC2000078
S11300803AC2000038C2000036C2000034C2000088
S113009032C2000030C200002EC200002CC2000098
S11300A02AC2000028C2000026C2000024C20000A8
S11300B022C2000020C200001EC200001CC20000B8
S11300C01AC2000018C2000016C2000014C20000C8
S11300D012C2000010C200000EC200000CC20000D8
S11300E00AC200005606590648064C0652069006F7
S11300F05D06610667066B066F06750679067D0662
S11301009006830687068B0621099308250996081D
S113011099089D08A008A3081F091F09A608A90893
S1130120AC08AF08B208B5082909C508C8081F09F2
S1130130CC08D008D308D608D908DC080C09DF0895
S1130140E208E508E808EB082D09FB08FE080209A7
S113015005091F0909090C091009140918091C09C2
S11301600502050246023302460205020502460262
S1130170330200000A0B02090C0D0E0807030401E8
S1130180000000000000000000000000000000006B
S11301900000000000000000000000000000121138
S11301A0100000000000000000000000000000003B
S11301B000000000000000000102102020080810C8
S11301C020401020408002010201080402010102C3
S11301D0040810204080804020100804020180049C
S11301E002018040201008040201080402010102F7
S11301F004081020408001020408102040800505F6
S11302000505070508080808020202020A0A080888
S113021004040404010101010101010103030303B6
S113022003030303040707070C0C0C0C0C0C0C0C45
S11302300202020206060606060606060B0B0B0B56
S11302400B0B0B0B000020002300260029002C00C0
S11302502F00320000010000030106010901000023
S11302602200250028002B002E003100340002015A
S11302700000050108010B010000210024002700F3
S11302802A002D00300033000101000004010701A1
S11302900A01809103048823C9F00FB6F8940F92E1
S11302A0E0910904F0910A048681978102960E94E4
S11302B09F168091F90381508093F9038091030480
S11302C08150809303040F900FBEE3CF80912C04E0
S11302D0823010F00E94DA160E94E415DACFCF9330
S11302E0DF9300D01F921F92CDB7DEB7E091AB042D
S11302F0F091AC04D080DD2031F00580F681E02D52
S11303000081118102C000E010E00E9482100E946E
S113031088107C018091A3049091A404E816F90646
S113032020F40E94001581E001C080E0F092A40452
S1130330E092A304811124C0DD2051F0E016F106FF
S113034070F00E949B11B701C8010E94D8141EC00E
S1130350E091A904F091AA04808141E0811140E078
S1130360B8016E197F098091A7049091A8040E9496
S1130370870E0E949B11811109C00E94DA1606C0E3
S11303800E949B1103C0898187FF0EC040E050E0AA
S1130390BE016F5F7F4F8091A7049091A8040E94D3
S11303A0030E8111F0CFA2CF0C811D81D8011A96C2
S11303B08D919C911B97892B21F0C80102960E9474
S11303C09F160E9488107C018091A3049091A4043C
S11303D0E816F90610F40E940015F092A404E092C5
S11303E0A304E9818E2FEE0F990BAA0BBB0BFC0122
S11303F03197E930F10550F6D80152969C9188273F
S1130400E055FF4F8F4F0C94DD179160F801928BEC
S11304102A813B8164857585620F731FA701C8011A
S11304200E948C14882309F4B1CFD80152968C9180
S1130430529782FF0DC06A817B811C968D919C919D
S11304401D97680F791FA701C8010E94B51403C046
S11304508E7FF801828BD8015096ED91FC915197D3
S1130460C801199593CF9160D80152969C935297E5
S11304706A817B811D967C936E931C976E0D7F1D04
S11304809701A701C8010E948C1480CF9E7FF801B8
S1130490928B7CCFF30211241FBECFEFD1E2DEBFDB
S11304A0CDBF00E00CBF12E0A0E0B2E0EEEEFFE250
S11304B000E00BBF02C007900D92A037B107D9F737
S11304C026E0A0E7B2E001C01D92A932B207E1F72D
S11304D012E0CBE4D2E000E006C021970109802FAE
S11304E0FE010E94DD17CA34D10780E00807A9F78E
S11304F09FD20C94F51784CD61E089E212D461E0B7
S11305008CE20FD461E08AE20CD461E08DE209D47C
S113051062E080E306D481E792E07DD742E06BE0BD
S113052081E792E0E2D581E792E0DDC561E08CE20B
S113053034C460E08CE231C461E08AE22EC460E03D
S11305408AE22BC461E089E228C460E089E225C420
S113055080E351C4BC0181E792E00C94260BBC01FA
S113056081E792E00E94140C21E030E0882311F02E
S113057020E030E0C9010895CF93DF931F92CDB7F7
S1130580DEB71982E5DF20917002213019F118F0ED
S1130590223081F021C08130910561F4AE014F5FBA
S11305A05F4F66E472E08091380290913902EED098
S11305B082E00DC0892B81F4AE014F5F5F4F64E48C
S11305C072E08091380290913902E0D081E080930A
S11305D0700202C0019711F3CE01019645D10F902C
S11305E0DF91CF9108950F931F9300E010E020E86E
S11305F036E948E950E061E381E792E079D41F915C
S11306000F910895CF92DF92EF92FF920F931F9371
S1130610FC01C080D180E280F380FB010081118164
S113062022813381C016D106E206F306F1F4FC01FF
S11306302481FB013481231318C0FC013896DB01AB
S1130640189640E050E030E0421753073CF4919193
S11306508D91981303C04F5F5F4FF6CF81E090E018
S11306604217530721F080E002C080E090E01F9120
S11306700F91FF90EF90DF90CF900895CF93DF9389
S11306801F921F92CDB7DEB78C017C018BE4E80E7C
S1130690F11CD701ED91FC916EE472E0C80119954B
S11306A04FEF5FEFBE016F5F7F4FF80182A593A507
S11306B00E94030E69817A81D701ED91FC91EECFFE
S11306C0855B9F4FFC017183608308954F925F9215
S11306D06F927F928F929F92AF92BF92CF92DF924E
S11306E0EF92FF920F931F93CF93DF93CDB7DEB7B3
S11306F04C01162F802F250136019401245D3F4FB4
S113070000E062E00E94290DF40193A782A764012E
S1130710F2E0CF0ED11C012F9401A20168E472E033
S11307208EE393E00E94390FF40191838083DF917B
S1130730CF911F910F91FF90EF90DF90CF90BF90DA
S1130740AF909F908F907F906F905F904F9008959F
S1130750CF93DF931F921F92CDB7DEB77A8369835D
S113076020E040E050E0BE016F5F7F4FFC0182A5B6
S113077093A50E94480D0F900F90DF91CF9108959B
S11307800697BC01FC0182819381E2CFCF93DF9372
S11307901F921F92CDB7DEB77A83698320E0BE0132
S11307A06F5F7F4FFC0182A593A50E94D20D0F902D
S11307B00F90DF91CF910895EF92FF920F931F93C3
S11307C0CF93DF93EC01798368835B834A837C0155
S11307D086E0E80EF11C00EC13E09E01498D61E017
S11307E070E08BE492E00E9461159D838C83DF911D
S11307F0CF911F910F91FF90EF9008950F931F9346
S113080024E076956795579547952A95D1F7411534
S1130810510511F441E050E000E010E020E030E048
S113082064E0FC01848195810E9497151F910F91CA
S113083008950F931F9300E010E020E030E040E0C3
S113084050E063E0FC01848195810E9497151F911B
S11308500F910895FC0171836083538342839093C5
S11308607902809378020895CF93DF93EC0180910D
S1130870780290917902049672DE019759F4E0911E
S11308807802F0917902AE01BF0182819381DF91F8
S1130890CF917CCFDF91CF9108950F931F93CF9386
S11308A0DF93EC01FB018081918183309105F1F0AC
S11308B0B0F48130910531F1029709F05DC039DE61
S11308C0CE01835B9F4FB5DFCB56DF4F18823ADEF4
S11308D088E292E0DF91CF911F910F913BCE85305A
S11308E0910539F158F1069769F046C088E192E024
S11308F031DE2BDE60E572E0CE01DF91CF911F91F6
S11309000F9126CF8E010B561F4FF8018081C35BD8
S1130910DF4F811105C00ADE81E0F801808303C046
S113092008DEF801108248EE53E060E070E0CE018A
S11309301EC0DF91CF911F910F9101CE68E072E04C
S1130940CE018B579F4F5EDE0197B1F4F5DD00DEDB
S1130950892B19F488E292E002C088E192E0FADD82
S113096048EE53E060E070E0CE0189599F4FDF917B
S1130970CF911F910F9142CFDF91CF911F910F9192
S11309800895CF93DF93EC016DE474E099DEFE01EA
S1130990EA59FF4F1082AE0161E070E0CE01835B43
S11309A09F4F0ADFAE0165E070E0CE0189599F4F89
S11309B003DFFE01EB56FF4F1082AE0164E070E0EE
S11309C0CE018F579F4FDF91CF9144CF8F929F924B
S11309D0AF92BF92CF92DF92EF92FF920F931F9349
S11309E08BDD8AE792E0CDDF812C912C80ECA82E60
S11309F0B12CC12CD12C94E2E92E93E0F92E0AE01B
S1130A0010E020E030E040E153E061E08091380202
S1130A10909139025BDE1F910F91FF90EF90DF9070
S1130A20CF90BF90AF909F908F900C943910089501
S1130A30C0D00E94D415CADFC0E0D0E0F8DF209710
S1130A40E9F30E940000FACF1F920F920FB60F92A3
S1130A5011242F933F938F939F93AF93BF938091D0
S1130A60E5039091E603A091E703B091E803309188
S1130A70E40323E0230F2D3720F40196A11DB11DBB
S1130A8005C026E8230F0296A11DB11D2093E4039F
S1130A908093E5039093E603A093E703B093E80300
S1130AA08091E9039091EA03A091EB03B091EC03E8
S1130AB00196A11DB11D8093E9039093EA03A093CD
S1130AC0EB03B093EC03BF91AF919F918F913F9152
S1130AD02F910F900FBE0F901F9018952FB7F89479
S1130AE06091E5037091E6038091E7039091E80338
S1130AF02FBF08953FB7F8948091E9039091EA03DA
S1130B00A091EB03B091EC0326B5A89B05C02F3F41
S1130B1019F00196A11DB11D3FBFBA2FA92F982F1F
S1130B208827820F911DA11DB11DBC01CD0142E09A
S1130B30660F771F881F991F4A95D1F708958F92E2
S1130B409F92AF92BF92CF92DF92EF92FF926B018E
S1130B507C01D0DF4B015C01C114D104E104F10438
S1130B60F9F00E945416C6DFDC01CB0188199909FB
S1130B70AA09BB09883E9340A105B10568F321E0A9
S1130B80C21AD108E108F10888EE880E83E0981EA5
S1130B90A11CB11CC114D104E104F10421F7DCCF80
S1130BA0FF90EF90DF90CF90BF90AF909F908F9089
S1130BB00895789484B5826084BD84B5816084BDD1
S1130BC085B5826085BD85B5816085BDEEE6F0E0C2
S1130BD0808181608083E1E8F0E01082808182601E
S1130BE08083808181608083E0E8F0E0808181609F
S1130BF08083E1EBF0E0808184608083E0EBF0E0CF
S1130C00808181608083E1E9F0E08081826080837B
S1130C10808181608083E0E9F0E08081816080836D
S1130C20E1EAF0E08081826080838081816080835A
S1130C30E0EAF0E0808181608083E1E2F1E080819C
S1130C4082608083808181608083E0E2F1E0808142
S1130C5081608083EAE7F0E0808184608083808122
S1130C6082608083808181608083808180688083CA
S1130C701092C100089590E0FC013197E231F10532
S1130C8008F04EC08827EE58FF4F8F4F0C94DD17A5
S1130C90809180008F7703C0809180008F7D809346
S1130CA08000089580918000877FF9CF84B58F7785
S1130CB002C084B58F7D84BD08958091B0008F7784
S1130CC003C08091B0008F7D8093B000089580911F
S1130CD090008F7707C0809190008F7D03C0809132
S1130CE09000877F8093900008958091A0008F7773
S1130CF007C08091A0008F7D03C08091A000877FF2
S1130D008093A0000895809120018F7707C080917F
S1130D1020018F7D03C080912001877F8093200173
S1130D200895CF93DF9390E0FC01E854FE4F2491A3
S1130D30FC01E250FE4F8491882361F190E0880F1A
S1130D40991FFC01E858FD4FC591D491FC01E25A6A
S1130D50FD4FA591B491611109C09FB7F8948881A2
S1130D60209582238883EC912E230BC0623061F49A
S1130D709FB7F8948881322F309583238883EC9130
S1130D802E2B2C939FBF06C08FB7F894E8812E2B8F
S1130D9028838FBFDF91CF9108951F93CF93DF9363
S1130DA0282F30E0F901EE58FE4F8491F901E85400
S1130DB0FE4FD491F901E250FE4FC491CC23B9F017
S1130DC0162F811158DFEC2FF0E0EE0FFF1FE25ACF
S1130DD0FD4FA591B4919FB7F894111104C08C9163
S1130DE0D095D82302C0EC91DE2BDC939FBFDF911A
S1130DF0CF911F910895CF93DF93282F30E0F9010D
S1130E00EE58FE4F8491F901E854FE4FD491F90154
S1130E10E250FE4FC491CC2389F081112CDFEC2FDA
S1130E20F0E0EE0FFF1FEC5BFD4FA591B491EC9148
S1130E30ED2381E090E021F480E002C080E090E0C6
S1130E40DF91CF9108958EBD00000DB407FEFDCF54
S1130E508EB50895FC01418152816381748180E0E3
S1130E6092E1AAE7B0E020E0481759076A077B0738
S1130E7040F4B695A795979587952F5F2630A1F7EF
S1130E8027E091E09227292F206A2695917080917E
S1130E902606882399F08FB7F894309126063130CE
S1130EA059F43DB3309324064DB330912506309563
S1130EB034233DBB8FBF02C0809324062CBD9DBD4F
S1130EC060E080816ACF61E0FC01808166DF80910F
S1130ED02606882361F09FB7F89420912606809116
S1130EE02406213019F48DBB9FBF08958FBF089548
S1130EF08F929F92AF92BF92FF920F931F93CF93C3
S1130F00DF93EC01F62E49015A010115110519F080
S1130F101E830D8306C088E296E09E838D830E9423
S1130F201E16F88289829A82AB82BC8261E08F2D80
S1130F30F8DECE01DF91CF911F910F91FF90BF900A
S1130F40AF909F908F90BFCF1F93CF93DF93EC010F
S1130F50162F80DF83E077DF812F75DF80E073DF7A
S1130F60182FCE01B0DF812FDF91CF911F9108950B
S1130F70DF92EF92FF920F931F93CF93DF938C0135
S1130F80C62FD42EE52EF22E65DF83E05CDF8C2F96
S1130F905ADFCD2DDE2DCE018F0D911D7C01CE1596
S1130FA0DF0521F080E04FDF8993F9CFC801DF919D
S1130FB0CF911F910F91FF90EF90DF9084CF0F930B
S1130FC01F93CF93DF93EC01062F142F43DF82E0AE
S1130FD03ADF802F38DF812F36DFCE01DF91CF91CA
S1130FE01F910F9170CFDF92EF92FF920F931F9397
S1130FF0CF93DF938C01C62FD42EE52EF22E2ADF59
S113100082E021DF8C2F1FDFCD2DDE2DCE018F0D51
S1131010911D7C01CE15DF0519F0899114DFFACFFB
S1131020C801DF91CF911F910F91FF90EF90DF9056
S11310304ACFFF920F931F93CF93DF93EC01F62EC9
S1131040042F122F07DF85E0FEDE8F2DFCDE802FBC
S1131050FADE812FF8DECE01DF91CF911F910F913F
S1131060FF9031CF1F93CF93DF93EC01F3DE80EA3F
S1131070EADE80E0E8DE182FCE0125DF812FDF9144
S1131080CF911F910895CF92DF92EF92FF921F9319
S1131090CF93DF93EC01162F262F40EE6FE0C9DFCC
S11310A01DDD6B017C012AE0C20ED11CE11CF11C88
S11310B015DD6C157D058E059F0540F46EE0CE01AF
S11310C043DF807E1813F4CF81E001C080E091E01B
S11310D08927DF91CF911F91FF90EF90DF90CF9000
S11310E0089560E8D0CF60E0CECF0F931F93CF93E5
S11310F0DF938C01C62FD42FF4DF8111BDC0D13012
S1131100B9F108F46BC0D23009F099C08C2F90E08B
S11311108031910508F093C0FC018827EC57FF4FFC
S11311208F4F0C94DD17C7E8DFEB34C0C4E8D4EA72
S11311308EC0C5E8D2EE47E493C0C7E8DFEB6EC0CB
S1131140C6E8D4EB6BC0C7E8DFEB6CC0C6E8D4EBF1
S113115069C0C5E8D1EB66C0C6E8D4EB6BC0C5E88E
S1131160D1EB68C0C2E8D0E965C0C0E8D0E862C08D
S11311708C2F90E08031910508F061C0FC01882734
S1131180EC56FF4F8F4F0C94DD17C7E8DFEF5BC0C1
S1131190C7E8DFEF4FE064C0C5E8D1EF4EE460C0BC
S11311A0C7E8DFEF54C0C7E8DAEF51C0C7E8DFEFA4
S11311B035C0C7E0DEEB32C0C7E0DDEA2FC0C6E8C9
S11311C0D0EF2CC0C7E8DAEF2DC0C5E8D1EF2EC0B0
S11311D0C6E8D0EF2FC0C2E8D0ED2CC08C2F90E031
S11311E0FC013497EC30F10550F58827EC55FF4F9E
S11311F08F4F0C94DD17C7E8DFEF02C0C7E8DAEFC2
S113120049E02EC0C7E8DFEF02C0C7E8DEEF44E0E4
S113121027C0C7E8DAEFFBCFC7E8DAEF43E020C026
S1131220C7E8DFEF41E01CC0C6E8DBEF41E418C0CB
S1131230C7E8DAEF40E014C0C2E8D9EDFBCF81E0A3
S11312401BC0C7E8DFEB4FE10BC0C7E8DFEB47E0AB
S113125007C0C7E8DFEF4FE303C0C7E8DFEF4BE0A9
S11312606AE2C801ACDE4D2F69E2C801A8DE4C2F4A
S113127068E2C801A4DE80E0DF91CF911F910F9155
S113128008950F931F93FB014423B1F0038312834A
S1131290890122273327902F9C71802F837048E087
S11312A0949F800D11248860818355E016950795DD
S11312B05A95E1F700830DC0C80123E09695879500
S11312C02A95E1F780830295000F007E0183138243
S11312D012821F910F9108958F929F92AF92BF92A5
S11312E0CF92DF92EF92FF920F931F93CF93DF93EE
S11312F000D01F92CDB7DEB77C01D62EC42E480194
S11313005901EFDE811119C0950184014C2DBE01F4
S11313106F5F7F4FC701B5DFDD2029F081E0D81270
S11313200BC064E201C060E224E0AE014F5F5F4F96
S1131330C70159DE80E001C081E00F900F900F904B
S11313400F90DF91CF911F910F91FF90EF90DF905D
S1131350CF90BF90AF909F908F9008958F929F925F
S1131360AF92BF92CF92DF92EF92FF920F931F93AF
S1131370CF93DF9300D01F92CDB7DEB76C01F62E6A
S1131380E42E48015901ADDE811134C082E0F81623
S1131390A9F08F1540F0FF20D1F081E0F81229C0A8
S11313A044E0F42E15C084E0F81671F0F81648F005
S11313B085E0F8121EC088E1F82E0AC038E0F32E4A
S11313C007C020E1F22E04C094E1F92E01C0F12CF3
S11313D0950184014E2DBE016F5F7F4FC60151DF21
S11313E024E0AE014F5F5F4F6F2DC601FCDD80E04E
S11313F001C081E00F900F900F900F90DF91CF917B
S11314001F910F91FF90EF90DF90CF90BF90AF901E
S11314109F908F900895AF92BF92CF92DF92EF92F8
S1131420FF920F931F93CF93DF93CDB7DEB76497EB
S11314300FB6F894DEBF0FBECDBF7C010BDD80EC90
S113144002DDC70140DD6AE070E080E090E077DB18
S11314508E010F5F1F4F8EE0F80111928A95E9F714
S11314602EE0A80160E3C701BEDD2EE0A80160E420
S1131470C701B9DD2EE0A80160E5C701B4DD40E095
S113148060E6C7019CDD40E060E7C70198DD43EA00
S11314906BE2C70194DD24E047E660E6C701C9DDDD
S11314A021E047E660E7C701C4DD86E0EBE3F2E054
S11314B0DE011F9601900D928A95E1F75E01FFE02F
S11314C0AF0EB11CC12CD12CF50161915F0141E03B
S11314D0F1E0CF16D10409F040E000E010E09801FB
S11314E0C7013CDF811117C08FEFC81AD80AE6E0A4
S11314F0CE16D10449F700E010E0980141E060E025
S1131500C701EADE811107C000E010E0980141E064
S113151061E0C701E1DE64960FB6F894DEBF0FBE4A
S1131520CDBFDF91CF911F910F91FF90EF90DF908E
S1131530CF90BF90AF9008954F925F926F927F9239
S1131540AF92BF92CF92DF92EF92FF920F931F93CD
S1131550CF93DF93CDB7DEB72D970FB6F894DEBFE8
S11315600FBECDBF5C01FA012481293008F058C0B8
S1131570E62EF12C80819181A281B381AC01BD0161
S1131580442777FD43955527662777272C013D018E
S113159044245524662420E47222B7FD05C00FEFCD
S11315A017E020E030E004C00FEF1FEF2FEF3FE122
S11315B06F01082319232A233B23BE016F5F7F4F4A
S11315C0C5015FDEF6011481812F4528462847288E
S11315D009F080648D83412F50E0B601685F7F4F2E
S11315E0CE0106960E94E51725E0210F8701000F22
S11315F0111F0E0D1F1D065A1D4FAE014F5F5F4F89
S1131600F8016181C501EFDCF801108128E048E0B0
S1131610612FC5010EDD612FC50196DC807709F0CD
S113162084E02D960FB6F894DEBF0FBECDBFDF91D8
S1131630CF911F910F91FF90EF90DF90CF90BF90CB
S1131640AF907F906F905F904F9008959F92AF926C
S1131650BF92CF92DF92EF92FF920F931F93CF939B
S1131660DF9300D0CDB7DEB7FB0124812930D8F554
S11316707B018C018091410290914202A09143022E
S113168089839A83AB83CE0101966C015E0194E059
S1131690A90EB11CF60191906F01292D30E0F901DA
S11316A0EE0FFF1F2E0F3F1FF901E65AFD4F608119
S11316B0C8014ADC83FD12C0A701692DC8010F903F
S11316C00F900F90DF91CF911F910F91FF90EF90AA
S11316D0DF90CF90BF90AF909F902ECFCA14DB04C1
S11316E0C9F682E001C084E00F900F900F90DF9163
S11316F0CF911F910F91FF90EF90DF90CF90BF900B
S1131700AF909F9008957F928F929F92AF92BF92D5
S1131710CF92DF92EF92FF920F931F93CF93DF93B9
S113172000D01F921F92CDB7DEB74C015A0124E0BE
S1131730629F80011124F801EE5AFD4F25E0AE01AD
S11317404F5F5F4F618114DC8A819981C82ED12C4F
S113175045E0D594C7944A95E1F7E8E09E9FC00C14
S1131760D11C11240D2C000CEE08FF0883FF20C0AF
S113177092E0CC0CDD1CEE1CFF1C9A95D1F7837013
S1131780C80ED11CE11CF11CFE2CED2CDC2CCC244D
S11317908B81C80ED11CE11CF11CFE2CED2CDC2C21
S11317A0CC248C81C80ED11CE11CF11C6894F7F880
S11317B08D818F70782EF8E0F81710F1F801EE5A49
S11317C0FD4F6081C401C0DB83FF02C06894F6F85A
S11317D0F501C082D182E282F3827482A501485F5E
S11317E05F4F0E5A1D4F272DF8016281C401C0DBE3
S11317F020E0F80143816CE2C4011BDC80E001C0FD
S113180081E00F900F900F900F900F90DF91CF9188
S11318101F910F91FF90EF90DF90CF90BF90AF900A
S11318209F908F907F9008950F931F93CF93DF9392
S1131830EC018B0117DC80FF03C0A80160E004C049
S113184081FF08C0A80161E0CE01DF91CF911F9113
S11318500F9159CF85E0DF91CF911F910F9108959A
S11318600FB6F8940F92FC01928D0F900FBE81E099
S1131870911180E008950F931F93CF93DF93EC01B0
S1131880042F1A8D4C8D41110AC088819981892BAE
S1131890E1F58C819D81C3D71D821C8237C050E045
S11318A0011115C08A819B810E94E5172C8D8A81C4
S11318B09B81820F911D9B838A832C813D8182179A
S11318C0930718F1888199819B838A831EC08E8136
S11318D09F810E94E5178C8D90E0919581959109E7
S11318E02E813F81280F391F3F832E8348815981E0
S11318F02417350730F42C813D81820F931F9F8379
S11319008E83023011F41111115080E01F5F1A8F81
S1131910DF91CF911F910F910895FC01CB01448D6C
S11319204423A1F050E026813781240F351F3783EB
S11319302683648175812617370720F02081318141
S113194037832683668177810C94E5170895EF9297
S1131950FF921F93CF93DF93EC010FB6F8940F928D
S11319601E8D7C0181E1E80EF11C11164CF489896D
S1131970882331F0C70159D681113FD71150F5CFD3
S11319808FEF8E8F0F900FBE0FB6F8940F921D8DB0
S11319907E0188E0E80EF11C11164CF4888588233A
S11319A031F0C70142D6811128D71150F5CF8FEFFE
S11319B08D8F0F900FBEDF91CF911F91FF90EF900D
S11319C00895CF93DF93009709F43FC0FC01238D62
S11319D0222309F43AC0EC010FB6F8940F92408127
S11319E05181838D748D9A01879F200D311D11249F
S11319F035832483128E5383428390E00197789F2A
S1131A009001799F300D1124CA01820F931F97838F
S1131A1086838FEF858F868F61110BC08085882325
S1131A2081F0CF01089601D6882359F00E94DA1676
S1131A3008C0CF0108960E945516CE0141960E9417
S1131A4055160F900FBE81E001C080E0DF91CF9169
S1131A500895CF93DF93E9018823A1F02097A1F0A3
S1131A604115510529F0662369F05983488304C060
S1131A70611108C0398328838B8F6C8F61E0CE019C
S1131A80A0DF02C0C0E0D0E0CE01DF91CF91089585
S1131A90AF92BF92CF92DF92FF920F931F93CF9397
S1131AA0DF9300D01F921F92CDB7DEB78C016B017C
S1131AB05D834C83F22E80E0580198E0A90EB11C9E
S1131AC00FB6F8940F92F801228D938D291718F010
S1131AD0F2E0FF1212C04F2DB601C801CCDEF801AE
S1131AE09189992319F0C80141969FD581110E94CB
S1131AF0DA160F900FBE81E046C02C813D81232B66
S1131B0019F40F900FBE3EC0811103C0CE0101969F
S1131B1038D60F900FBEF6D20FB6F8940F92F80194
S1131B20858D8F3F09F4158EF801868D8F3F09F45A
S1131B30168E0F900FBEBE016C5F7F4FCE010196D3
S1131B402BD681111CC00FB6F8940F92F801928D18
S1131B50838D0F900FBE98130EC06C817D81C501DB
S1131B600ED5C801F4DEE7D3882311F081E0A8CFB5
S1131B700E94DA16FBCFC801EADEDDD3F7CFC80135
S1131B80E6DED9D380E00F900F900F900F900F9066
S1131B90DF91CF911F910F91FF90DF90CF90BF9075
S1131BA0AF900895EF92FF921F93CF93DF93EC01D0
S1131BB09A8D8B8D981710F02230F1F47A011E8DD6
S1131BC08A8D422FCE0157DE1F3F79F489898823FD
S1131BD089F0CE01419629D5882361F0E114F104FE
S1131BE049F081E0F701808308C09CD2181710F4F3
S1131BF01F5F1E8F81E001C080E0DF91CF911F91B4
S1131C00FF90EF900895AF92BF92CF92DF92FF9230
S1131C100F931F93CF93DF9300D01F921F92CDB7E2
S1131C20DEB78C016B015D834C8380E0580191E148
S1131C30A90EB11C0FB6F8940F92F801F28CFF2094
S1131C4099F0B601C80169DEFA94F801F28E808534
S1131C50882331F0C8010896E8D481110E94DA166D
S1131C600F900FBE81E044C02C813D81232B19F4D9
S1131C700F900FBE3CC0811103C0CE01019681D5E7
S1131C800F900FBE3FD20FB6F8940F92F801858DD6
S1131C908F3F09F4158EF801868D8F3F09F4168E57
S1131CA00F900FBEBE016C5F7F4FCE01019674D5BD
S1131CB0811116C0C801D4DD882371F06C817D8147
S1131CC0C5015DD4C80143DE36D3882311F081E019
S1131CD0B1CF0E94DA16FBCFC80139DE2CD3F7CF7F
S1131CE0C80135DE28D3C801BBDD882381F380E039
S1131CF00F900F900F900F900F90DF91CF911F9145
S1131D000F91FF90DF90CF90BF90AF900895CF9345
S1131D10DF93EC010FB6F8940F928D8D8F3F09F489
S1131D201D8E8E8D8F3F09F41E8E0F900FBE8A8DEF
S1131D30811103C0CE01419631D4CE01DF91CF9100
S1131D4006CEE0911804F09119048081811103C03A
S1131D508FEF9FEF09C0E0911804F09119040580FA
S1131D60F681E02D808191819093EF038093EE03BF
S1131D700895FF920F931F93CF93DF93EC01F62EF8
S1131D800091F7031091F80380915004909151044D
S1131D900296D5D7CF3F8FEFD807C1F5FF20B1F119
S1131DA0E091FB03F091FC03A0915004B091510425
S1131DB01596FC93EE931497A0915004B09151049E
S1131DC08481958117969C938E93169780915004E5
S1131DD090915104A481B581029613969C938E939D
S1131DE012978091500490915104029695838483B4
S1131DF0E0915004F09151048AEF93E09387828735
S1131E008091FA038F5F8093FA032DC0C00FD11F16
S1131E10E0915004F0915104D383C2836091500443
S1131E2070915104C017D10760F480911604909109
S1131E3017046E5F7F4FDF91CF911F910F91FF9039
S1131E4046C780911804909119046E5F7F4F3FD765
S1131E508091EE039091EF03C817D90720F4D09333
S1131E60EF03C093EE03DF91CF911F910F91FF9089
S1131E7008956F927F928F929F92AF92BF92CF926A
S1131E80DF92EF92FF920F93CF93DF93C114D104AB
S1131E9009F4DDC0E114F10409F4D9C0E6015901E3
S1131EA03A014B016C0188E2DE011D928A95E9F743
S1131EB0F88EEF8A65EA70E0C7010E94EE17B1E080
S1131EC06B1A7108EF88F88CE60CF71C81149104E6
S1131ED099F0BE01675E7F4FF401C40108969F012B
S1131EE04191DB014D93BD01D9012C91222319F0BD
S1131EF0E817F907A1F718A2043008F003E00E8BE5
S1131F0009A34E01B2E08B0E911CC401DCD6CE01B4
S1131F100C96D9D6D987C88784E090E0801B9109B4
S1131F209D878C87DB8BCA8BA501B601C7012BD794
S1131F30998388830FB6F8940F928091F9038F5F89
S1131F408093F9038091500490915104892B89F571
S1131F50D0935104C09350048091F903813009F067
S1131F6038C08CE294E0A1D685E394E09ED68EE35B
S1131F7094E09BD687E494E098D683E294E095D6E7
S1131F808AE194E092D68DE094E08FD684E094E0E8
S1131F908CD68AEF93E089D683E294E09093190477
S1131FA0809318048AE194E09093170480931604B4
S1131FB010C08091F50381110CC0E0915004F091A0
S1131FC0510496898E89891720F0D0935104C093C7
S1131FD050048091F0038F5F8093F003EE89809129
S1131FE0F6038E1710F4E093F60389E08E9FF00158
S1131FF01124E45DFB4F0180F281E02DFD83EC832D
S1132000248135813F832E83A481B58113969C92CC
S11320108E92129795828482EE898E9FF00111240C
S1132020E45DFB4FFB87EA8780818F5F80830F909D
S11320300FBE8091F503882369F0E0915004F0917C
S1132040510496898E89981728F4B4D603C080E089
S113205090E001C0CE01DF91CF910F91FF90EF90FE
S1132060DF90CF90BF90AF909F908F907F906F90B4
S11320700895CF92DF92EF92FF920F93CF93DF9365
S113208000D000D0CDB7DEB71E821D821C821B8219
S1132090AE014F5F5F4FBE016D5F7F4FCE0105966E
S11320A0ADD5CD80DE80EB80FC8049815A8100E093
S11320B020E030E063E672E089E491E0DADE892B27
S11320C089F0BBD4813071F4F8942FEF3FEF309353
S11320D0EF032093EE038093F5031092F80310921C
S11320E0F70337D780913A0226960FB6F894DEBFED
S11320F00FBECDBFDF91CF910F91FF90EF90DF9096
S1132100CF9008958091ED038F5F8093ED03089540
S11321100FB6F8940F928091F7039091F8030F9003
S11321200FBE08958091F9030895DF92EF92FF9214
S11321300F931F93CF93DF938091ED038111E6C03A
S11321400091F7031091F8030F5F1F4F1093F803EA
S11321500093F70301151105B1F4809118049091CF
S11321601904209116043091170430931904209314
S1132170180490931704809316048091F1038F5FE1
S11321808093F103DEDD8091EE039091EF03D12C77
S11321900817190708F49BC049E0E0911804F0916E
S11321A019048081811103C08FEF9FEF0FC0E0916C
S11321B01804F09119040580F681E02D0680F7815A
S11321C0E02D828193810817190728F49093EF0377
S11321D08093EE037CC0A285B3858481958126819A
S11321E03781EC013D832C8326813781E9019B8370
S11321F08A83CF01029611966D917C91129768178C
S1132200790721F412963C932E9311971386128624
S11322102C9121502C93A489B5891097F9F0268527
S1132220378560897189E9017D836C83608971894F
S1132230EB013B832A831196ED90FC9012979F014A
S1132240245F3F4FE216F30621F412967C936E93BB
S11322501197158A148A2C9121502C93A6892091C8
S1132260F6032A1710F4A093F6034A9FD001112411
S1132270A45DBB4F11960D90BC91A02DB583A48392
S113228014962D913C9115973783268314962D919E
S11322903C911597E9019B838A8315969C938E93B1
S11322A014979689499FD0011124A45DBB4FB3872D
S11322B0A2878C918F5F8C93E0915004F09151042C
S11322C08689891708F069CFDD24D39466CFE0911D
S11322D05004F0915104E689D9E0ED9FF0011124F6
S11322E0E45DFB4F8081823010F0DD24D394809133
S11322F0F3039091F403892B11F40E94BC028091A2
S1132300F203882379F0DD24D3940CC08091F30385
S11323109091F40301969093F4038093F3030E9445
S1132320BC02D12C8D2DDF91CF911F910F91FF9085
S1132330EF90DF900895EF92FF920F931F93CF9346
S1132340DF930FB6F8940F928091ED038150809340
S1132350ED038091ED03882311F080E0ACC08091FF
S1132360F9038823D1F3E0901204F0901304E0E021
S1132370F0E039E041E080910D04882309F480C045
S1132380D7011696ED91FC911797A489B5896685B6
S1132390778580899189EB019D838C8380899189DC
S11323A0EC017B836A83BF01645F7F4F11960D91BB
S11323B01C9112970617170721F412969C938E937B
S11323C01197158A148A8C9181508C93A285B385B8
S11323D08481958166817781EC017D836C8366813C
S11323E07781EB019B838A83CF01029611960D912D
S11323F01C9112970817190721F412967C936E9377
S11324001197138612862C9121502C93A689209122
S1132410F6032A1710F4A093F6033A9FD00111246F
S1132420A45DBB4F11960D90BC91A02DB583A483E0
S113243014966D917C9115977783668314966D91AC
S11324407C911597EB019B838A8315969C938E93BD
S113245014979689399FD0011124A45DBB4FB3878B
S1132460A2878C918F5F8C93A0915004B0915104FA
S113247056968C91891708F07ECF4093F2037BCF58
S1132480EF2B09F05EDCC091F303D091F4032097A5
S113249059F011E04ADE81111093F2032197D1F72C
S11324A01092F4031092F3038091F203882309F449
S11324B054CF80D481E00F900FBEDF91CF911F9154
S11324C00F91FF90EF9008958091ED03882321F000
S11324D081E08093F20308951092F203A0915004D6
S11324E0B0915104E0915004F09151042D913C912C
S11324F08789908D8217930758F0609150047091EA
S113250051048091500490915104675E7F4F6AD3C7
S11325108091F60369E0482F50E0649F9001659F25
S1132520300D1124F901E45DFB4F9081911102C03B
S11325308150F1CFA181B28112966D917C91139754
S113254072836183215D3B4F6217730721F42581F8
S113255036813283218399E0949FF001959FF00D99
S11325601124E45DFB4F0180F281E02D2681378147
S113257030935104209350048093F6030895CF932D
S1132580DF93EB016091500470915104645F7F4FBD
S11325909ED361E0CE01DF91CF91EBCB0F931F93DC
S11325A0CF93DF93FC018B01A181B2818091500410
S11325B090915104EC01BF87AE87809150049091B3
S11325C0510414962D913C911597EC01398B288B6D
S11325D0209150043091510414968D919C9115973B
S11325E0245F3F4FEC013B832A83209150043091B8
S11325F05104245F3F4F15963C932E931497A0915A
S11326005004B09151045596FC93EE9354979081E5
S11326109F5F9083442311F00FEF1FEF642FC801D5
S1132620DF91CF911F910F91A4CBCF93DF93DC0166
S11326301596ED91FC9116970680F781E02DA489FB
S1132640B5898685978520893189EC013D832C8362
S1132650C089D1899B838A83CF010C9611962D91D1
S11326603C9112972817390721F41296DC93CE93E4
S11326701197158A148A2C9121502C932091ED03E3
S113268021114FC0A285B38584819581268137812C
S1132690EC013D832C83C681D7819B838A839F0170
S11326A02E5F3F4F11968D919C911297821793073D
S11326B021F41296DC93CE931197138612868C9193
S11326C081508C93A6898091F6038A1710F4A09305
S11326D0F60389E08A9FD0011124A45DBB4F1196B3
S11326E00D90BC91A02DB583A48314964D915C915B
S11326F01597578346831496CD91DC9115973B83A8
S11327002A8315963C932E931497A6898A9FD00109
S11327101124A45DBB4FB387A2878C918F5F8C93E8
S11327201FC0A0910E04B0910F04B787A68714961A
S11327302D913C911597318B208B1496CD91DC9182
S113274015979B838A8315969C938E9314978DE09B
S113275094E0958B848B80910D048F5F80930D049E
S1132760A0915004B0915104968956968C91891782
S113277020F481E08093F20301C080E0DF91CF91E7
S113278008952091F103FC0120832091F7033091F7
S1132790F803328321830895CF93DF930FB6F8941F
S11327A00F924091F7035091F803DB012D913C9176
S11327B02F3FBFEF3B07D9F0EC01E981FA81A091EB
S11327C0F103B881BA1741F04E175F0728F0FB01F7
S11327D01182108281E00CC04E1B5F0B421753071D
S11327E0B0F7FB01241B350B31832083CADF80E063
S11327F00F900FBEDF91CF91089581E08093F20393
S113280008958091F503882331F08091ED038823A6
S113281021F080E0089581E0089582E008950F9307
S11328201F93CF93DF93EC01892B11F480E043C015
S11328308AA181508AA32E8999A12917B9F38111FC
S1132840F5CF8E010E5F1F4FC80179D289A18E8BFF
S1132850482F50E024E030E0241B350B3D872C87C3
S11328609091F603981710F48093F60389E0849FFF
S1132870F001859FF00D1124E45DFB4F0180F2818E
S1132880E02DFD83EC83248135813F832E83A48155
S1132890B58113961C930E93129715830483EE89C6
S11328A08E9FF0011124E45DFB4FFB87EA87808152
S11328B08F5F808381E0DF91CF911F910F91089505
S11328C00F930FB6F8940F928091A7049091A804E7
S11328D0892BF1F486EB94E0E8D18DEA94E0E5D11C
S11328E086EB94E09093AC048093AB048DEA94E07F
S11328F09093AA048093A90400E022E534E041E720
S113290054E065E08AE0A5D89093A8048093A704D6
S11329100F900FBE0F910895FC017383628391871A
S113292080874617570778F0421B530B848595859B
S113293048175907C0F4BF016E5F7F4F8091A90407
S11329409091AA040DC04217530718F46217730735
S113295050F4BF016E5F7F4F8091AB049091AC0443
S1132960B6D180E0089581E00895EF92FF920F932D
S11329701F93CF93DF93EC018B017A016C857D85E6
S1132980600F711F9801A701CE01C6DF882349F0AB
S11329908C859D85080F191FE889F989CE01199541
S11329A0EDCFDF91CF911F910F91FF90EF9008959C
S11329B0EF92FF920F931F93CF93DF938C017B01D0
S11329C0E091AB04F091AC040580F681E02DC68162
S11329D0D781CE010296B3D18A8982FF05C0A701AF
S11329E0B801CE01C2DF02C08E7F8A8BE889F989E3
S11329F0CE01DF91CF911F910F91FF90EF90199429
S1132A00E091AB04F091AC048081882349F0058007
S1132A10F681E02D6FEF7FEF80819181C9DFF0CFE8
S1132A208091A9049091AA049093AC048093AB0480
S1132A30F093AA04E093A9040895CF92DF92EF9251
S1132A40FF920F93CF93DF9300D000D0CDB7DEB7C2
S1132A5037DF8091A7049091A804892B19F11E8275
S1132A601D821C821B82AE014F5F5F4FBE016D5FF2
S1132A707F4FCE010596D2D0CD80DE80EB80FC80E6
S1132A8049815A8103E020E030E068E672E08FE695
S1132A9091E0EFD99C019093A6048093A50481E072
S1132AA0232B09F480E026960FB6F894DEBF0FBE00
S1132AB0CDBFDF91CF910F91FF90EF90DF90CF903A
S1132AC008957F928F929F92AF92BF92CF92DF929E
S1132AD0EF92FF920F931F93CF93DF934C015B010F
S1132AE0742E6901E701209799F082E08A8BE8DE71
S1132AF099828882BD86AC86DF86CE86198B088B48
S1132B00C7010296E0D0772019F08A8984608A8B05
S1132B10CE01DF91CF911F910F91FF90EF90DF9045
S1132B20CF90BF90AF909F908F907F9008950F9318
S1132B301F93CF93DF9300D01F921F92CDB7DEB7C0
S1132B40A091A704B091A804109719F1F901698321
S1132B505B834A839D838C8366309CF452DEE091D0
S1132B60A704F091A80420E0823011F4A80102C067
S1132B7040E050E0BE016F5F7F4FCF010E94480DDF
S1132B8009C020E0AF01BE016F5F7F4FCD010AD8BD
S1132B9001C080E00F900F900F900F900F90DF9185
S1132BA0CF911F910F910895209104023091050255
S1132BB08FEF91E2821B930B9093010280930002AA
S1132BC00E94E60456CA08950E94170580E090E02A
S1132BD0892B11F00C9400000895279A2F9A0895D8
S1132BE01F9A0895FADF2FEF87EA91E6215080407B
S1132BF09040E1F700C00000F3DFF5CF2CEF35E0A3
S1132C00FC01318320838CE395E0FB019183808375
S1132C1080EC90E0FA0191838083089524E135E00B
S1132C20FC01318320838FEB94E0FB01918380834B
S1132C3085E590E0FA01918380830895CF93CFB71F
S1132C40F89480912706811127C0E3E3F2E0849190
S1132C50EDEEF1E09491E82FF0E0EE0FFF1FE8585D
S1132C60FD4FA591B491EC91E92321F461E085E352
S1132C700E94CD0661E085E30E9491068CB58061D7
S1132C808CBD8CB580648CBD61E084E30E949106A8
S1132C9061E083E30E949106809127068F5F809311
S1132CA02706CFBFCF9108950895FC010396928320
S1132CB081832FEF3FEF348323839683858390872B
S1132CC0878310820895FC011186108608950F935E
S1132CD01F93CF93DF938C01FB01808191818F3F00
S1132CE02FEF920721F4E801AF81B8850EC0D80117
S1132CF0139612962D913C911397E90148815981BD
S1132D008417950710F0D901F4CF12968D919C91F8
S1132D10139793838283EC01FD83EC83B583A483AF
S1132D201396FC93EE93129711870087F801808124
S1132D308F5F8083DF91CF911F910F910895CF937F
S1132D40DF93FC01A085B185828193812481358143
S1132D50EC013D832C83C481D5819B838A831196A6
S1132D608D919C911297E817F90721F41296DC9340
S1132D70CE931197118610868C9181508C938C91EF
S1132D80DF91CF910895FC0160833197708331976F
S1132D90108231971082319720E820833197108276
S1132DA031971082319710827797408331975083FF
S1132DB0869708950F920FB6F8940F920BB60F9260
S1132DC00CB60F921F9211242F923F924F925F9252
S1132DD06F927F928F929F92AF92BF92CF92DF9227
S1132DE0EF92FF920F931F932F933F934F935F9311
S1132DF06F937F938F939F93AF93BF93CF93DF93FF
S1132E00EF93FF93A0915004B09151040DB60D922D
S1132E100EB60D9259DBA0915004B0915104CD919E
S1132E20CDBFDD91DEBFFF91EF91DF91CF91BF91D7
S1132E30AF919F918F917F916F915F914F913F914E
S1132E402F911F910F91FF90EF90DF90CF90BF9043
S1132E50AF909F908F907F906F905F904F903F9036
S1132E602F901F900F900CBE0F900BBE0F900FBEB3
S1132E700F9008950F920FB6F8940F920BB60F921D
S1132E800CB60F921F9211242F923F924F925F9291
S1132E906F927F928F929F92AF92BF92CF92DF9266
S1132EA0EF92FF920F931F932F933F934F935F9350
S1132EB06F937F938F939F93AF93BF93CF93DF933E
S1132EC0EF93FF93A0915004B09151040DB60D926D
S1132ED00EB60D9213BE29D98111F6DAA0915004D1
S1132EE0B0915104CD91CDBFDD91DEBFFF91EF9143
S1132EF0DF91CF91BF91AF919F918F917F916F910E
S1132F005F914F913F912F911F910F91FF90EF90FF
S1132F10DF90CF90BF90AF909F908F907F906F90F5
S1132F205F904F903F902F901F900F900CBE0F908A
S1132F300BBE0F900FBE0F900895A89590EC88E1FA
S1132F400FB6F894A895809360000FBE909360002C
S1132F500895F3DFA0915004B0915104CD91CDBFF9
S1132F60DD91DEBFFF91EF91DF91CF91BF91AF91E2
S1132F709F918F917F916F915F914F913F912F918D
S1132F801F910F91FF90EF90DF90CF90BF90AF9083
S1132F909F908F907F906F905F904F903F902F9075
S1132FA01F900F900CBE0F900BBE0F900FBE0F9092
S1132FB0089581E008955EDF1895EE0FFF1F881FC6
S1132FC08BBF0790F691E02D1994FB01DC0102C040
S1132FD001900D9241505040D8F70895DC0101C092
S1112FE06D9341505040E0F70895F894FFCFF0
S1132FEE000029062000000013000000010000006C
S1132FFE05000000000000001300000001000000A6
S113300E0400000000000000130000000100000096
S113301E03000000000000007A0203000102030412
S113302E0500010202000300414F00544500000058
S113303E0600606166017071760230313640414699
S113304E50515649444C4500546D722053766300DA
S9030000FC
