S00E00004543555F4C542E737265633A
S11300004AC2000078C2000076C2000074C2000038
S113001072C2000070C200006EC200006CC2000018
S11300206AC2000068C2000066C2000064C2000028
S11300300C94661660C200005EC200005CC2000040
S11300405AC2000058C2000056C2000054C2000048
S113005052C2000050C200004EC2000065C400003D
S11300604AC2000048C2000046C2000044C2000068
S113007042C2000040C200003EC200003CC2000078
S11300803AC2000038C2000036C2000034C2000088
S113009032C2000030C200002EC200002CC2000098
S11300A02AC2000028C2000026C2000024C20000A8
S11300B022C2000020C200001EC200001CC20000B8
S11300C01AC2000018C2000016C2000014C20000C8
S11300D012C2000010C200000EC200000CC20000D8
S11300E00AC20000C605C905B805BC05C20500065C
S11300F0CD05D105D705DB05DF05E505E905ED05EA
S11301000006F305F705FB055908CB075D08CE0784
S1130110D107D507D807DB0757085708DE07E107DB
S1130120E407E707EA07ED076108FD070008570839
S1130130040808080B080E081108140844081708D6
S11301401A081D08200823086508330836083A08E9
S11301503D0857084108440848084C08500854080A
S11301600502050246023302460205020502460262
S1130170330200000A0B02090C0D0E0807030401E8
S1130180000000000000000000000000000000006B
S11301900000000000000000000000000000121138
S11301A0100000000000000000000000000000003B
S11301B000000000000000000102102020080810C8
S11301C020401020408002010201080402010102C3
S11301D0040810204080804020100804020180049C
S11301E002018040201008040201080402010102F7
S11301F004081020408001020408102040800505F6
S11302000505070508080808020202020A0A080888
S113021004040404010101010101010103030303B6
S113022003030303040707070C0C0C0C0C0C0C0C45
S11302300202020206060606060606060B0B0B0B56
S11302400B0B0B0B000020002300260029002C00C0
S11302502F00320000010000030106010901000023
S11302602200250028002B002E003100340002015A
S11302700000050108010B010000210024002700F3
S11302802A002D00300033000101000004010701A1
S11302900A018091AB038823C9F00FB6F8940F923A
S11302A0E091B103F091B2038681978102960E9496
S11302B02A158091A10381508093A1038091AB03FF
S11302C081508093AB030F900FBEE3CF8091D40392
S11302D0823010F00E9465150E946F14DACFCF931C
S11302E0DF9300D01F921F92CDB7DEB7E091530485
S11302F0F0915404D080DD2031F00580F681E02DAA
S11303000081118102C000E010E00E940D0F0E94E4
S1130310130F7C0180914B0490914C04E816F9066C
S113032020F40E948B1381E001C080E0F0924C0421
S1130330E0924B04811124C0DD2051F0E016F10657
S113034070F00E942610B701C8010E9463131EC0FA
S1130350E0915104F0915204808141E0811140E028
S1130360B8016E197F0980914F04909150040E9446
S1130370120D0E942610811109C00E94651506C045
S11303800E94261003C0898187FF0EC040E050E020
S1130390BE016F5F7F4F80914F04909150040E9483
S11303A08E0C8111F0CFA2CF0C811D81D8011A9639
S11303B08D919C911B97892B21F0C80102960E9474
S11303C02A150E94130F7C0180914B0490914C04D8
S11303D0E816F90610F40E948B13F0924C04E09294
S11303E04B04E9818E2FEE0F990BAA0BBB0BFC017A
S11303F03197E930F10550F6D80152969C9188273F
S1130400E055FF4F8F4F0C9468169160F801928B62
S11304102A813B8164857585620F731FA701C8011A
S11304200E941713882309F4B1CFD80152968C91F6
S1130430529782FF0DC06A817B811C968D919C919D
S11304401D97680F791FA701C8010E94401303C0BC
S11304508E7FF801828BD8015096ED91FC915197D3
S1130460C801199593CF9160D80152969C935297E5
S11304706A817B811D967C936E931C976E0D7F1D04
S11304809701A701C8010E94171380CF9E7FF8012E
S1130490928B7CCFDC0211241FBECFEFD1E2DEBFF2
S11304A0CDBF00E00CBF12E0A0E0B2E0E4E0FDE26A
S11304B000E00BBF02C007900D92A634B107D9F734
S11304C025E0A6E4B2E001C01D92A13DB207E1F728
S11304D012E0CBE4D2E000E006C021970109802FAE
S11304E0FE010E946816CA34D10780E00807A9F704
S11304F00FD20C94801684CD61E089E282D361E04E
S11305008CE27FD361E08AE27CD361E08DE279D32F
S113051062E089E076D387E492E0B5D642E06BE00E
S113052087E492E01AD587E492E015C561E08CE295
S1130530A4C360E08CE2A1C361E089E29EC360E0F1
S113054089E29BC389E0C7C3BC0187E492E0B6C7D4
S1130550CF93DF931F92CDB7DEB71982F3DF2091DB
S11305604602213019F118F0223081F021C0813087
S1130570910561F4AE014F5F5F4F66E272E08091D6
S1130580180290911902AFD082E00DC0892B81F43A
S1130590AE014F5F5F4F64E272E080911802909168
S11305A01902A1D081E08093460202C0019711F3A1
S11305B00F90DF91CF9108950F931F9300E010E007
S11305C020E836E948E950E061E387E492E000D4AA
S11305D01F910F910895CF93DF931F921F92CDB770
S11305E0DEB78C017C018BE4E80EF11CD701ED91A0
S11305F0FC916EE272E0C80119954FEF5FEFBE0106
S11306006F5F7F4FF80182A593A50E948E0C6981CC
S11306107A81D701ED91FC91EECF855B9F4FFC0170
S11306207183608308954F925F926F927F928F924D
S11306309F92AF92BF92CF92DF92EF92FF920F936D
S11306401F93CF93DF93CDB7DEB74C01162F802FC6
S1130650250136019401245D3F4F00E062E00E94D1
S1130660B40BF40193A782A76401F2E0CF0ED11C6E
S1130670012F9401A20168E272E08BEE92E00E94E5
S1130680C40DF40191838083DF91CF911F910F9169
S1130690FF90EF90DF90CF90BF90AF909F908F909E
S11306A07F906F905F904F900895CF93DF931F9248
S11306B01F92CDB7DEB77A83698320E040E050E033
S11306C0BE016F5F7F4FFC0182A593A50E94D30BEF
S11306D00F900F90DF91CF9108950697BC01FC0114
S11306E082819381E2CFCF93DF931F921F92CDB784
S11306F0DEB77A83698320E0BE016F5F7F4FFC0120
S113070082A593A50E945D0C0F900F90DF91CF916D
S11307100895EF92FF920F931F93CF93DF93EC0111
S1130720798368835B834A837C0186E0E80EF11C4D
S11307300DE613E09E01498D61E070E08BE292E0EA
S11307400E94EC139D838C83DF91CF911F910F91B5
S1130750FF90EF9008950F931F9324E0769567958B
S1130760579547952A95D1F74115510511F441E064
S113077050E000E010E020E030E064E0FC0184811F
S113078095810E9422141F910F9108950F931F9336
S113079000E010E020E030E040E050E063E0FC01E5
S11307A0848195810E9422141F910F910895EF92E4
S11307B0FF920F931F93CF93DF93EC01FB01808192
S11307C091818130910511F1D0F0029709F050C068
S11307D0B6DE88E092E0B8DEFE01E859FF4F1182F0
S11307E0108248EE53E060E070E0CE01835B9F4FDF
S11307F0B2DF9CDEC959DF4F81E0888339C0DF91C5
S1130800CF911F910F91FF90EF9096CE7E01F7E666
S1130810EF0EF11CF70180818E01035B1F4F8111E4
S113082018C0C859DF4F88819981019699838883BC
S1130830039754F0C801AADF7FDEDF91CF911F91A7
S11308400F91FF90EF9075CE71DE81E0F701808308
S113085003C06FDEF701108248EE53E060E070E001
S1130860C801DF91CF911F910F91FF90EF9073CF4B
S1130870DF91CF911F910F91FF90EF900895CF9347
S1130880DF93EC0167ED73E0C8DEFE01EA59FF4F28
S11308901082AE0161E070E0CE01835B9F4F39DFCF
S11308A0C959DF4F1882DF91CF9108958F929F929B
S11308B0AF92BF92CF92DF92EF92FF920F931F936A
S11308C01BDE8EE492E0DBDF812C912C80ECA82EE1
S11308D0B12CC12CD12C9CECE92E92E0F92E0AE02B
S11308E010E020E030E048EB52E061E08091180233
S11308F09091190298DE1F910F91FF90EF90DF9075
S1130900CF90BF90AF909F908F900C94C40E089599
S1130910C0D00E945F14CADFC0E0D0E0F8DF2097A7
S1130920E9F30E940000FACF1F920F920FB60F92C4
S113093011242F933F938F939F93AF93BF938091F1
S11309408D0390918E03A0918F03B0919003309109
S11309508C0323E0230F2D3720F40196A11DB11D34
S113096005C026E8230F0296A11DB11D20938C0318
S113097080938D0390938E03A0938F03B093900381
S11309808091910390919203A0919303B091940369
S11309900196A11DB11D8093910390939203A0939E
S11309A09303B0939403BF91AF919F918F913F9123
S11309B02F910F900FBE0F901F9018952FB7F8949A
S11309C060918D0370918E0380918F0390919003B9
S11309D02FBF08953FB7F8948091910390919203AB
S11309E0A0919303B091940326B5A89B05C02F3F13
S11309F019F00196A11DB11D3FBFBA2FA92F982F41
S1130A008827820F911DA11DB11DBC01CD0142E0BB
S1130A10660F771F881F991F4A95D1F708958F9203
S1130A209F92AF92BF92CF92DF92EF92FF926B01AF
S1130A307C01D0DF4B015C01C114D104E104F10459
S1130A40F9F00E94DF14C6DFDC01CB018819990993
S1130A50AA09BB09883E9340A105B10568F321E0CA
S1130A60C21AD108E108F10888EE880E83E0981EC6
S1130A70A11CB11CC114D104E104F10421F7DCCFA1
S1130A80FF90EF90DF90CF90BF90AF909F908F90AA
S1130A900895789484B5826084BD84B5816084BDF2
S1130AA085B5826085BD85B5816085BDEEE6F0E0E3
S1130AB0808181608083E1E8F0E01082808182603F
S1130AC08083808181608083E0E8F0E080818160C0
S1130AD08083E1EBF0E0808184608083E0EBF0E0F0
S1130AE0808181608083E1E9F0E08081826080839D
S1130AF0808181608083E0E9F0E08081816080838F
S1130B00E1EAF0E08081826080838081816080837B
S1130B10E0EAF0E0808181608083E1E2F1E08081BD
S1130B2082608083808181608083E0E2F1E0808163
S1130B3081608083EAE7F0E0808184608083808143
S1130B4082608083808181608083808180688083EB
S1130B501092C100089590E0FC013197E231F10553
S1130B6008F04EC08827EE58FF4F8F4F0C9468163C
S1130B70809180008F7703C0809180008F7D809367
S1130B808000089580918000877FF9CF84B58F77A6
S1130B9002C084B58F7D84BD08958091B0008F77A5
S1130BA003C08091B0008F7D8093B0000895809140
S1130BB090008F7707C0809190008F7D03C0809153
S1130BC09000877F8093900008958091A0008F7794
S1130BD007C08091A0008F7D03C08091A000877F13
S1130BE08093A0000895809120018F7707C08091A1
S1130BF020018F7D03C080912001877F8093200195
S1130C000895CF93DF9390E0FC01E854FE4F2491C4
S1130C10FC01E250FE4F8491882361F190E0880F3B
S1130C20991FFC01E858FD4FC591D491FC01E25A8B
S1130C30FD4FA591B491611109C09FB7F8948881C3
S1130C40209582238883EC912E230BC0623061F4BB
S1130C509FB7F8948881322F309583238883EC9151
S1130C602E2B2C939FBF06C08FB7F894E8812E2BB0
S1130C7028838FBFDF91CF9108951F93CF93DF9384
S1130C80282F30E0F901EE58FE4F8491F901E85421
S1130C90FE4FD491F901E250FE4FC491CC23B9F038
S1130CA0162F811158DFEC2FF0E0EE0FFF1FE25AF0
S1130CB0FD4FA591B4919FB7F894111104C08C9184
S1130CC0D095D82302C0EC91DE2BDC939FBFDF913B
S1130CD0CF911F910895CF93DF93282F30E0F9012E
S1130CE0EE58FE4F8491F901E854FE4FD491F90176
S1130CF0E250FE4FC491CC2389F081112CDFEC2FFC
S1130D00F0E0EE0FFF1FEC5BFD4FA591B491EC9169
S1130D10ED2381E090E021F480E002C080E090E0E7
S1130D20DF91CF9108958EBD00000DB407FEFDCF75
S1130D308EB50895FC01418152816381748180E004
S1130D4092E1AAE7B0E020E0481759076A077B0759
S1130D5040F4B695A795979587952F5F2630A1F710
S1130D6027E091E09227292F206A2695917080919F
S1130D70CE05882399F08FB7F8943091CE053130A1
S1130D8059F43DB33093CC054DB33091CD05309536
S1130D9034233DBB8FBF02C08093CC052CBD9DBDC9
S1130DA060E080816ACF61E0FC01808166DF809130
S1130DB0CE05882361F09FB7F8942091CE058091E9
S1130DC0CC05213019F48DBB9FBF08958FBF0895C2
S1130DD08F929F92AF92BF92FF920F931F93CF93E4
S1130DE0DF93EC01F62E49015A010115110519F0A2
S1130DF01E830D8306C080ED95E09E838D830E9443
S1130E00A914F88289829A82AB82BC8261E08F2D18
S1130E10F8DECE01DF91CF911F910F91FF90BF902B
S1130E20AF909F908F90BFCF1F93CF93DF93EC0130
S1130E30162F80DF83E077DF812F75DF80E073DF9B
S1130E40182FCE01B0DF812FDF91CF911F9108952C
S1130E500F931F93CF93DF93EC01062F142F6ADFB8
S1130E6082E061DF802F5FDF812F5DDFCE01DF91C4
S1130E70CF911F910F9197CFDF92EF92FF920F9333
S1130E801F93CF93DF938C01C62FD42EE52EF22E21
S1130E9051DF82E048DF8C2F46DFCD2DDE2DCE01E1
S1130EA08F0D911D7C01CE15DF0519F089913BDF73
S1130EB0FACFC801DF91CF911F910F91FF90EF906E
S1130EC0DF9071CFFF920F931F93CF93DF93EC01C9
S1130ED0F62E042F122F2EDF85E025DF8F2D23DF42
S1130EE0802F21DF812F1FDFCE01DF91CF911F9152
S1130EF00F91FF9058CFCF92DF92EF92FF921F9302
S1130F00CF93DF93EC01162F262F40EE6FE0DADF4C
S1130F1055DD6B017C012AE0C20ED11CE11CF11CE1
S1130F204DDD6C157D058E059F0540F46EE0CE0108
S1130F307BDF807E1813F4CF81E001C080E091E074
S1130F408927DF91CF911F91FF90EF90DF90CF9091
S1130F50089560E8D0CF60E0CECF0F931F93CF9376
S1130F60DF938C01C62FD42FF4DF8111BDC0D130A3
S1130F70B9F108F46BC0D23009F099C08C2F90E01D
S1130F808031910508F093C0FC018827EC57FF4F8E
S1130F908F4F0C946816C7E8DFEB34C0C4E8D4EA7A
S1130FA08EC0C5E8D2EE47E493C0C7E8DFEB6EC05D
S1130FB0C6E8D4EB6BC0C7E8DFEB6CC0C6E8D4EB83
S1130FC069C0C5E8D1EB66C0C6E8D4EB6BC0C5E820
S1130FD0D1EB68C0C2E8D0E965C0C0E8D0E862C01F
S1130FE08C2F90E08031910508F061C0FC018827C6
S1130FF0EC56FF4F8F4F0C946816C7E8DFEF5BC0C9
S1131000C7E8DFEF4FE064C0C5E8D1EF4EE460C04D
S1131010C7E8DFEF54C0C7E8DAEF51C0C7E8DFEF35
S113102035C0C7E0DEEB32C0C7E0DDEA2FC0C6E85A
S1131030D0EF2CC0C7E8DAEF2DC0C5E8D1EF2EC041
S1131040C6E8D0EF2FC0C2E8D0ED2CC08C2F90E0C2
S1131050FC013497EC30F10550F58827EC55FF4F2F
S11310608F4F0C946816C7E8DFEF02C0C7E8DAEFC9
S113107049E02EC0C7E8DFEF02C0C7E8DEEF44E076
S113108027C0C7E8DAEFFBCFC7E8DAEF43E020C0B8
S1131090C7E8DFEF41E01CC0C6E8DBEF41E418C05D
S11310A0C7E8DAEF40E014C0C2E8D9EDFBCF81E035
S11310B01BC0C7E8DFEB4FE10BC0C7E8DFEB47E03D
S11310C007C0C7E8DFEF4FE303C0C7E8DFEF4BE03B
S11310D06AE2C801BDDE4D2F69E2C801B9DE4C2FBA
S11310E068E2C801B5DE80E0DF91CF911F910F91D6
S11310F008950F931F93FB014423B1F003831283DC
S1131100890122273327902F9C71802F837048E018
S1131110949F800D11248860818355E0169507956E
S11311205A95E1F700830DC0C80123E09695879591
S11311302A95E1F780830295000F007E01831382D4
S113114012821F910F9108958F929F92AF92BF9236
S1131150CF92DF92EF92FF920F931F93CF93DF937F
S113116000D01F92CDB7DEB77C01D62EC42E480125
S11311705901EFDE811119C0950184014C2DBE0186
S11311806F5F7F4FC701B5DFDD2029F081E0D81202
S11311900BC064E201C060E224E0AE014F5F5F4F28
S11311A0C7016ADE80E001C081E00F900F900F90CC
S11311B00F90DF91CF911F910F91FF90EF90DF90EF
S11311C0CF90BF90AF909F908F9008958F929F92F1
S11311D0AF92BF92CF92DF92EF92FF920F931F9341
S11311E0CF93DF9300D01F92CDB7DEB76C01F62EFC
S11311F0E42E48015901ADDE811134C082E0F816B5
S1131200A9F08F1540F0FF20D1F081E0F81229C039
S113121044E0F42E15C084E0F81671F0F81648F096
S113122085E0F8121EC088E1F82E0AC038E0F32EDB
S113123007C020E1F22E04C094E1F92E01C0F12C84
S1131240950184014E2DBE016F5F7F4FC60151DFB2
S113125024E0AE014F5F5F4F6F2DC6010DDE80E0CD
S113126001C081E00F900F900F900F90DF91CF910C
S11312701F910F91FF90EF90DF90CF90BF90AF90B0
S11312809F908F900895AF92BF92CF92DF92EF928A
S1131290FF920F931F93CF93DF93CDB7DEB764977D
S11312A00FB6F894DEBF0FBECDBF7C0143DD80ECEA
S11312B03ADDC70178DD6AE070E080E090E0AFDB02
S11312C08E010F5F1F4F8EE0F80111928A95E9F7A6
S11312D02EE0A80160E3C701CFDD2EE0A80160E4A1
S11312E0C701CADD2EE0A80160E5C701C5DD40E005
S11312F060E6C701ADDD40E060E7C701A9DD43EA70
S11313006BE2C701A5DD24E047E660E6C701DADD4C
S113131021E047E660E7C701D5DD86E0EBE1F2E0D6
S1131320DE011F9601900D928A95E1F75E01FFE0C0
S1131330AF0EB11CC12CD12CF50161915F0141E0CC
S1131340F1E0CF16D10409F040E000E010E098018C
S1131350C7013CDF811117C08FEFC81AD80AE6E035
S1131360CE16D10449F700E010E0980141E060E0B6
S1131370C701EADE811107C000E010E0980141E0F6
S113138061E0C701E1DE64960FB6F894DEBF0FBEDC
S1131390CDBFDF91CF911F910F91FF90EF90DF9020
S11313A0CF90BF90AF9008954F925F926F927F92CB
S11313B0AF92BF92CF92DF92EF92FF920F931F935F
S11313C0CF93DF93CDB7DEB72D970FB6F894DEBF7A
S11313D00FBECDBF5C01FA012481293008F058C04A
S11313E0E62EF12C80819181A281B381AC01BD01F3
S11313F0442777FD43955527662777272C013D0120
S113140044245524662420E47222B7FD05C00FEF5E
S113141017E020E030E004C00FEF1FEF2FEF3FE1B3
S11314206F01082319232A233B23BE016F5F7F4FDB
S1131430C5015FDEF6011481812F4528462847281F
S113144009F080648D83412F50E0B601685F7F4FBF
S1131450CE0106960E94701625E0210F8701000F29
S1131460111F0E0D1F1D005D1D4FAE014F5F5F4F1D
S1131470F8016181C50100DDF801108128E048E030
S1131480612FC5011FDD612FC501CEDC807709F016
S113149084E02D960FB6F894DEBF0FBECDBFDF916A
S11314A0CF911F910F91FF90EF90DF90CF90BF905D
S11314B0AF907F906F905F904F9008959F92AF92FE
S11314C0BF92CF92DF92EF92FF920F931F93CF932D
S11314D0DF9300D0CDB7DEB7FB0124812930D8F5E6
S11314E07B018C018091210290912202A091230220
S11314F089839A83AB83CE0101966C015E0194E0EB
S1131500A90EB11CF60191906F01292D30E0F9016B
S1131510EE0FFF1F2E0F3F1FF901E05DFD4F6081AD
S1131520C80182DC83FD12C0A701692DC8010F9098
S11315300F900F90DF91CF911F910F91FF90EF903B
S1131540DF90CF90BF90AF909F902ECFCA14DB0452
S1131550C9F682E001C084E00F900F900F90DF91F4
S1131560CF911F910F91FF90EF90DF90CF90BF909C
S1131570AF909F9008950FB6F8940F92FC01928D4E
S11315800F900FBE81E0911180E008950F931F9397
S1131590CF93DF93EC01042F1A8D4C8D41110AC0B7
S11315A088819981892BE1F58C819D81C3D71D8226
S11315B01C8237C050E0011115C08A819B810E94B2
S11315C070162C8D8A819B81820F911D9B838A8347
S11315D02C813D818217930718F1888199819B831F
S11315E08A831EC08E819F810E9470168C8D90E02C
S11315F09195819591092E813F81280F391F3F8351
S11316002E83488159812417350730F42C813D817C
S1131610820F931F9F838E83023011F41111115096
S113162080E01F5F1A8FDF91CF911F910F91089572
S1131630FC01CB01448D4423A1F050E02681378185
S1131640240F351F37832683648175812617370756
S113165020F02081318137832683668177810C9441
S113166070160895EF92FF921F93CF93DF93EC01CE
S11316700FB6F8940F921E8D7C0181E1E80EF11CE7
S113168011164CF48989882331F0C70159D6811188
S11316903FD71150F5CF8FEF8E8F0F900FBE0FB63F
S11316A0F8940F921D8D7E0188E0E80EF11C11164E
S11316B04CF48885882331F0C70142D6811128D79C
S11316C01150F5CF8FEF8D8F0F900FBEDF91CF911B
S11316D01F91FF90EF900895CF93DF93009709F443
S11316E03FC0FC01238D222309F43AC0EC010FB65C
S11316F0F8940F9240815181838D748D9A01879F54
S1131700200D311D112435832483128E538342838B
S113171090E00197789F9001799F300D1124CA01C0
S1131720820F931F978386838FEF858F868F611136
S11317300BC08085882381F0CF01089601D68823C9
S113174059F00E94651508C0CF0108960E94E01464
S1131750CE0141960E94E0140F900FBE81E001C0BB
S113176080E0DF91CF910895CF93DF93E90188233F
S1131770A1F02097A1F04115510529F0662369F0E5
S11317805983488304C0611108C0398328838B8F2F
S11317906C8F61E0CE01A0DF02C0C0E0D0E0CE01DA
S11317A0DF91CF910895AF92BF92CF92DF92FF92D3
S11317B00F931F93CF93DF9300D01F921F92CDB747
S11317C0DEB78C016B015D834C83F22E80E05801FF
S11317D098E0A90EB11C0FB6F8940F92F801228D6F
S11317E0938D291718F0F2E0FF1212C04F2DB601A5
S11317F0C801CCDEF8019189992319F0C8014196FA
S11318009FD581110E9465150F900FBE81E046C0DF
S11318102C813D81232B19F40F900FBE3EC0811102
S113182003C0CE01019638D60F900FBEF6D20FB684
S1131830F8940F92F801858D8F3F09F4158EF80105
S1131840868D8F3F09F4168E0F900FBEBE016C5F1C
S11318507F4FCE0101962BD681111CC00FB6F89490
S11318600F92F801928D838D0F900FBE98130EC0C6
S11318706C817D81C5010ED5C801F4DEE7D38823D0
S113188011F081E0A8CF0E946515FBCFC801EADE04
S1131890DDD3F7CFC801E6DED9D380E00F900F90F7
S11318A00F900F900F90DF91CF911F910F91FF90A8
S11318B0DF90CF90BF90AF900895EF92FF921F9367
S11318C0CF93DF93EC019A8D8B8D981710F0223013
S11318D0F1F47A011E8D8A8D422FCE0157DE1F3F0F
S11318E079F48989882389F0CE01419629D5882302
S11318F061F0E114F10449F081E0F701808308C04C
S11319009CD2181710F41F5F1E8F81E001C080E085
S1131910DF91CF911F91FF90EF900895AF92BF9206
S1131920CF92DF92FF920F931F93CF93DF9300D058
S11319301F921F92CDB7DEB78C016B015D834C8380
S113194080E0580191E1A90EB11C0FB6F8940F92F2
S1131950F801F28CFF2099F0B601C80169DEFA940F
S1131960F801F28E8085882331F0C8010896E8D406
S113197081110E9465150F900FBE81E044C02C8137
S11319803D81232B19F40F900FBE3CC0811103C07D
S1131990CE01019681D50F900FBE3FD20FB6F894B9
S11319A00F92F801858D8F3F09F4158EF801868D0D
S11319B08F3F09F4168E0F900FBEBE016C5F7F4FF0
S11319C0CE01019674D5811116C0C801D4DD8823D7
S11319D071F06C817D81C5015DD4C80143DE36D3CD
S11319E0882311F081E0B1CF0E946515FBCFC801B7
S11319F039DE2CD3F7CFC80135DE28D3C801BBDDCF
S1131A00882381F380E00F900F900F900F900F9038
S1131A10DF91CF911F910F91FF90DF90CF90BF90F6
S1131A20AF900895CF93DF93EC010FB6F8940F9223
S1131A308D8D8F3F09F41D8E8E8D8F3F09F41E8E80
S1131A400F900FBE8A8D811103C0CE01419631D40F
S1131A50CE01DF91CF9106CEE091C003F091C10396
S1131A608081811103C08FEF9FEF09C0E091C00313
S1131A70F091C1030580F681E02D808191819093DE
S1131A809703809396030895FF920F931F93CF9328
S1131A90DF93EC01F62E00919F031091A003809137
S1131AA0F8039091F9030296D5D7CF3F8FEFD8076B
S1131AB0C1F5FF20B1F1E091A303F091A403A0913B
S1131AC0F803B091F9031596FC93EE931497A09143
S1131AD0F803B091F9038481958117969C938E93B2
S1131AE016978091F8039091F903A481B581029629
S1131AF013969C938E9312978091F8039091F90317
S1131B00029695838483E091F803F091F90382EAC5
S1131B1093E0938782878091A2038F5F8093A203CF
S1131B202DC0C00FD11FE091F803F091F903D383C6
S1131B30C2836091F8037091F903C017D10760F470
S1131B408091BE039091BF036E5F7F4FDF91CF9171
S1131B501F910F91FF9046C78091C0039091C103DC
S1131B606E5F7F4F3FD78091960390919703C8177C
S1131B70D90720F4D0939703C0939603DF91CF91B4
S1131B801F910F91FF9008956F927F928F929F9271
S1131B90AF92BF92CF92DF92EF92FF920F93CF93C7
S1131BA0DF93C114D10409F4DDC0E114F10409F494
S1131BB0D9C0E60159013A014B016C0188E2DE010A
S1131BC01D928A95E9F7F88EEF8A65EA70E0C701FD
S1131BD00E947916B1E06B1A7108EF88F88CE60C54
S1131BE0F71C8114910499F0BE01675E7F4FF401E4
S1131BF0C40108969F014191DB014D93BD01D901B8
S1131C002C91222319F0E817F907A1F718A2043040
S1131C1008F003E00E8B09A34E01B2E08B0E911C79
S1131C20C401DCD6CE010C96D9D6D987C88784E006
S1131C3090E0801B91099D878C87DB8BCA8BA50163
S1131C40B601C7012BD7998388830FB6F8940F92F6
S1131C508091A1038F5F8093A1038091F8039091F9
S1131C60F903892B89F5D093F903C093F803809184
S1131C70A103813009F038C084ED93E0A1D68DED45
S1131C8093E09ED686EE93E09BD68FEE93E098D6B3
S1131C908BEC93E095D682EC93E092D685EB93E0BF
S1131CA08FD68CEA93E08CD682EA93E089D68BECCB
S1131CB093E09093C1038093C00382EC93E09093EC
S1131CC0BF038093BE0310C080919D0381110CC09B
S1131CD0E091F803F091F90396898E89891720F031
S1131CE0D093F903C093F803809198038F5F809396
S1131CF09803EE8980919E038E1710F4E0939E035F
S1131D0089E08E9FF0011124EC52FC4F0180F28196
S1131D10E02DFD83EC83248135813F832E83A481D0
S1131D20B58113969C928E92129795828482EE8945
S1131D308E9FF0011124EC52FC4FFB87EA878081CF
S1131D408F5F80830F900FBE80919D03882369F07D
S1131D50E091F803F091F90396898E89981728F495
S1131D60B4D603C080E090E001C0CE01DF91CF91F2
S1131D700F91FF90EF90DF90CF90BF90AF909F9026
S1131D808F907F906F900895CF92DF92EF92FF92A1
S1131D900F93CF93DF9300D000D0CDB7DEB71E8270
S1131DA01D821C821B82AE014F5F5F4FBE016D5FBF
S1131DB07F4FCE010596ADD5CD80DE80EB80FC80D3
S1131DC049815A8100E020E030E069E372E089E46F
S1131DD091E0DADE892B89F0BBD4813071F4F89478
S1131DE02FEF3FEF309397032093960380939D0347
S1131DF01092A00310929F0337D780911A0226965F
S1131E000FB6F894DEBF0FBECDBFDF91CF910F9117
S1131E10FF90EF90DF90CF900895809195038F5FAE
S1131E208093950308950FB6F8940F9280919F03C1
S1131E309091A0030F900FBE08958091A10308957F
S1131E40DF92EF92FF920F931F93CF93DF938091D2
S1131E5095038111E6C000919F031091A0030F5FC9
S1131E601F4F1093A00300939F0301151105B1F4B4
S1131E708091C0039091C1032091BE033091BF03B0
S1131E803093C1032093C0039093BF038093BE0398
S1131E90809199038F5F80939903DEDD809196038F
S1131EA090919703D12C0817190708F49BC049E0B7
S1131EB0E091C003F091C1038081811103C08FEFD1
S1131EC09FEF0FC0E091C003F091C1030580F6813C
S1131ED0E02D0680F781E02D828193810817190790
S1131EE028F490939703809396037CC0A285B385CE
S1131EF08481958126813781EC013D832C83268161
S1131F003781E9019B838A83CF01029611966D91F3
S1131F107C9112976817790721F412963C932E93BB
S1131F201197138612862C9121502C93A489B5897C
S1131F301097F9F02685378560897189E9017D83D9
S1131F406C8360897189EB013B832A831196ED9040
S1131F50FC9012979F01245F3F4FE216F30621F491
S1131F6012967C936E931197158A148A2C912150A2
S1131F702C93A68920919E032A1710F4A0939E0304
S1131F804A9FD0011124AC52BC4F11960D90BC91C4
S1131F90A02DB583A48314962D913C911597378376
S1131FA0268314962D913C911597E9019B838A838E
S1131FB015969C938E9314979689499FD00111246A
S1131FC0AC52BC4FB387A2878C918F5F8C93E09106
S1131FD0F803F091F9038689891708F069CFDD24A5
S1131FE0D39466CFE091F803F091F903E689D9E040
S1131FF0ED9FF0011124EC52FC4F8081823010F0EF
S1132000DD24D39480919B0390919C03892B11F43C
S11320100E94A80280919A03882379F0DD24D39446
S11320200CC080919B0390919C03019690939C0318
S113203080939B030E94A802D12C8D2DDF91CF9118
S11320401F910F91FF90EF90DF900895EF92FF9210
S11320500F931F93CF93DF930FB6F8940F92809151
S1132060950381508093950380919503882311F003
S113207080E0ACC08091A1038823D1F3E090BA033F
S1132080F090BB03E0E0F0E039E041E08091B5037B
S1132090882309F480C0D7011696ED91FC91179717
S11320A0A489B5896685778580899189EB019D83AB
S11320B08C8380899189EC017B836A83BF01645F8F
S11320C07F4F11960D911C9112970617170721F453
S11320D012969C938E931197158A148A8C91815031
S11320E08C93A285B3858481958166817781EC0187
S11320F07D836C8366817781EB019B838A83CF0127
S1132100029611960D911C9112970817190721F444
S113211012967C936E931197138612862C912150FC
S11321202C93A68920919E032A1710F4A0939E0352
S11321303A9FD0011124AC52BC4F11960D90BC9122
S1132140A02DB583A48314966D917C911597778304
S1132150668314966D917C911597EB019B838A831A
S113216015969C938E9314979689399FD0011124C8
S1132170AC52BC4FB387A2878C918F5F8C93A09194
S1132180F803B091F90356968C91891708F07ECF25
S113219040939A037BCFEF2B09F05EDCC0919B0345
S11321A0D0919C03209759F011E04ADE81111093DD
S11321B09A032197D1F710929C0310929B0380916C
S11321C09A03882309F454CF80D481E00F900FBE82
S11321D0DF91CF911F910F91FF90EF90089580911F
S11321E09503882321F081E080939A030895109247
S11321F09A03A091F803B091F903E091F803F091E8
S1132200F9032D913C918789908D8217930758F09B
S11322106091F8037091F9038091F8039091F903A8
S1132220675E7F4F6AD380919E0369E0482F50E038
S1132230649F9001659F300D1124F901EC52FC4F0D
S11322409081911102C08150F1CFA181B281129687
S11322506D917C9113977283618329523C4F62176D
S1132260730721F4258136813283218399E0949F79
S1132270F001959FF00D1124EC52FC4F0180F28186
S1132280E02D268137813093F9032093F80380935E
S11322909E030895CF93DF93EB016091F80370914F
S11322A0F903645F7F4F9ED361E0CE01DF91CF914C
S11322B0EBCB0F931F93CF93DF93FC018B01A18191
S11322C0B2818091F8039091F903EC01BF87AE8746
S11322D08091F8039091F90314962D913C911597F0
S11322E0EC01398B288B2091F8033091F903149673
S11322F08D919C911597245F3F4FEC013B832A837A
S11323002091F8033091F903245F3F4F15963C93D5
S11323102E931497A091F803B091F9035596FC936A
S1132320EE93549790819F5F9083442311F00FEFB5
S11323301FEF642FC801DF91CF911F910F91A4CBA0
S1132340CF93DF93DC011596ED91FC9116970680EF
S1132350F781E02DA489B5898685978520893189FF
S1132360EC013D832C83C089D1899B838A83CF016F
S11323700C9611962D913C9112972817390721F448
S11323801296DC93CE931197158A148A2C912150BE
S11323902C932091950321114FC0A285B38584818C
S11323A0958126813781EC013D832C83C681D781B9
S11323B09B838A839F012E5F3F4F11968D919C9141
S11323C012978217930721F41296DC93CE931197F8
S11323D0138612868C9181508C93A68980919E03DA
S11323E08A1710F4A0939E0389E08A9FD0011124D8
S11323F0AC52BC4F11960D90BC91A02DB583A48313
S113240014964D915C911597578346831496CD91FC
S1132410DC9115973B832A8315963C932E9314974E
S1132420A6898A9FD0011124AC52BC4FB387A287DE
S11324308C918F5F8C931FC0A091B603B091B703AA
S1132440B787A68714962D913C911597318B208BD5
S11324501496CD91DC9115979B838A8315969C9352
S11324608E93149785EB93E0958B848B8091B503C1
S11324708F5F8093B503A091F803B091F903968917
S113248056968C91891720F481E080939A0301C0B9
S113249080E0DF91CF91089520919903FC0120837E
S11324A020919F033091A003328321830895CF9319
S11324B0DF930FB6F8940F9240919F035091A003BD
S11324C0DB012D913C912F3FBFEF3B07D9F0EC018D
S11324D0E981FA81A0919903B881BA1741F04E17A6
S11324E05F0728F0FB011182108281E00CC04E1BB3
S11324F05F0B42175307B0F7FB01241B350B3183E5
S11325002083CADF80E00F900FBEDF91CF91089542
S113251081E080939A03089580919D03882331F08C
S113252080919503882321F080E0089581E0089547
S113253082E008950F931F93CF93DF93EC01892BCF
S113254011F480E043C08AA181508AA32E8999A105
S11325502917B9F38111F5CF8E010E5F1F4FC80102
S113256079D289A18E8B482F50E024E030E0241BDF
S1132570350B3D872C8790919E03981710F4809318
S11325809E0389E0849FF001859FF00D1124EC5295
S1132590FC4F0180F281E02DFD83EC8324813581A1
S11325A03F832E83A481B58113961C930E931297B7
S11325B015830483EE898E9FF0011124EC52FC4FA5
S11325C0FB87EA8780818F5F808381E0DF91CF91F1
S11325D01F910F9108950F930FB6F8940F92809165
S11325E04F0490915004892BF1F48EE594E0E8D1E6
S11325F085E594E0E5D18EE594E0909354048093CE
S1132600530485E594E0909352048093510400E0D0
S11326102AEF33E049E154E065E08AE0A5D89093DD
S1132620500480934F040F900FBE0F910895FC0146
S113263073836283918780874617570778F0421B1C
S1132640530B8485958548175907C0F4BF016E5F05
S11326507F4F80915104909152040DC0421753074B
S113266018F46217730750F4BF016E5F7F4F8091B7
S1132670530490915404B6D180E0089581E0089504
S1132680EF92FF920F931F93CF93DF93EC018B0193
S11326907A016C857D85600F711F9801A701CE01B9
S11326A0C6DF882349F08C859D85080F191FE889AA
S11326B0F989CE011995EDCFDF91CF911F910F913B
S11326C0FF90EF900895EF92FF920F931F93CF9393
S11326D0DF938C017B01E0915304F0915404058055
S11326E0F681E02DC681D781CE010296B3D18A89C5
S11326F082FF05C0A701B801CE01C2DF02C08E7FF0
S11327008A8BE889F989CE01DF91CF911F910F91CE
S1132710FF90EF901994E0915304F0915404808158
S1132720882349F00580F681E02D6FEF7FEF8081EB
S11327309181C9DFF0CF809151049091520490931C
S1132740540480935304F0935204E0935104089585
S1132750CF92DF92EF92FF920F93CF93DF9300D04B
S113276000D0CDB7DEB737DF80914F04909150048D
S1132770892B19F11E821D821C821B82AE014F5FC0
S11327805F4FBE016D5F7F4FCE010596D2D0CD80E5
S1132790DE80EB80FC8049815A8103E020E030E058
S11327A06EE372E08FE691E0EFD99C0190934E04C2
S11327B080934D0481E0232B09F480E026960FB624
S11327C0F894DEBF0FBECDBFDF91CF910F91FF9084
S11327D0EF90DF90CF9008957F928F929F92AF9267
S11327E0BF92CF92DF92EF92FF920F931F93CF93FA
S11327F0DF934C015B01742E6901E701209799F086
S113280082E08A8BE8DE99828882BD86AC86DF8688
S1132810CE86198B088BC7010296E0D0772019F079
S11328208A8984608A8BCE01DF91CF911F910F91A9
S1132830FF90EF90DF90CF90BF90AF909F908F90DC
S11328407F9008950F931F93CF93DF9300D01F922F
S11328501F92CDB7DEB7A0914F04B09150041097EA
S113286019F1F90169835B834A839D838C83663004
S11328709CF452DEE0914F04F091500420E0823049
S113288011F4A80102C040E050E0BE016F5F7F4F29
S1132890CF010E94D30B09C020E0AF01BE016F5FDE
S11328A07F4FCD010AD801C080E00F900F900F90A8
S11328B00F900F90DF91CF911F910F910895209168
S11328C00402309105028FEF91E2821B930B9093E7
S11328D00102809300020E94560456CA08950E9481
S11328E0870480E090E0892B11F00C940000089597
S11328F0279A2F9A08951F9A0895FADF2FEF87EAEF
S113290091E6215080409040E1F700C00000F3DFE1
S1132910F5CF24EA35E0FC013183208384EE94E092
S1132920FB019183808380EC90E0FA0191838083A2
S113293008952CEB34E0FC013183208387E694E096
S1132940FB019183808385E590E0FA019183808384
S11329500895CF93CFB7F8948091CF05811127C004
S1132960E3E3F2E08491EDEEF1E09491E82FF0E0FE
S1132970EE0FFF1FE858FD4FA591B491EC91E923A8
S113298021F461E085E30E943D0661E085E30E9455
S113299001068CB580618CBD8CB580648CBD61E012
S11329A084E30E94010661E083E30E9401068091B2
S11329B0CF058F5F8093CF05CFBFCF910895089542
S11329C0FC010396928381832FEF3FEF34832383AB
S11329D0968385839087878310820895FC011186EE
S11329E0108608950F931F93CF93DF938C01FB01FF
S11329F0808191818F3F2FEF920721F4E801AF810D
S1132A00B8850EC0D801139612962D913C91139758
S1132A10E901488159818417950710F0D901F4CF51
S1132A2012968D919C91139793838283EC01FD837D
S1132A30EC83B583A4831396FC93EE9312971187CA
S1132A400087F80180818F5F8083DF91CF911F9190
S1132A500F910895CF93DF93FC01A085B185828106
S1132A60938124813581EC013D832C83C481D581FC
S1132A709B838A8311968D919C911297E817F9078D
S1132A8021F41296DC93CE931197118610868C91C3
S1132A9081508C938C91DF91CF910895FC016083D8
S1132AA0319770833197108231971082319720E8E3
S1132AB02083319710823197108231971082779753
S1132AC0408331975083869708950F920FB6F894F8
S1132AD00F920BB60F920CB60F921F9211242F92E5
S1132AE03F924F925F926F927F928F929F92AF929A
S1132AF0BF92CF92DF92EF92FF920F931F932F9387
S1132B003F934F935F936F937F938F939F93AF9371
S1132B10BF93CF93DF93EF93FF93A091F803B0910A
S1132B20F9030DB60D920EB60D9259DBA091F80380
S1132B30B091F903CD91CDBFDD91DEBFFF91EF914F
S1132B40DF91CF91BF91AF919F918F917F916F91C1
S1132B505F914F913F912F911F910F91FF90EF90B3
S1132B60DF90CF90BF90AF909F908F907F906F90A9
S1132B705F904F903F902F901F900F900CBE0F903E
S1132B800BBE0F900FBE0F9008950F920FB6F894DE
S1132B900F920BB60F920CB60F921F9211242F9224
S1132BA03F924F925F926F927F928F929F92AF92D9
S1132BB0BF92CF92DF92EF92FF920F931F932F93C6
S1132BC03F934F935F936F937F938F939F93AF93B1
S1132BD0BF93CF93DF93EF93FF93A091F803B0914A
S1132BE0F9030DB60D920EB60D9213BE29D98111BB
S1132BF0F6DAA091F803B091F903CD91CDBFDD9140
S1132C00DEBFFF91EF91DF91CF91BF91AF919F9183
S1132C108F917F916F915F914F913F912F911F9170
S1132C200F91FF90EF90DF90CF90BF90AF909F9067
S1132C308F907F906F905F904F903F902F901F9058
S1132C400F900CBE0F900BBE0F900FBE0F90089507
S1132C50A89590EC88E10FB6F894A895809360004D
S1132C600FBE909360000895F3DFA091F803B09134
S1132C70F903CD91CDBFDD91DEBFFF91EF91DF91DF
S1132C80CF91BF91AF919F918F917F916F915F9100
S1132C904F913F912F911F910F91FF90EF90DF90F3
S1132CA0CF90BF90AF909F908F907F906F905F90E8
S1132CB04F903F902F901F900F900CBE0F900BBE23
S1132CC00F900FBE0F90089581E008955EDF189570
S1132CD0EE0FFF1F881F8BBF0790F691E02D19940C
S1132CE0FB01DC0102C001900D9241505040D8F725
S1132CF00895DC0101C06D9341505040E0F7089500
S1072D00F894FFCF71
S1132D040000D105200000000900000001000000BB
S1132D1402000000000000004E020300010203044C
S1132D240500010202000300414F00544500000065
S1132D3430313640414650515649444C4500546D57
S1092D44722053766300C7
S9030000FC
