S01100004543555F52494748542E7372656359
S113000040C100006CC100006AC1000068C100006A
S113001066C1000064C1000062C1000060C100004C
S11300205EC100005CC100005AC1000058C100005C
S113003056C1000054C1000052C1000050C100006C
S11300404EC100004CC100004AC1000048C100007C
S113005046C1000044C1000042C10000BEC200000D
S11300603EC100003CC100003AC1000038C100009C
S113007036C1000034C1000032C1000030C10000AC
S11300802EC100002CC100002AC1000028C10000BC
S113009026C1000024C1000022C1000020C10000CC
S11300A01EC100001CC100001AC1000018C10000DC
S11300B016C1000014C1000012C1000010C10000EC
S11300C00EC100000CC100000AC1000008C10000FC
S11300D006C1000004C1000002C1000000C100000C
S11300E0FEC000001D0420040F0413041904570467
S11300F0240428042E04320436043C04400444043A
S113010057044A044E045204E4065806E8065B0603
S11301105E06620665066806E206E2066B066E0681
S11301207106740677067A06EC0689068C06E206E2
S11301309006940697069A069D06A006CF06A30687
S1130140A606A906AC06AF06F006BE06C106C5069D
S1130150C806E206CC06CF06D306D706DB06DF06C2
S113016000000A0B02090C0D0E080703040100002D
S1130170000000000000000000000000000000007B
S11301800000000000000000000000001211100038
S1130190000000000000000000000000000000005B
S11301A00000000000000102102020080810204078
S11301B01020408002010201080402010102040827
S11301C010204080804020100804020180040201B5
S11301D080402010080402010804020101020408FE
S11301E01020408001020408102040800505050508
S11301F0070508080808020202020A0A080804049B
S113020004040101010101010101030303030303C8
S11302100303040707070C0C0C0C0C0C0C0C020257
S1130220020206060606060606060B0B0B0B0B0B54
S11302300B0B000020002300260029002C002F00B7
S11302403200000100000301060109010000220040
S1130250250028002B002E0031003400020100008C
S1130260050108010B0100002100240027002A00D9
S11302702D003000330001010000040107010A01D0
S1130280040211241FBECFEFD1E2DEBFCDBF00E0D8
S11302900CBF12E0A0E0B2E0E2E9F2E100E00BBF43
S11302A002C007900D92A231B107D9F722E0A2E172
S11302B0B2E001C01D92A534B207E1F711E0C1E438
S11302C0D1E000E005C021970109802FFE01D7D7B6
S11302D0C034D10780E00807B1F774D1D8C790CEF5
S11302E080912802813019F0823019F0089582E05B
S11302F001C081E080931902089580912802813021
S113030021F0823029F483E001C084E08093190253
S113031008958091200290912102A0912202B0912F
S1130320230289309105A105B10529F04197A10562
S1130330B10511F00895D4CFE0CF10921A021092B3
S1130340190281E0809314021092130280E392E078
S113035025D642E06BE080E392E08DD480E392E026
S113036088D461E08DE2A4D261E08CE2A1D261E0A4
S113037089E29ED261E08AE29BD262E080E398D275
S113038061E08DE2D1D261E08CE2CED261E089E21B
S1130390CBD261E08AE2C8D260ED77E080E090E001
S11303A097D160E08DE2C0D260E08CE2BDD260E023
S11303B089E2BAD260E08AE2B7C260E272E080E326
S11303C092E00ED7811102C0A4DF0DC080E3DAD21F
S11303D0892B11F486E005C080E3D4D2019719F487
S11303E087E08093190280911A02813039F020F05D
S11303F0823029F484D003C016D001C03CD06AE016
S113040070E080E090E064C10F931F9300E010E07F
S113041020E836E948E950E061E380E392E02FD335
S11304201F910F91089580911402882359F010921E
S1130430140261E08CE278D260E08DE275D260E073
S113044089E272D280911902882341F01092190234
S1130450813021F480931A02809313028091130255
S1130460882341F01092130281E08093140260E02B
S11304708CE25AC2089580911402882329F01092C4
S1130480140261E089E250D280911902853058F457
S1130490833088F4882331F1823011F510921902E7
S11304A010921A0219C0863081F08730C9F4109274
S11304B0120260E00EC01092190280911202882389
S11304C089F082E080931A0207C081E080931202CF
S11304D061E08AE229D206C081E08093130202C05F
S11304E01092190280911302882341F01092130292
S11304F081E08093140260E089E216C208950F93AC
S11305001F9380911402882371F010921402AFD0CB
S11305106093150270931602809317029093180249
S113052061E08DE201D2A3D0009115021091160270
S11305302091170230911802DC01CB01801B910B32
S1130540A20BB30B883B9B40A105B10518F085E0D5
S11305508093190280911902853089F040F4823029
S1130560E9F41092190210921A0281E00DC086304B
S113057071F0873099F41092120260E00CC010926E
S1130580190281E080931A028093130209C081E06A
S11305908093120261E08AE2C7D102C0109219026C
S11305A080911302882351F01092130281E080930A
S11305B0140260E08DE21F910F91B6C11F910F915B
S11305C008950895BED0FDDFB8DEC0E0D0E0F5DECA
S11305D02097E9F30E940000FACF1F920F920FB602
S11305E00F9211242F933F938F939F93AF93BF93B5
S11305F08091380290913902A0913A02B0913B0265
S11306003091370223E0230F2D3720F40196A11DEA
S1130610B11D05C026E8230F0296A11DB11D20932C
S113062037028093380290933902A0933A02B09330
S11306303B0280913C0290913D02A0913E02B09118
S11306403F020196A11DB11D80933C0290933D028F
S1130650A0933E02B0933F02BF91AF919F918F91BF
S11306603F912F910F900FBE0F901F9018952FB7A9
S1130670F894609138027091390280913A02909115
S11306803B022FBF08953FB7F89480913C029091AC
S11306903D02A0913E02B0913F0226B5A89B05C041
S11306A02F3F19F00196A11DB11D3FBFBA2FA92FED
S11306B0982F8827820F911DA11DB11DBC01CD016A
S11306C042E0660F771F881F991F4A95D1F7089556
S11306D08F929F92AF92BF92CF92DF92EF92FF924E
S11306E06B017C01D0DF4B015C01C114D104E10436
S11306F0F104F1F0C3D5C7DFDC01CB0188199909F6
S1130700AA09BB09883E9340A105B10570F321E015
S1130710C21AD108E108F10888EE880E83E0981E19
S1130720A11CB11CC114D104E104F10421F7DDCFF3
S1130730FF90EF90DF90CF90BF90AF909F908F90FD
S11307400895789484B5826084BD84B5816084BD45
S113075085B5826085BD85B5816085BDEEE6F0E036
S1130760808181608083E1E8F0E010828081826092
S11307708083808181608083E0E8F0E08081816013
S11307808083E1EBF0E0808184608083E0EBF0E043
S1130790808181608083E1E9F0E0808182608083F0
S11307A0808181608083E0E9F0E0808181608083E2
S11307B0E1EAF0E0808182608083808181608083CF
S11307C0E0EAF0E0808181608083E1E2F1E0808111
S11307D082608083808181608083E0E2F1E08081B7
S11307E081608083EAE7F0E0808184608083808197
S11307F0826080838081816080838081806880833F
S11308001092C100089590E0FC013197E231F105A6
S113081008F04DC08827EE58FF4F8F4F30C58091A8
S113082080008F7703C0809180008F7D809380004B
S1130830089580918000877FF9CF84B58F7702C0B7
S113084084B58F7D84BD08958091B0008F7703C0F7
S11308508091B0008F7D8093B000089580919000C6
S11308608F7707C0809190008F7D03C080919000A6
S1130870877F8093900008958091A0008F7707C0B0
S11308808091A0008F7D03C08091A000877F80931A
S1130890A0000895809120018F7707C080912001E6
S11308A08F7D03C080912001877F8093200108956C
S11308B0CF93DF9390E0FC01EA55FE4F2491FC01B5
S11308C0E451FE4F8491882361F190E0880F991FD1
S11308D0FC01EA59FD4FC591D491FC01E45BFD4F45
S11308E0A591B491611109C09FB7F89488812095AE
S11308F082238883EC912E230BC0623061F49FB76E
S1130900F8948881322F309583238883EC912E2BA1
S11309102C939FBF06C08FB7F894E8812E2B2883B1
S11309208FBFDF91CF9108951F93CF93DF93282F2B
S113093030E0F901E05AFE4F8491F901EA55FE4F87
S1130940D491F901E451FE4FC491CC23B9F0162F90
S1130950811159DFEC2FF0E0EE0FFF1FE45BFD4F38
S1130960A591B4919FB7F894111104C08C91D095BE
S1130970D82302C0EC91DE2BDC939FBFDF91CF9193
S11309801F910895CF93DF93282F30E0F901E05AA7
S1130990FE4F8491F901EA55FE4FD491F901E451D7
S11309A0FE4FC491CC2389F081112DDFEC2FF0E0B0
S11309B0EE0FFF1FEE5CFD4FA591B491EC91ED237A
S11309C081E090E021F480E002C080E090E0DF91DB
S11309D0CF9108958EBD00000DB407FEFDCF8EB5F6
S11309E00895FC01418152816381748180E092E128
S11309F0AAE7B0E020E0481759076A077B0740F4EC
S1130A00B695A795979587952F5F2630A1F727E090
S1130A1091E09227292F206A2695917080914202B5
S1130A20882399F08FB7F89430914202313059F409
S1130A303DB3309340024DB330914102309534239D
S1130A403DBB8FBF02C0809340022CBD9DBD60E0C2
S1130A5080816ACF61E0FC01808166DF809142027F
S1130A60882361F09FB7F89420914202809140025C
S1130A70213019F48DBB9FBF08958FBF08958F92C5
S1130A809F92AF92BF92FF920F931F93CF93DF93E6
S1130A90EC01F62E49015A010115110519F01E83C6
S1130AA00D8305C084E492E09E838D83B5D3F882E0
S1130AB089829A82AB82BC8261E08F2DF9DECE01FD
S1130AC0DF91CF911F910F91FF90BF90AF909F90B6
S1130AD08F90C0CF1F93CF93DF93EC01162F81DF4C
S1130AE083E078DF812F76DF80E074DF182FCE017A
S1130AF0B1DF812FDF91CF911F910895DF92EF92A3
S1130B00FF920F931F93CF93DF938C01C62FD42EA4
S1130B10E52EF22E66DF83E05DDF8C2F5BDFCD2DCB
S1130B20DE2DCE018F0D911D7C01CE15DF0521F048
S1130B3080E050DF8993F9CFC801DF91CF911F91F5
S1130B400F91FF90EF90DF9085CF0F931F93CF937A
S1130B50DF93EC01062F142F44DF82E03BDF802F6C
S1130B6039DF812F37DFCE01DF91CF911F910F91B4
S1130B7071CFDF92EF92FF920F931F93CF93DF9386
S1130B808C01C62FD42EE52EF22E2BDF82E022DF3D
S1130B908C2F20DFCD2DDE2DCE018F0D911D7C01FC
S1130BA0CE15DF0519F0899115DFFACFC801DF9161
S1130BB0CF911F910F91FF90EF90DF904BCFFF9259
S1130BC00F931F93CF93DF93EC01F62E042F122F74
S1130BD008DF85E0FFDE8F2DFDDE802FFBDE812F19
S1130BE0F9DECE01DF91CF911F910F91FF9032CFAB
S1130BF01F93CF93DF93EC01F4DE80EAEBDE80E019
S1130C00E9DE182FCE0126DF812FDF91CF911F91CE
S1130C100895CF92DF92EF92FF921F93CF93DF93C9
S1130C20EC01162F262F40EE6FE0C9DF20DD6B01AB
S1130C307C012AE0C20ED11CE11CF11C18DD6C15EC
S1130C407D058E059F0540F46EE0CE0143DF807E76
S1130C501813F4CF81E001C080E091E08927DF918F
S1130C60CF911F91FF90EF90DF90CF90089560E8AF
S1130C70D0CF60E0CECF0F931F93CF93DF938C013F
S1130C80C62FD42FF4DF8111BAC0D130B1F108F4EA
S1130C9069C0D23009F096C08C2F90E08031910564
S1130CA008F090C0FC018827EC57FF4F8F4FE7C234
S1130CB0C7E8DFEB33C0C4E8D4EA8CC0C5E8D2EEA1
S1130CC047E491C0C7E8DFEB6CC0C6E8D4EB69C069
S1130CD0C7E8DFEB6AC0C6E8D4EB67C0C5E8D1EB70
S1130CE064C0C6E8D4EB69C0C5E8D1EB66C0C2E80D
S1130CF0D0E963C0C0E8D0E860C08C2F90E08031B8
S1130D00910508F05FC0FC018827EC56FF4F8F4F18
S1130D10B6C2C7E8DFEF5AC0C7E8DFEF4FE063C0F1
S1130D20C5E8D1EF4EE45FC0C7E8DFEF53C0C7E8C2
S1130D30DAEF50C0C7E8DFEF34C0C7E0DEEB31C004
S1130D40C7E0DDEA2EC0C6E8D0EF2BC0C7E8DAEF73
S1130D502CC0C5E8D1EF2DC0C6E8D0EF2EC0C2E844
S1130D60D0ED2BC08C2F90E0FC013497EC30F105D2
S1130D7048F58827EC55FF4F8F4F81C2C7E8DFEF56
S1130D8002C0C7E8DAEF49E02EC0C7E8DFEF02C0CF
S1130D90C7E8DEEF44E027C0C7E8DAEFFBCFC7E8D7
S1130DA0DAEF43E020C0C7E8DFEF41E01CC0C6E84B
S1130DB0DBEF41E418C0C7E8DAEF40E014C0C2E852
S1130DC0D9EDFBCF81E01BC0C7E8DFEB4FE10BC0DF
S1130DD0C7E8DFEB47E007C0C7E8DFEF4FE303C036
S1130DE0C7E8DFEF4BE06AE2C801AFDE4D2F69E2EE
S1130DF0C801ABDE4C2F68E2C801A7DE80E0DF91BA
S1130E00CF911F910F9108950F931F93FB014423DA
S1130E10B1F003831283890122273327902F9C7119
S1130E20802F837048E0949F800D11248860818313
S1130E3055E0169507955A95E1F700830DC0C80152
S1130E4023E0969587952A95E1F780830295000F14
S1130E50007E0183138212821F910F9108958F9255
S1130E609F92AF92BF92CF92DF92EF92FF920F9335
S1130E701F93CF93DF9300D01F92CDB7DEB77C01D1
S1130E80D62EC42E48015901F2DE811119C09501F4
S1130E9084014C2DBE016F5F7F4FC701B5DFDD209C
S1130EA029F081E0D8120BC064E201C060E224E0C2
S1130EB0AE014F5F5F4FC7015CDE80E001C081E09F
S1130EC00F900F900F900F90DF91CF911F910F9182
S1130ED0FF90EF90DF90CF90BF90AF909F908F9056
S1130EE008958F929F92AF92BF92CF92DF92EF922A
S1130EF0FF920F931F93CF93DF9300D01F92CDB730
S1130F00DEB76C01F62EE42E48015901B0DE8111E2
S1130F1034C082E0F816A9F08F1540F0FF20D1F01C
S1130F2081E0F81229C044E0F42E15C084E0F816DC
S1130F3071F0F81648F085E0F8121EC088E1F82E2A
S1130F400AC038E0F32E07C020E1F22E04C094E179
S1130F50F92E01C0F12C950184014E2DBE016F5F65
S1130F607F4FC60151DF24E0AE014F5F5F4F6F2D0D
S1130F70C601FFDD80E001C081E00F900F900F906B
S1130F800F90DF91CF911F910F91FF90EF90DF9021
S1130F90CF90BF90AF909F908F900895AF92BF92E3
S1130FA0CF92DF92EF92FF920F931F93CF93DF9331
S1130FB0CDB7DEB764970FB6F894DEBF0FBECDBFD2
S1130FC07C010FDD80EC06DDC70144DD6AE070E0E2
S1130FD080E090E07DDB8E010F5F1F4F8EE0F80113
S1130FE011928A95E9F72EE0A80160E3C701C1DDFB
S1130FF02EE0A80160E4C701BCDD2EE0A80160E595
S1131000C701B7DD40E060E6C7019FDD40E060E76F
S1131010C7019BDD43EA6BE2C70197DD24E047E6A5
S113102060E6C701CCDD21E047E660E7C701C7DD24
S113103086E0E0E0F2E0DE011F9601900D928A95D1
S1131040E1F75E01FFE0AF0EB11CC12CD12CF5011C
S113105061915F0141E0F1E0CF16D10409F040E075
S113106000E010E09801C7013CDF811117C08FEF49
S1131070C81AD80AE6E0CE16D10449F700E010E019
S1131080980141E060E0C701EADE811107C000E099
S113109010E0980141E061E0C701E1DE64960FB61B
S11310A0F894DEBF0FBECDBFDF91CF911F910F919A
S11310B0FF90EF90DF90CF90BF90AF9008957F9214
S11310C08F929F92AF92BF92CF92DF92EF92FF9254
S11310D00F931F93CF93DF9300D01F921F92CDB72E
S11310E0DEB74C015A0124E0629F80011124F8010B
S11310F0E75FFD4F25E0AE014F5F5F4F6181FEDC8E
S11311008A819981C82ED12C45E0D594C7944A95FB
S1131110E1F7E8E09E9FC00CD11C11240D2C000CBB
S1131120EE08FF0883FF20C092E0CC0CDD1CEE1C0F
S1131130FF1C9A95D1F78370C80ED11CE11CF11CD9
S1131140FE2CED2CDC2CCC248B81C80ED11CE11C94
S1131150F11CFE2CED2CDC2CCC248C81C80ED11C73
S1131160E11CF11C6894F7F88D818F70782EF8E0FB
S1131170F81710F1F801E75FFD4F6081C401AADCA4
S113118083FF02C06894F6F8F501C082D182E2823E
S1131190F3827482A501485F5F4F075F1D4F272DBF
S11311A0F8016281C401AADC20E0F80143816CE209
S11311B0C40105DD80E001C081E00F900F900F9025
S11311C00F900F90DF91CF911F910F91FF90EF90AF
S11311D0DF90CF90BF90AF909F908F907F900895B5
S11311E00F931F93CF93DF93EC018B0101DD80FFFD
S11311F003C0A80160E004C081FF08C0A80161E049
S1131200CE01DF91CF911F910F9159CF85E0DF91EE
S1131210CF911F910F910895CF93CFB7F8948091F8
S11312204302811123C0E1E2F2E08491EBEDF1E0AD
S11312309491E82FF0E0EE0FFF1FEA59FD4FA591BE
S1131240B491EC91E92319F461E085E36DDB61E08D
S113125085E32EDB8CB580618CBD8CB580648CBD40
S113126061E084E325DB61E083E322DB80914302D8
S11312708F5F80934302CFBFCF9108950895EE0FFF
S1131280FF1F881F8BBF0790F691E02D1994F894E7
S1051290FFCF8A
S113129200010203040500010260616601707176B7
S10512A2020044
S9030000FC
