:1000000033C100005FC100005DC100005BC10000A2
:1000100059C1000057C1000055C1000053C1000084
:1000200051C100004FC100004DC100004BC1000094
:1000300049C1000047C1000045C1000043C10000A4
:1000400041C100003FC100003DC100003BC10000B4
:1000500039C1000037C1000035C100006EC2000088
:1000600031C100002FC100002DC100002BC10000D4
:1000700029C1000027C1000025C1000023C10000E4
:1000800021C100001FC100001DC100001BC10000F4
:1000900019C1000017C1000015C1000013C1000004
:1000A00011C100000FC100000DC100000BC1000014
:1000B00009C1000007C1000005C1000003C1000024
:1000C00001C10000FFC00000FDC00000FBC0000037
:1000D000F9C00000F7C00000F5C00000F3C0000048
:1000E000F1C00000CD03D003BF03C303C90307045D
:1000F000D403D803DE03E203E603EC03F003F403C6
:100100000704FA03FE0302046C06E0057006E3052B
:10011000E605EA05ED05F0056A066A06F305F6054B
:10012000F905FC05FF0502067406110614066A06A9
:1001300018061C061F0622062506280657062B064B
:100140002E063106340637067806460649064D0661
:1001500050066A06540657065B065F066306670686
:1001600000000A0B02090C0D0E0807030401000031
:10017000000000000000000000000000000000007F
:10018000000000000000000000000000121110003C
:10019000000000000000000000000000000000005F
:1001A000000000000000010210202008081020407C
:1001B000102040800201020108040201010204082B
:1001C00010204080804020100804020180040201B9
:1001D0008040201008040201080402010102040802
:1001E000102040800102040810204080050505050C
:1001F000070508080808020202020A0A080804049F
:1002000004040101010101010101030303030303CC
:100210000303040707070C0C0C0C0C0C0C0C02025B
:10022000020206060606060606060B0B0B0B0B0B58
:100230000B0B00002200250028002B002E003100AF
:10024000340002010000050108010B01000021003B
:10025000240027002A002D00300033000101000097
:10026000040107010A01DD0111241FBECFEFD1E215
:10027000DEBFCDBF00E00CBF12E0A0E0B2E0E2EADA
:10028000F1E100E00BBF02C007900D92A231B1076F
:10029000D9F722E0A2E1B2E001C01D92A534B20775
:1002A000E1F711E0C4E3D1E000E005C021970109C6
:1002B000802FFE016CD7C333D10780E00807B1F768
:1002C00031D16DC79DCE80912802813019F08230E6
:1002D00019F0089582E001C081E08093180208952A
:1002E00080912802813021F0823029F483E001C01E
:1002F00084E0809318020895809120029091210259
:10030000A0912202B091230289309105A105B10587
:1003100029F04197A105B10511F00895D4CFE0CFA0
:10032000109219021092180281E080931302109229
:10033000120280E392E0BAD542E06BE080E392E003
:1003400022D480E392E01DD461E082E061D261E0DA
:1003500083E05ED261E084E05BD261E082E094D22F
:1003600061E083E091D261E084E08ED260ED77E0DD
:1003700080E090E05DD160E082E086D260E083E0E2
:1003800083D260E084E080C260E272E080E392E0C9
:10039000AFD6811101C0B0DF80911902813039F0F0
:1003A00020F0823029F470D003C016D001C03CD0B8
:1003B0006AE070E080E090E03BC10F931F9300E0A3
:1003C00010E020E836E948E950E065E380E392E098
:1003D000DED21F910F91089580911302882359F066
:1003E0001092130261E083E04FD260E082E04CD2D1
:1003F00060E084E049D280911802882341F0109295
:100400001802813021F480931902809312028091A6
:100410001202882341F01092120281E080931302AD
:1004200060E083E031C2089580911302882329F0AF
:100430001092130261E084E027D28091180282308A
:1004400061F018F4882399F010C0853070F4109290
:10045000180282E08093190204C0109218021092D0
:10046000190281E08093120202C01092180280915A
:100470001202882341F01092120281E0809313024D
:1004800060E084E001C208950F931F9380911302EE
:10049000882371F0109213029AD060931402709323
:1004A0001502809316029093170261E082E0ECD16E
:1004B0008ED00091140210911502209116023091F5
:1004C0001702DC01CB01801B910BA20BB30B883B05
:1004D0009B40A105B10518F085E08093180280913A
:1004E000180210921802823031F0853049F481E010
:1004F0008093190203C01092190281E080931202C6
:1005000080911202882351F01092120281E08093B0
:10051000130260E082E01F910F91B6C11F910F910D
:1005200008950895BED0FDDFFBDEC0E0D0E02CDFF3
:100530002097E9F30E940000FACF1F920F920FB6A6
:100540000F9211242F933F938F939F93AF93BF9359
:100550008091380290913902A0913A02B0913B0209
:100560003091370223E0230F2D3720F40196A11D8F
:10057000B11D05C026E8230F0296A11DB11D2093D1
:1005800037028093380290933902A0933A02B093D5
:100590003B0280913C0290913D02A0913E02B091BD
:1005A0003F020196A11DB11D80933C0290933D0234
:1005B000A0933E02B0933F02BF91AF919F918F9164
:1005C0003F912F910F900FBE0F901F9018952FB74E
:1005D000F894609138027091390280913A029091BA
:1005E0003B022FBF08953FB7F89480913C02909151
:1005F0003D02A0913E02B0913F0226B5A89B05C0E6
:100600002F3F19F00196A11DB11D3FBFBA2FA92F91
:10061000982F8827820F911DA11DB11DBC01CD010E
:1006200042E0660F771F881F991F4A95D1F70895FA
:100630008F929F92AF92BF92CF92DF92EF92FF92F2
:100640006B017C01D0DF4B015C01C114D104E104DA
:10065000F104F1F09BD5C7DFDC01CB0188199909C2
:10066000AA09BB09883E9340A105B10570F321E0BA
:10067000C21AD108E108F10888EE880E83E0981EBE
:10068000A11CB11CC114D104E104F10421F7DDCF98
:10069000FF90EF90DF90CF90BF90AF909F908F90A2
:1006A0000895789484B5826084BD84B5816084BDEA
:1006B00085B5826085BD85B5816085BDEEE6F0E0DB
:1006C000808181608083E1E8F0E010828081826037
:1006D0008083808181608083E0E8F0E080818160B8
:1006E0008083E1EBF0E0808184608083E0EBF0E0E8
:1006F000808181608083E1E9F0E080818260808395
:10070000808181608083E0E9F0E080818160808386
:10071000E1EAF0E080818260808380818160808373
:10072000E0EAF0E0808181608083E1E2F1E08081B5
:1007300082608083808181608083E0E2F1E080815B
:1007400081608083EAE7F0E080818460808380813B
:1007500082608083808181608083808180688083E3
:100760001092C100089590E0FC013197E231F1054B
:1007700008F04DC08827EE58FF4F8F4F08C5809175
:1007800080008F7703C0809180008F7D80938000F0
:10079000089580918000877FF9CF84B58F7702C05C
:1007A00084B58F7D84BD08958091B0008F7703C09C
:1007B0008091B0008F7D8093B0000895809190006B
:1007C0008F7707C0809190008F7D03C0809190004B
:1007D000877F8093900008958091A0008F7707C055
:1007E0008091A0008F7D03C08091A000877F8093BF
:1007F000A0000895809120018F7707C0809120018B
:100800008F7D03C080912001877F80932001089510
:10081000CF93DF9390E0FC01EA55FE4F2491FC0159
:10082000E451FE4F8491882361F190E0880F991F75
:10083000FC01E45BFD4FC591D491FC01EE5CFD4FE2
:10084000A591B491611109C09FB7F8948881209552
:1008500082238883EC912E230BC0623061F49FB712
:10086000F8948881322F309583238883EC912E2B46
:100870002C939FBF06C08FB7F894E8812E2B288356
:100880008FBFDF91CF9108951F93CF93DF93282FD0
:1008900030E0F901E05AFE4F8491F901EA55FE4F2C
:1008A000D491F901E451FE4FC491CC23B9F0162F35
:1008B000811159DFEC2FF0E0EE0FFF1FEE5CFD4FD2
:1008C000A591B4919FB7F894111104C08C91D09563
:1008D000D82302C0EC91DE2BDC939FBFDF91CF9138
:1008E0001F9108958EBD00000DB407FEFDCF8EB59B
:1008F0000895FC01418152816381748180E092E11D
:10090000AAE7B0E020E0481759076A077B0740F4E0
:10091000B695A795979587952F5F2630A1F727E085
:1009200091E09227292F206A2695917080914202AA
:10093000882399F08FB7F89430914202313059F4FE
:100940003DB3309340024DB3309141023095342392
:100950003DBB8FBF02C0809340022CBD9DBD60E0B7
:10096000808192CF61E0FC0180818EDF8091420224
:10097000882361F09FB7F894209142028091400251
:10098000213019F48DBB9FBF08958FBF08958F92BA
:100990009F92AF92BF92FF920F931F93CF93DF93DB
:1009A000EC01F62E49015A010115110519F01E83BB
:1009B0000D8305C084E492E09E838D83B5D3F882D5
:1009C00089829A82AB82BC8261E08F2D21DFCE01C9
:1009D000DF91CF911F910F91FF90BF90AF909F90AB
:1009E0008F90C0CF1F93CF93DF93EC01162F81DF41
:1009F00083E078DF812F76DF80E074DF182FCE016F
:100A0000B1DF812FDF91CF911F910895DF92EF9297
:100A1000FF920F931F93CF93DF938C01C62FD42E99
:100A2000E52EF22E66DF83E05DDF8C2F5BDFCD2DC0
:100A3000DE2DCE018F0D911D7C01CE15DF0521F03D
:100A400080E050DF8993F9CFC801DF91CF911F91EA
:100A50000F91FF90EF90DF9085CF0F931F93CF936F
:100A6000DF93EC01062F142F44DF82E03BDF802F61
:100A700039DF812F37DFCE01DF91CF911F910F91A9
:100A800071CFDF92EF92FF920F931F93CF93DF937B
:100A90008C01C62FD42EE52EF22E2BDF82E022DF32
:100AA0008C2F20DFCD2DDE2DCE018F0D911D7C01F1
:100AB000CE15DF0519F0899115DFFACFC801DF9156
:100AC000CF911F910F91FF90EF90DF904BCFFF924E
:100AD0000F931F93CF93DF93EC01F62E042F122F69
:100AE00008DF85E0FFDE8F2DFDDE802FFBDE812F0E
:100AF000F9DECE01DF91CF911F910F91FF9032CFA0
:100B00001F93CF93DF93EC01F4DE80EAEBDE80E00D
:100B1000E9DE182FCE0126DF812FDF91CF911F91C3
:100B20000895CF92DF92EF92FF921F93CF93DF93BE
:100B3000EC01162F262F40EE6FE0C9DF48DD6B0178
:100B40007C012AE0C20ED11CE11CF11C40DD6C15B9
:100B50007D058E059F0540F46EE0CE0143DF807E6B
:100B60001813F4CF81E001C080E091E08927DF9184
:100B7000CF911F91FF90EF90DF90CF90089560E8A4
:100B8000D0CF60E0CECF0F931F93CF93DF938C0134
:100B9000C62FD42FF4DF8111BAC0D130B1F108F4DF
:100BA00069C0D23009F096C08C2F90E08031910559
:100BB00008F090C0FC018827EC57FF4F8F4FE7C229
:100BC000C7E8DFEB33C0C4E8D4EA8CC0C5E8D2EE96
:100BD00047E491C0C7E8DFEB6CC0C6E8D4EB69C05E
:100BE000C7E8DFEB6AC0C6E8D4EB67C0C5E8D1EB65
:100BF00064C0C6E8D4EB69C0C5E8D1EB66C0C2E802
:100C0000D0E963C0C0E8D0E860C08C2F90E08031AC
:100C1000910508F05FC0FC018827EC56FF4F8F4F0D
:100C2000B6C2C7E8DFEF5AC0C7E8DFEF4FE063C0E6
:100C3000C5E8D1EF4EE45FC0C7E8DFEF53C0C7E8B7
:100C4000DAEF50C0C7E8DFEF34C0C7E0DEEB31C0F9
:100C5000C7E0DDEA2EC0C6E8D0EF2BC0C7E8DAEF68
:100C60002CC0C5E8D1EF2DC0C6E8D0EF2EC0C2E839
:100C7000D0ED2BC08C2F90E0FC013497EC30F105C7
:100C800048F58827EC55FF4F8F4F81C2C7E8DFEF4B
:100C900002C0C7E8DAEF49E02EC0C7E8DFEF02C0C4
:100CA000C7E8DEEF44E027C0C7E8DAEFFBCFC7E8CC
:100CB000DAEF43E020C0C7E8DFEF41E01CC0C6E840
:100CC000DBEF41E418C0C7E8DAEF40E014C0C2E847
:100CD000D9EDFBCF81E01BC0C7E8DFEB4FE10BC0D4
:100CE000C7E8DFEB47E007C0C7E8DFEF4FE303C02B
:100CF000C7E8DFEF4BE06AE2C801AFDE4D2F69E2E3
:100D0000C801ABDE4C2F68E2C801A7DE80E0DF91AE
:100D1000CF911F910F9108950F931F93FB014423CF
:100D2000B1F003831283890122273327902F9C710E
:100D3000802F837048E0949F800D11248860818308
:100D400055E0169507955A95E1F700830DC0C80147
:100D500023E0969587952A95E1F780830295000F09
:100D6000007E0183138212821F910F9108958F924A
:100D70009F92AF92BF92CF92DF92EF92FF920F932A
:100D80001F93CF93DF9300D01F92CDB7DEB77C01C6
:100D9000D62EC42E48015901F2DE811119C09501E9
:100DA00084014C2DBE016F5F7F4FC701B5DFDD2091
:100DB00029F081E0D8120BC064E201C060E224E0B7
:100DC000AE014F5F5F4FC7015CDE80E001C081E094
:100DD0000F900F900F900F90DF91CF911F910F9177
:100DE000FF90EF90DF90CF90BF90AF909F908F904B
:100DF00008958F929F92AF92BF92CF92DF92EF921F
:100E0000FF920F931F93CF93DF9300D01F92CDB724
:100E1000DEB76C01F62EE42E48015901B0DE8111D7
:100E200034C082E0F816A9F08F1540F0FF20D1F011
:100E300081E0F81229C044E0F42E15C084E0F816D1
:100E400071F0F81648F085E0F8121EC088E1F82E1F
:100E50000AC038E0F32E07C020E1F22E04C094E16E
:100E6000F92E01C0F12C950184014E2DBE016F5F5A
:100E70007F4FC60151DF24E0AE014F5F5F4F6F2D02
:100E8000C601FFDD80E001C081E00F900F900F9060
:100E90000F90DF91CF911F910F91FF90EF90DF9016
:100EA000CF90BF90AF909F908F900895AF92BF92D8
:100EB000CF92DF92EF92FF920F931F93CF93DF9326
:100EC000CDB7DEB764970FB6F894DEBF0FBECDBFC7
:100ED0007C010FDD80EC06DDC70144DD6AE070E0D7
:100EE00080E090E0A5DB8E010F5F1F4F8EE0F801E0
:100EF00011928A95E9F72EE0A80160E3C701C1DDF0
:100F00002EE0A80160E4C701BCDD2EE0A80160E589
:100F1000C701B7DD40E060E6C7019FDD40E060E764
:100F2000C7019BDD43EA6BE2C70197DD24E047E69A
:100F300060E6C701CCDD21E047E660E7C701C7DD19
:100F400086E0E0E0F2E0DE011F9601900D928A95C6
:100F5000E1F75E01FFE0AF0EB11CC12CD12CF50111
:100F600061915F0141E0F1E0CF16D10409F040E06A
:100F700000E010E09801C7013CDF811117C08FEF3E
:100F8000C81AD80AE6E0CE16D10449F700E010E00E
:100F9000980141E060E0C701EADE811107C000E08E
:100FA00010E0980141E061E0C701E1DE64960FB610
:100FB000F894DEBF0FBECDBFDF91CF911F910F918F
:100FC000FF90EF90DF90CF90BF90AF9008957F9209
:100FD0008F929F92AF92BF92CF92DF92EF92FF9249
:100FE0000F931F93CF93DF9300D01F921F92CDB723
:100FF000DEB74C015A0124E0629F80011124F80100
:10100000E75FFD4F25E0AE014F5F5F4F6181FEDC82
:101010008A819981C82ED12C45E0D594C7944A95F0
:10102000E1F7E8E09E9FC00CD11C11240D2C000CB0
:10103000EE08FF0883FF20C092E0CC0CDD1CEE1C04
:10104000FF1C9A95D1F78370C80ED11CE11CF11CCE
:10105000FE2CED2CDC2CCC248B81C80ED11CE11C89
:10106000F11CFE2CED2CDC2CCC248C81C80ED11C68
:10107000E11CF11C6894F7F88D818F70782EF8E0F0
:10108000F81710F1F801E75FFD4F6081C401AADC99
:1010900083FF02C06894F6F8F501C082D182E28233
:1010A000F3827482A501485F5F4F075F1D4F272DB4
:1010B000F8016281C401AADC20E0F80143816CE2FE
:1010C000C40105DD80E001C081E00F900F900F901A
:1010D0000F900F90DF91CF911F910F91FF90EF90A4
:1010E000DF90CF90BF90AF909F908F907F900895AA
:1010F0000F931F93CF93DF93EC018B0101DD80FFF2
:1011000003C0A80160E004C081FF08C0A80161E03D
:10111000CE01DF91CF911F910F9159CF85E0DF91E3
:10112000CF911F910F910895CF93CFB7F8948091ED
:101130004302811123C0E1E2F2E08491EBEDF1E0A2
:101140009491E82FF0E0EE0FFF1FE45BFD4FA591B7
:10115000B491EC91E92319F461E085E395DB61E05A
:1011600085E356DB8CB580618CBD8CB580648CBD0D
:1011700061E084E34DDB61E083E34ADB809143027D
:101180008F5F80934302CFBFCF9108950895EE0FF4
:10119000FF1F881F8BBF0790F691E02D1994F894DC
:0211A000FFCF7F
:1011A20000010203040500010260616601707176AC
:0211B200020039
:00000001FF
