:1000000054C2000082C2000080C200007EC2000014
:100010007CC200007AC2000078C2000076C20000F4
:1000200074C2000072C2000070C200006EC2000004
:100030000C943B186AC2000068C2000066C200004F
:1000400064C2000062C2000060C200005EC2000024
:100050005CC200005AC2000058C20000FFC4000089
:1000600054C2000052C2000050C200004EC2000044
:100070004CC200004AC2000048C2000046C2000054
:1000800044C2000042C2000040C200003EC2000064
:100090003CC200003AC2000038C2000036C2000074
:1000A00034C2000032C2000030C200002EC2000084
:1000B0002CC200002AC2000028C2000026C2000094
:1000C00024C2000022C2000020C200001EC20000A4
:1000D0001CC200001AC2000018C2000016C20000B4
:1000E00014C2000060066306520656065C069A06B5
:1000F00067066B067106750679067F068306870616
:100100009A068D06910695062B099D082F09A008D1
:10011000A308A708AA08AD0829092909B008B30847
:10012000B608B908BC08BF083309CF08D2082909A6
:10013000D608DA08DD08E008E308E6081609E90849
:10014000EC08EF08F208F5083709050908090C0959
:100150000F092909130916091A091E092209260976
:1001600009020902500237024A020902090250023A
:10017000370200000A0B02090C0D0E0807030401E8
:10018000000000000000000000000000000000006F
:10019000000000000000000000000000000012113C
:1001A000100000000000000000000000000000003F
:1001B00000000000000000000102102020080810CC
:1001C00020401020408002010201080402010102C7
:1001D00004081020408080402010080402018004A0
:1001E00002018040201008040201080402010102FB
:1001F00004081020408001020408102040800505FA
:100200000505070508080808020202020A0A08088C
:1002100004040404010101010101010103030303BA
:1002200003030303040707070C0C0C0C0C0C0C0C49
:100230000202020206060606060606060B0B0B0B5A
:100240000B0B0B0B000020002300260029002C00C4
:100250002F00320000010000030106010901000027
:100260002200250028002B002E003100340002015E
:100270000000050108010B010000210024002700F7
:100280002A002D00300033000101000004010701A5
:100290000A01809105048823E9F00FB6F8940F92C3
:1002A000E0910B04F0910C04C681D781CE01029637
:1002B0000E94FF168091FB0381508093FB03809185
:1002C00005048150809305040F900FBECE010E945B
:1002D000C00FDFCF80912E04823010F00E943A17B9
:1002E0000E943616D6CFCF93DF9300D01F921F9275
:1002F000CDB7DEB7E091AE04F091AF04D080DD2041
:1003000031F00580F681E02D0081118102C000E00E
:1003100010E00E94D3100E94D9107C018091A604A5
:100320009091A704E816F90620F40E94511581E087
:1003300001C080E0F092A704E092A604811124C0DD
:10034000DD2051F0E016F10670F00E94EC11B701CB
:10035000C8010E9429151EC0E091AC04F091AD04C3
:10036000808141E0811140E0B8016E197F098091E0
:10037000AA049091AB040E94970E0E94EC11811187
:1003800009C00E943A1706C00E94EC1103C089817F
:1003900087FF0EC040E050E0BE016F5F7F4F80914D
:1003A000AA049091AB040E94130E8111F0CFA2CF4A
:1003B0000C811D81D8011A968D919C911B97892BD8
:1003C00021F0C80102960E94FF160E94D9107C01FC
:1003D0008091A6049091A704E816F90610F40E94F3
:1003E0005115F092A704E092A604E9818E2FEE0F3A
:1003F000990BAA0BBB0BFC013197E930F10550F6C4
:10040000D80152969C918827E055FF4F8F4F0C944E
:100410003D189160F801928B2A813B816485758536
:10042000620F731FA701C8010E94DD14882309F41D
:10043000B1CFD80152968C91529782FF0DC06A813C
:100440007B811C968D919C911D97680F791FA70148
:10045000C8010E94061503C08E7FF801828BD80167
:100460005096ED91FC915197C801199593CF9160E9
:10047000D80152969C9352976A817B811D967C93FA
:100480006E931C976E0D7F1D9701A701C8010E94F6
:10049000DD1480CF91FD04C0C8010E94A7167ACF59
:1004A0009E7FF801928B76CFFD0211241FBECFEF05
:1004B000D1E2DEBFCDBF00E00CBF12E0A0E0B2E0B1
:1004C000E0EFF2E300E00BBF02C007900D92A0370F
:1004D000B107D9F726E0A0E7B2E001C01D92A23330
:1004E000B207E1F712E0C5E5D2E000E006C02197CF
:1004F0000109802FFE010E943D18C435D10780E01C
:100500000807A9F79FD20C9476197ACD61E089E2A9
:1005100012D461E08CE20FD461E08AE20CD461E095
:100520008DE209D462E080E306D481E792E07DD7D2
:1005300042E06BE081E792E0E2D581E792E0DDC541
:1005400061E08CE234C460E08CE231C461E08AE2B4
:100550002EC460E08AE22BC461E089E228C460E036
:1005600089E225C480E351C4BC0181E792E00C9488
:10057000300BBC0181E792E00E941E0C21E030E0CC
:10058000882311F020E030E0C9010895CF93DF9374
:100590001F92CDB7DEB71982E5DF209170022130BE
:1005A00019F118F0223081F021C08130910561F4F9
:1005B000AE014F5F5F4F66E472E080913802909128
:1005C0003902EED082E00DC0892B81F4AE014F5F7D
:1005D0005F4F64E472E08091380290913902E0D07C
:1005E00081E08093700202C0019711F3CE01019661
:1005F00045D10F90DF91CF9108950F931F9300E0A5
:1006000010E020E836E948E950E061E381E792E054
:1006100079D41F910F910895CF92DF92EF92FF92BC
:100620000F931F93FC01C080D180E280F380FB0117
:100630000081118122813381C016D106E206F306C2
:10064000F1F4FC012481FB013481231318C0FC0167
:100650003896DB01189640E050E030E0421753072F
:100660003CF491918D91981303C04F5F5F4FF6CF8B
:1006700081E090E04217530721F080E002C080E063
:1006800090E01F910F91FF90EF90DF90CF90089531
:10069000CF93DF931F921F92CDB7DEB78C017C0101
:1006A0008DE4E80EF11CD701ED91FC916EE472E04F
:1006B000C80119954FEF5FEFBE016F5F7F4FF801E3
:1006C00083A594A50E94130E69817A81D701ED91CB
:1006D000FC91EECF835B9F4FFC0171836083089593
:1006E0004F925F926F927F928F929F92AF92BF9242
:1006F000CF92DF92EF92FF920F931F93CF93DF93EE
:10070000CDB7DEB74C01162F802F2501360194019D
:10071000235D3F4F00E062E00E94340DF40194A796
:1007200083A76401F2E0CF0ED11C012F9401A20136
:1007300068E472E088E493E00E945410F40191832D
:100740008083DF91CF911F910F91FF90EF90DF9009
:10075000CF90BF90AF909F908F907F906F905F9061
:100760004F900895CF93DF931F921F92CDB7DEB7BE
:100770007A83698320E040E050E0BE016F5F7F4FE5
:10078000FC0183A594A50E94580D0F900F90DF9156
:10079000CF9108950697BC01FC0182819381E2CF3D
:1007A000CF93DF931F921F92CDB7DEB77A83698311
:1007B00020E0BE016F5F7F4FFC0183A594A50E94DE
:1007C000E20D0F900F90DF91CF910895EF92FF927D
:1007D0000F931F93CF93DF93EC01798368835B833F
:1007E0004A837C0186E0E80EF11C0AEC13E09E01CE
:1007F000498D61E070E08BE492E00E94B2159D8328
:100800008C83DF91CF911F910F91FF90EF9008950E
:100810000F931F9324E076956795579547952A95F2
:10082000D1F74115510511F441E050E000E010E02E
:1008300020E030E064E0FC01848195810E94E815AD
:100840001F910F9108950F931F9300E010E020E097
:1008500030E040E050E063E0FC01848195810E943B
:10086000E8151F910F910895FC01718360835383F4
:10087000428390937902809378020895CF93DF9317
:10088000EC018091780290917902049672DE0197D2
:1008900059F4E0917802F0917902AE01BF018281B2
:1008A0009381DF91CF917CCFDF91CF9108950F930A
:1008B0001F93CF93DF93EC01FB0180819181833003
:1008C0009105F1F0B0F48130910531F1029709F012
:1008D0005DC039DECE01815B9F4FB5DFC956DF4F6A
:1008E00018823ADE88E292E0DF91CF911F910F915A
:1008F0003BCE8530910539F158F1069769F046C035
:1009000088E192E031DE2BDE60E572E0CE01DF911E
:10091000CF911F910F9126CF8E0109561F4FF801DD
:100920008081C15BDF4F811105C00ADE81E0F801E3
:10093000808303C008DEF801108248EE53E060E0D7
:1009400070E0CE011EC0DF91CF911F910F9101CEBB
:1009500068E072E0CE0189579F4F5EDE0197B1F4E7
:10096000F5DD00DE892B19F488E292E002C088E10F
:1009700092E0FADD48EE53E060E070E0CE01875986
:100980009F4FDF91CF911F910F9142CFDF91CF9178
:100990001F910F910895CF93DF93EC0167E574E009
:1009A00099DEFE01E859FF4F1082AE0161E070E070
:1009B000CE01815B9F4F0ADFAE0165E070E0CE01A2
:1009C00087599F4F03DFFE01E956FF4F1082AE01AA
:1009D00064E070E0CE018D579F4FDF91CF9144CFFF
:1009E0008F929F92AF92BF92CF92DF92EF92FF923F
:1009F0000F931F938BDD8AE792E0CDDF812C912C42
:100A000080ECA82EB12CC12CD12C96E2E92E93E0DB
:100A1000F92E0AE010E020E030E042E153E061E02E
:100A200080913802909139025BDE1F910F91FF9007
:100A3000EF90DF90CF90BF90AF909F908F900C94ED
:100A40008A100895C0D00E942616CADFC0E0D0E008
:100A5000F8DF2097E9F30E940000FACF1F920F926F
:100A60000FB60F9211242F933F938F939F93AF93C1
:100A7000BF938091E7039091E803A091E903B091BF
:100A8000EA033091E60323E0230F2D3720F401968B
:100A9000A11DB11D05C026E8230F0296A11DB11DA1
:100AA0002093E6038093E7039093E803A093E90380
:100AB000B093EA038091EB039091EC03A091ED03D6
:100AC000B091EE030196A11DB11D8093EB039093AD
:100AD000EC03A093ED03B093EE03BF91AF919F9110
:100AE0008F913F912F910F900FBE0F901F901895EF
:100AF0002FB7F8946091E7037091E8038091E903C0
:100B00009091EA032FBF08953FB7F8948091EB03CB
:100B10009091EC03A091ED03B091EE0326B5A89B54
:100B200005C02F3F19F00196A11DB11D3FBFBA2F7F
:100B3000A92F982F8827820F911DA11DB11DBC01DF
:100B4000CD0142E0660F771F881F991F4A95D1F7A4
:100B500008958F929F92AF92BF92CF92DF92EF92C1
:100B6000FF926B017C01D0DF4B015C01C114D10409
:100B7000E104F104F9F00E94A616C6DFDC01CB0106
:100B800088199909AA09BB09883E9340A105B105B6
:100B900068F321E0C21AD108E108F10888EE880E56
:100BA00083E0981EA11CB11CC114D104E104F1041E
:100BB00021F7DCCFFF90EF90DF90CF90BF90AF9008
:100BC0009F908F900895789484B5826084BD84B599
:100BD000816084BD85B5826085BD85B5816085BD38
:100BE000EEE6F0E0808181608083E1E8F0E0108251
:100BF000808182608083808181608083E0E8F0E092
:100C0000808181608083E1EBF0E08081846080837B
:100C1000E0EBF0E0808181608083E1E9F0E08081B9
:100C200082608083808181608083E0E9F0E0808160
:100C300081608083E1EAF0E080818260808380814E
:100C400081608083E0EAF0E0808181608083E1E27E
:100C5000F1E0808182608083808181608083E0E236
:100C6000F1E0808181608083EAE7F0E08081846048
:100C700080838081826080838081816080838081A5
:100C8000806880831092C100089590E0FC01319744
:100C9000E231F10508F04EC08827EE58FF4F8F4F24
:100CA0000C943D18809180008F7703C08091800064
:100CB0008F7D80938000089580918000877FF9CF99
:100CC00084B58F7702C084B58F7D84BD08958091EF
:100CD000B0008F7703C08091B0008F7D8093B0000B
:100CE0000895809190008F7707C0809190008F7D4C
:100CF00003C080919000877F809390000895809139
:100D0000A0008F7707C08091A0008F7D03C08091E5
:100D1000A000877F8093A0000895809120018F77A5
:100D200007C0809120018F7D03C080912001877FC3
:100D3000809320010895CF93DF9390E0FC01E85465
:100D4000FE4F2491FC01E250FE4F8491882361F113
:100D500090E0880F991FFC01E858FD4FC591D49190
:100D6000FC01E25AFD4FA591B491611109C09FB7F2
:100D7000F8948881209582238883EC912E230BC0E0
:100D8000623061F49FB7F8948881322F30958323C5
:100D90008883EC912E2B2C939FBF06C08FB7F894BD
:100DA000E8812E2B28838FBFDF91CF9108951F9369
:100DB000CF93DF93282F30E0F901EE58FE4F849156
:100DC000F901E854FE4FD491F901E250FE4FC4916D
:100DD000CC23B9F0162F811158DFEC2FF0E0EE0F85
:100DE000FF1FE25AFD4FA591B4919FB7F8941111DE
:100DF00004C08C91D095D82302C0EC91DE2BDC93FB
:100E00009FBFDF91CF911F910895CF93DF93282F3C
:100E100030E0F901EE58FE4F8491F901E854FE4F9D
:100E2000D491F901E250FE4FC491CC2389F0811195
:100E30002CDFEC2FF0E0EE0FFF1FEC5BFD4FA591D8
:100E4000B491EC91ED2381E090E021F480E002C0C8
:100E500080E090E0DF91CF9108958EBD00000DB449
:100E600007FEFDCF8EB50895FC014181528163815B
:100E7000748180E092E1AAE7B0E020E048175907CA
:100E80006A077B0740F4B695A795979587952F5FDE
:100E90002630A1F727E091E09227292F206A269596
:100EA000917080912B06882399F08FB7F894309138
:100EB0002B06313059F43DB3309329064DB33091B0
:100EC0002A06309534233DBB8FBF02C0809329068C
:100ED0002CBD9DBD60E080816ACF61E0FC01808116
:100EE00066DF80912B06882361F09FB7F8942091EC
:100EF0002B0680912906213019F48DBB9FBF0895E0
:100F00008FBF08958F929F92AF92BF92FF920F93DF
:100F10001F93CF93DF93EC01F62E49015A0101157F
:100F2000110519F01E830D8306C08DE296E09E83A5
:100F30008D830E947016F88289829A82AB82BC826D
:100F400061E08F2DF8DECE01DF91CF911F910F91DF
:100F5000FF90BF90AF909F908F90BFCF1F93CF9384
:100F6000DF93EC01162F80DF83E077DF812F75DFC1
:100F700080E073DF182FCE01B0DF812FDF91CF919A
:100F80001F910895DF92EF92FF920F931F93CF93DB
:100F9000DF938C01C62FD42EE52EF22E65DF83E081
:100FA0005CDF8C2F5ADFCD2DDE2DCE018F0D911DF4
:100FB0007C01CE15DF0521F080E04FDF8993F9CF6A
:100FC000C801DF91CF911F910F91FF90EF90DF90BB
:100FD00084CF0F931F93CF93DF93EC01062F142F31
:100FE00043DF82E03ADF802F38DF812F36DFCE010A
:100FF000DF91CF911F910F9170CFDF92EF92FF920F
:101000000F931F93CF93DF938C01C62FD42EE52E21
:10101000F22E2ADF82E021DF8C2F1FDFCD2DDE2D87
:10102000CE018F0D911D7C01CE15DF0519F0899140
:1010300014DFFACFC801DF91CF911F910F91FF907C
:10104000EF90DF904ACFFF920F931F93CF93DF93E0
:10105000EC01F62E042F122F07DF85E0FEDE8F2D28
:10106000FCDE802FFADE812FF8DECE01DF91CF91FA
:101070001F910F91FF9031CF1F93CF93DF93EC011E
:10108000F3DE80EAEADE80E0E8DE182FCE0125DF1D
:10109000812FDF91CF911F910895CF92DF92EF9230
:1010A000FF921F93CF93DF93EC01162F262F40EE74
:1010B0006FE0C9DF1DDD6B017C012AE0C20ED11C8F
:1010C000E11CF11C15DD6C157D058E059F0540F4B6
:1010D0006EE0CE0143DF807E1813F4CF81E001C0C3
:1010E00080E091E08927DF91CF911F91FF90EF90F1
:1010F000DF90CF90089560E8D0CF60E0CECF0F931F
:101100001F93CF93DF938C01C62FD42FF4DF81116F
:10111000BDC0D130B9F108F46BC0D23009F099C02C
:101120008C2F90E08031910508F093C0FC01882756
:10113000EC57FF4F8F4F0C943D18C7E8DFEB34C0DE
:10114000C4E8D4EA8EC0C5E8D2EE47E493C0C7E84D
:10115000DFEB6EC0C6E8D4EB6BC0C7E8DFEB6CC05A
:10116000C6E8D4EB69C0C5E8D1EB66C0C6E8D4EBED
:101170006BC0C5E8D1EB68C0C2E8D0E965C0C0E883
:10118000D0E862C08C2F90E08031910508F061C0FA
:10119000FC018827EC56FF4F8F4F0C943D18C7E891
:1011A000DFEF5BC0C7E8DFEF4FE064C0C5E8D1EF19
:1011B0004EE460C0C7E8DFEF54C0C7E8DAEF51C0C3
:1011C000C7E8DFEF35C0C7E0DEEB32C0C7E0DDEADD
:1011D0002FC0C6E8D0EF2CC0C7E8DAEF2DC0C5E8B5
:1011E000D1EF2EC0C6E8D0EF2FC0C2E8D0ED2CC0A2
:1011F0008C2F90E0FC013497EC30F10550F58827F6
:10120000EC55FF4F8F4F0C943D18C7E8DFEF02C03D
:10121000C7E8DAEF49E02EC0C7E8DFEF02C0C7E851
:10122000DEEF44E027C0C7E8DAEFFBCFC7E8DAEF2C
:1012300043E020C0C7E8DFEF41E01CC0C6E8DBEFB9
:1012400041E418C0C7E8DAEF40E014C0C2E8D9EDC5
:10125000FBCF81E01BC0C7E8DFEB4FE10BC0C7E865
:10126000DFEB47E007C0C7E8DFEF4FE303C0C7E8A5
:10127000DFEF4BE06AE2C801ACDE4D2F69E2C80146
:10128000A8DE4C2F68E2C801A4DE80E0DF91CF9198
:101290001F910F9108950F931F93FB014423B1F009
:1012A00003831283890122273327902F9C71802F7B
:1012B000837048E0949F800D11248860818355E0FD
:1012C000169507955A95E1F700830DC0C80123E0F4
:1012D000969587952A95E1F780830295000F007E09
:1012E0000183138212821F910F9108958F929F9212
:1012F000AF92BF92CF92DF92EF92FF920F931F9324
:10130000CF93DF9300D01F92CDB7DEB77C01D62EEE
:10131000C42E48015901EFDE811119C095018401E5
:101320004C2DBE016F5F7F4FC701B5DFDD2029F077
:1013300081E0D8120BC064E201C060E224E0AE019B
:101340004F5F5F4FC70159DE80E001C081E00F9021
:101350000F900F900F90DF91CF911F910F91FF9001
:10136000EF90DF90CF90BF90AF909F908F900895B7
:101370008F929F92AF92BF92CF92DF92EF92FF92A5
:101380000F931F93CF93DF9300D01F92CDB7DEB79B
:101390006C01F62EE42E48015901ADDE811134C0F6
:1013A00082E0F816A9F08F1540F0FF20D1F081E01F
:1013B000F81229C044E0F42E15C084E0F81671F04C
:1013C000F81648F085E0F8121EC088E1F82E0AC031
:1013D00038E0F32E07C020E1F22E04C094E1F92E8C
:1013E00001C0F12C950184014E2DBE016F5F7F4F2E
:1013F000C60151DF24E0AE014F5F5F4F6F2DC60184
:10140000FCDD80E001C081E00F900F900F900F9005
:10141000DF91CF911F910F91FF90EF90DF90CF90D0
:10142000BF90AF909F908F900895AF92BF92CF9250
:10143000DF92EF92FF920F931F93CF93DF93CDB77D
:10144000DEB764970FB6F894DEBF0FBECDBF7C0148
:101450000BDD80EC02DDC70140DD6AE070E080E07A
:1014600090E077DB8E010F5F1F4F8EE0F801119245
:101470008A95E9F72EE0A80160E3C701BEDD2EE002
:10148000A80160E4C701B9DD2EE0A80160E5C7014D
:10149000B4DD40E060E6C7019CDD40E060E7C701E5
:1014A00098DD43EA6BE2C70194DD24E047E660E69D
:1014B000C701C9DD21E047E660E7C701C4DD86E07A
:1014C000EBE3F2E0DE011F9601900D928A95E1F7C1
:1014D0005E01FFE0AF0EB11CC12CD12CF501619172
:1014E0005F0141E0F1E0CF16D10409F040E000E0F7
:1014F00010E09801C7013CDF811117C08FEFC81AB7
:10150000D80AE6E0CE16D10449F700E010E09801D1
:1015100041E060E0C701EADE811107C000E010E0B1
:10152000980141E061E0C701E1DE64960FB6F894EE
:10153000DEBF0FBECDBFDF91CF911F910F91FF9006
:10154000EF90DF90CF90BF90AF9008954F925F9251
:101550006F927F92AF92BF92CF92DF92EF92FF9203
:101560000F931F93CF93DF93CDB7DEB72D970FB6B1
:10157000F894DEBF0FBECDBF5C01FA012481293093
:1015800008F058C0E62EF12C80819181A281B381B0
:10159000AC01BD01442777FD439555276627772782
:1015A0002C013D0144245524662420E47222B7FD19
:1015B00005C00FEF17E020E030E004C00FEF1FEF91
:1015C0002FEF3FE16F01082319232A233B23BE019C
:1015D0006F5F7F4FC5015FDEF6011481812F4528C3
:1015E0004628472809F080648D83412F50E0B601DA
:1015F000685F7F4FCE0106960E94661925E0210F95
:101600008701000F111F0E0D1F1D065A1D4FAE0141
:101610004F5F5F4FF8016181C501EFDCF801108178
:1016200028E048E0612FC5010EDD612FC50196DC81
:10163000807709F084E02D960FB6F894DEBF0FBED8
:10164000CDBFDF91CF911F910F91FF90EF90DF9071
:10165000CF90BF90AF907F906F905F904F90089524
:101660009F92AF92BF92CF92DF92EF92FF920F9331
:101670001F93CF93DF9300D0CDB7DEB7FB0124815A
:101680002930D8F57B018C01809141029091420272
:10169000A091430289839A83AB83CE0101966C01AA
:1016A0005E0194E0A90EB11CF60191906F01292D05
:1016B00030E0F901EE0FFF1F2E0F3F1FF901E65A30
:1016C000FD4F6081C8014ADC83FD12C0A701692D6E
:1016D000C8010F900F900F90DF91CF911F910F9144
:1016E000FF90EF90DF90CF90BF90AF909F902ECF64
:1016F000CA14DB04C9F682E001C084E00F900F90A9
:101700000F90DF91CF911F910F91FF90EF90DF909D
:10171000CF90BF90AF909F9008957F928F929F92AD
:10172000AF92BF92CF92DF92EF92FF920F931F93EF
:10173000CF93DF9300D01F921F92CDB7DEB74C013D
:101740005A0124E0629F80011124F801EE5AFD4FF6
:1017500025E0AE014F5F5F4F618114DC8A81998182
:10176000C82ED12C45E0D594C7944A95E1F7E8E01E
:101770009E9FC00CD11C11240D2C000CEE08FF08FC
:1017800083FF20C092E0CC0CDD1CEE1CFF1C9A9560
:10179000D1F78370C80ED11CE11CF11CFE2CED2C7E
:1017A000DC2CCC248B81C80ED11CE11CF11CFE2C3E
:1017B000ED2CDC2CCC248C81C80ED11CE11CF11C3E
:1017C0006894F7F88D818F70782EF8E0F81710F193
:1017D000F801EE5AFD4F6081C401C0DB83FF02C0F7
:1017E0006894F6F8F501C082D182E282F3827482B5
:1017F000A501485F5F4F0E5A1D4F272DF8016281EA
:10180000C401C0DB20E0F80143816CE2C4011BDCB1
:1018100080E001C081E00F900F900F900F900F902B
:10182000DF91CF911F910F91FF90EF90DF90CF90BC
:10183000BF90AF909F908F907F9008950F931F93CC
:10184000CF93DF93EC018B0117DC80FF03C0A8016D
:1018500060E004C081FF08C0A80161E0CE01DF9113
:10186000CF911F910F9159CF85E0DF91CF911F91BB
:101870000F9108950FB6F8940F92FC01928D0F907E
:101880000FBE81E0911180E008950F931F93CF93D5
:10189000DF93EC01042F1A8D4C8D41110BC0888110
:1018A0009981892BE9F58C819D810E9460141D82AC
:1018B0001C8237C050E0011115C08A819B810E94B3
:1018C00066192C8D8A819B81820F911D9B838A834F
:1018D0002C813D818217930718F1888199819B8320
:1018E0008A831EC08E819F810E9466198C8D90E034
:1018F0009195819591092E813F81280F391F3F8352
:101900002E83488159812417350730F42C813D817D
:10191000820F931F9F838E83023011F41111115097
:1019200080E01F5F1A8FDF91CF911F910F91089573
:10193000FC01CB01448D4423A1F050E02681378186
:10194000240F351F37832683648175812617370757
:1019500020F02081318137832683668177810C9442
:1019600066190895EF92FF921F93CF93DF93EC01D6
:101970000FB6F8940F921E8D7C0181E1E80EF11CE8
:1019800011164CF48989882331F0C7019FD6811143
:1019900085D71150F5CF8FEF8E8F0F900FBE0FB6FA
:1019A000F8940F921D8D7E0188E0E80EF11C11164F
:1019B0004CF48885882331F0C70188D681116ED711
:1019C0001150F5CF8FEF8D8F0F900FBEDF91CF911C
:1019D0001F91FF90EF900895CF93DF93009709F444
:1019E0003FC0FC01238D222309F43AC0EC010FB65D
:1019F000F8940F9240815181838D748D9A01879F55
:101A0000200D311D112435832483128E538342838C
:101A100090E00197789F9001799F300D1124CA01C1
:101A2000820F931F978386838FEF858F868F611137
:101A30000BC08085882381F0CF01089647D6882384
:101A400059F00E943A1708C0CF0108960E94B516B7
:101A5000CE0141960E94B5160F900FBE81E001C0E5
:101A600080E0DF91CF910895CF93DF93E901882340
:101A7000C9F02097C9F04115510519F0611103C053
:101A800011C061110FC091E09F8F611103C0D98314
:101A9000C88302C0598348838B8F6C8F61E0CE016D
:101AA0009BDF02C0C0E0D0E0CE01DF91CF9108956E
:101AB000AF92BF92CF92DF92FF920F931F93CF937B
:101AC000DF9300D01F921F92CDB7DEB78C016B0160
:101AD0005D834C83F22E80E0580198E0A90EB11C82
:101AE0000FB6F8940F92F801228D938D291718F0F4
:101AF000F2E0FF1212C04F2DB601C801C6DEF80198
:101B00009189992319F0C8014196E0D581110E946D
:101B10003A170F900FBE81E046C02C813D81232BE8
:101B200019F40F900FBE3EC0811103C0CE01019683
:101B300079D60F900FBE37D30FB6F8940F92F801F5
:101B4000858D8F3F09F4158EF801868D8F3F09F43E
:101B5000168E0F900FBEBE016C5F7F4FCE010196B7
:101B60006CD681111CC00FB6F8940F92F801928DBB
:101B7000838D0F900FBE98130EC06C817D81C501BF
:101B80004FD5C801EFDE28D4882311F081E0A8CF1B
:101B90000E943A17FBCFC801E5DE1ED4F7CFC8017B
:101BA000E1DE1AD480E00F900F900F900F900F900D
:101BB000DF91CF911F910F91FF90DF90CF90BF9059
:101BC000AF900895EF92FF921F93CF93DF93EC01B4
:101BD0009A8D8B8D981710F02230F1F47A011E8DBA
:101BE0008A8D422FCE0151DE1F3F79F489898823E7
:101BF00089F0CE0141966AD5882361F0E114F104A1
:101C000049F081E0F701808308C0DDD2181710F495
:101C10001F5F1E8F81E001C080E0DF91CF911F9197
:101C2000FF90EF900895AF92BF92CF92DF92FF9214
:101C30000F931F93CF93DF9300D01F921F92CDB7C6
:101C4000DEB78C016B015D834C8380E0580191E12C
:101C5000A90EB11C0FB6F8940F92F801F28CFF2078
:101C600099F0B601C80164DEFA94F801F28E80851D
:101C7000882331F0C801089629D581110E943A17AE
:101C80000F900FBE81E044C02C813D81232B19F4BD
:101C90000F900FBE3CC0811103C0CE010196C2D58A
:101CA0000F900FBE80D20FB6F8940F92F801858D79
:101CB0008F3F09F4158EF801868D8F3F09F4168E3B
:101CC0000F900FBEBE016C5F7F4FCE010196B5D560
:101CD000811116C0C801CEDD882371F06C817D8131
:101CE000C5019ED4C8013EDE77D3882311F081E080
:101CF000B1CF0E943A17FBCFC80134DE6DD3F7CFC6
:101D0000C80130DE69D3C801B5DD882381F380E0E6
:101D10000F900F900F900F900F90DF91CF911F9128
:101D20000F91FF90DF90CF90BF90AF900895CF9329
:101D3000DF93EC010FB6F8940F928D8D8F3F09F46D
:101D40001D8E8E8D8F3F09F41E8E0F900FBE8A8DD3
:101D5000811103C0CE01419672D4CE01DF91CF91A3
:101D600001CECF93DF93EC010FB6F8940F928091E0
:101D7000FB038F5F8093FB03809152049091530487
:101D8000892B89F5D0935304C09352048091FB03AF
:101D9000813009F038C08EE294E0E7D787E394E021
:101DA000E4D780E494E0E1D789E494E0DED785E2EB
:101DB00094E0DBD78CE194E0D8D78FE094E0D5D7DE
:101DC00086E094E0D2D78CEF93E0CFD785E294E021
:101DD00090931B0480931A048CE194E0909319046F
:101DE0008093180410C08091F70381110CC0E0911A
:101DF0005204F091530496898E89891720F0D0936C
:101E00005304C09352048091F2038F5F8093F203D6
:101E1000EE898091F8038E1710F4E093F80389E0BF
:101E20008E9FF0011124E25DFB4F0180F281E02DD5
:101E3000FD83EC83248135813F832E83A481B5818A
:101E40009E012E5F3F4F13963C932E93129735833E
:101E50002483EE898E9FF0011124E25DFB4FFB8706
:101E6000EA8780818F5F80830F900FBE8091F70398
:101E7000882349F0E0915204F091530496898E89A9
:101E8000981708F4F7D7DF91CF910895E0911A04DD
:101E9000F0911B048081811103C08FEF9FEF09C077
:101EA000E0911A04F0911B040580F681E02D8081F9
:101EB00091819093F1038093F00308956F927F9244
:101EC0008F929F92AF92BF92CF92DF92EF92FF924A
:101ED0000F93CF93DF934C01EB015A01390165EA6F
:101EE00070E0F6018789908D0E946F19F1E0AF1ABA
:101EF000B108F6018789908DA80EB91E209771F060
:101F00007996CE010896DE01299121932C91222306
:101F100019F0C817D907B9F7F60110A2043008F074
:101F200003E0F601068B01A3C60102962CD7C60179
:101F30000C9629D7F601D186C08684E090E0801BFC
:101F4000910995878487D38AC28AA301B401C50108
:101F50007AD7F60191838083E114F10419F0F70137
:101F6000D182C082DF91CF910F91FF90EF90DF90EF
:101F7000CF90BF90AF909F908F907F906F9008957B
:101F8000CF93DF93FC0120A5211106C0EC018789C6
:101F9000908DDDD6CE0102C0213019F4DF91CF91B2
:101FA000D6C6DF91CF910895FF920F931F93CF93E1
:101FB000DF93EC01F62E0091F9031091FA03809162
:101FC00052049091530402961AD7CF3F8FEFD8074F
:101FD000C1F5FF20B1F1E091FD03F091FE03A09166
:101FE0005204B09153041596FC93EE931497A0916C
:101FF0005204B09153048481958117969C938E93DB
:1020000016978091520490915304A481B581029651
:1020100013969C938E93129780915204909153043F
:10202000029695838483E0915204F09153048CEFDF
:1020300093E0938782878091FC038F5F8093FC03FA
:102040002DC0C00FD11FE0915204F0915304D383EF
:10205000C2836091520470915304C017D10760F499
:1020600080911804909119046E5F7F4FDF91CF919A
:102070001F910F91FF908BC680911A0490911B04C1
:102080006E5F7F4F84D68091F0039091F103C81763
:10209000D90720F4D093F103C093F003DF91CF91DF
:1020A0001F910F91FF900895AF92BF92CF92DF9250
:1020B000EF92FF920F93CF93DF931F921F92CDB7B2
:1020C000DEB7C114D104C1F0E114F104A9F0E9E2D2
:1020D000D6011D92EA95E9F7F601F08EE78AE2E073
:1020E000D6019896EC93FE0131967F01E7DEC6019A
:1020F00038DE89819A8102C080E090E00F900F90D5
:10210000DF91CF910F91FF90EF90DF90CF90BF9034
:10211000AF900895CF92DF92EF92FF920F93CF93FB
:10212000DF9300D000D0CDB7DEB71E821D821C82A7
:102130001B82AE014F5F5F4FBE016D5F7F4FCE01CF
:102140000596AED5CD80DE80EB80FC8049815A813A
:1021500000E020E030E063E672E089E491E0A4DF93
:10216000892B89F0BBD4813071F4F8942FEF3FEFC5
:102170003093F1032093F0038093F7031092FA0356
:102180001092F90346D780913A0226960FB6F8943A
:10219000DEBF0FBECDBFDF91CF910F91FF90EF90CB
:1021A000DF90CF9008958091EF038F5F8093EF03CE
:1021B00008950FB6F8940F928091F9039091FA0365
:1021C0000F900FBE08958091FB030895DF92EF9268
:1021D000FF920F931F93CF93DF938091EF038111B1
:1021E000E6C00091F9031091FA030F5F1F4F10939F
:1021F000FA030093F90301151105B1F480911A0453
:1022000090911B04209118043091190430931B0401
:1022100020931A0490931904809318048091F30377
:102220008F5F8093F30332DE8091F0039091F1038E
:10223000D12C0817190708F49BC049E0E0911A0453
:10224000F0911B048081811103C08FEF9FEF0FC0BD
:10225000E0911A04F0911B040580F681E02D0680C0
:10226000F781E02D828193810817190728F4909354
:10227000F1038093F0037CC0A285B38584819581AE
:1022800026813781EC013D832C8326813781E9014A
:102290009B838A83CF01029611966D917C91129750
:1022A0006817790721F412963C932E9311971386A1
:1022B00012862C9121502C93A489B5891097F9F09E
:1022C0002685378560897189E9017D836C83608902
:1022D0007189EB013B832A831196ED90FC90129754
:1022E0009F01245F3F4FE216F30621F412967C9380
:1022F0006E931197158A148A2C9121502C93A689DC
:102300002091F8032A1710F4A093F8034A9FD001F4
:102310001124A25DBB4F11960D90BC91A02DB583E9
:10232000A48314962D913C91159737832683149698
:102330002D913C911597E9019B838A8315969C9377
:102340008E9314979689499FD0011124A25DBB4FAB
:10235000B387A2878C918F5F8C93E0915204F091A8
:1023600053048689891708F069CFDD24D39466CF9A
:10237000E0915204F0915304E689D9E0ED9FF00119
:102380001124E25DFB4F8081823010F0DD24D39474
:102390008091F5039091F603892B11F40E94C602F7
:1023A0008091F403882379F0DD24D3940CC08091CC
:1023B000F5039091F60301969093F6038093F5034D
:1023C0000E94C602D12C8D2DDF91CF911F910F91CC
:1023D000FF90EF90DF900895EF92FF920F931F937D
:1023E000CF93DF930FB6F8940F928091EF03815053
:1023F0008093EF038091EF03882311F080E0ACC05D
:102400008091FB038823D1F3E0901404F09015042D
:10241000E0E0F0E039E041E080910F04882309F426
:1024200080C0D7011696ED91FC911797A489B589C4
:102430006685778580899189EB019D838C8380896E
:102440009189EC017B836A83BF01645F7F4F1196A2
:102450000D911C9112970617170721F412969C9361
:102460008E931197158A148A8C9181508C93A28532
:10247000B3858481958166817781EC017D836C834E
:1024800066817781EB019B838A83CF010296119647
:102490000D911C9112970817190721F412967C933D
:1024A0006E931197138612862C9121502C93A68936
:1024B0002091F8032A1710F4A093F8033A9FD00153
:1024C0001124A25DBB4F11960D90BC91A02DB58338
:1024D000A48314966D917C911597778366831496E7
:1024E0006D917C911597EB019B838A8315969C9344
:1024F0008E9314979689399FD0011124A25DBB4F0A
:10250000B387A2878C918F5F8C93A0915204B09176
:10251000530456968C91891708F07ECF4093F403AC
:102520007BCFEF2B09F0B2DCC091F503D091F6031D
:10253000209759F011E04ADE81111093F40321979E
:10254000D1F71092F6031092F5038091F4038823DB
:1025500009F454CF8FD481E00F900FBEDF91CF915B
:102560001F910F91FF90EF9008958091EF038823C2
:1025700021F081E08093F40308951092F403A09178
:102580005204B0915304E0915204F09153042D9100
:102590003C918789908D8217930758F0609152047F
:1025A000709153048091520490915304675E7F4F61
:1025B0006BD38091F80369E0482F50E0649F90014D
:1025C000659F300D1124F901E25DFB4F908191115F
:1025D00002C08150F1CFA181B28112966D917C91A0
:1025E0001397728361832F5C3B4F6217730721F44B
:1025F000258136813283218399E0949FF001959F54
:10260000F00D1124E25DFB4F0180F281E02D268167
:10261000378130935304209352048093F803089534
:10262000CF93DF93EB016091520470915304645F88
:102630007F4FADD361E0CE01DF91CF91B5CC0F9349
:102640001F93CF93DF93FC018B01A181B281809115
:10265000520490915304EC01BF87AE8780915204DD
:102660009091530414962D913C911597EC01398B60
:10267000288B209152043091530414968D919C9193
:102680001597245F3F4FEC013B832A83209152042E
:1026900030915304245F3F4F15963C932E9314972B
:1026A000A0915204B09153045596FC93EE93549725
:1026B00090819F5F9083442311F00FEF1FEF642FF1
:1026C000C801DF91CF911F910F916ECCCF93DF9313
:1026D000DC011596ED91FC9116970680F781E02DAF
:1026E000A489B5898685978520893189EC013D8348
:1026F0002C83C089D1899B838A83CF010C96119644
:102700002D913C9112972817390721F41296DC93EA
:10271000CE931197158A148A2C9121502C932091D5
:10272000EF0321114FC0A285B38584819581268155
:102730003781EC013D832C83C681D7819B838A83BB
:102740009F012E5F3F4F11968D919C91129782179A
:10275000930721F41296DC93CE9311971386128679
:102760008C9181508C93A6898091F8038A1710F47C
:10277000A093F80389E08A9FD0011124A25DBB4F8A
:1027800011960D90BC91A02DB583A48314964D9104
:102790005C911597578346831496CD91DC911597DC
:1027A0003B832A8315963C932E931497A6898A9F80
:1027B000D0011124A25DBB4FB387A2878C918F5F9C
:1027C0008C931FC0A0911004B0911104B787A68705
:1027D00014962D913C911597318B208B1496CD91A9
:1027E000DC9115979B838A8315969C938E931497FF
:1027F0008FE094E0958B848B80910F048F5F8093A2
:102800000F04A0915204B0915304968956968C916E
:10281000891720F481E08093F40301C080E0DF9108
:10282000CF9108952091F303FC0120832091F903B7
:102830003091FA03328321830895CF93DF930FB64B
:10284000F8940F924091F9035091FA03DB012D9116
:102850003C912F3FBFEF3B07D9F0EC01E981FA81B2
:10286000A091F303B881BA1741F04E175F0728F023
:10287000FB011182108281E00CC04E1B5F0B4217DE
:102880005307B0F7FB01241B350B31832083CADFCC
:1028900080E00F900FBEDF91CF91089581E080938B
:1028A000F40308958091F703882331F08091EF03BA
:1028B000882321F080E0089581E0089582E0089562
:1028C0000F931F93CF93DF93EC01892B11F480E0DA
:1028D00043C08AA181508AA32E8999A12917B9F3EF
:1028E0008111F5CF8E010E5F1F4FC80188D289A1DB
:1028F0008E8B482F50E024E030E0241B350B3D87C1
:102900002C879091F803981710F48093F80389E0CE
:10291000849FF001859FF00D1124E25DFB4F018043
:10292000F281E02DFD83EC83248135813F832E836A
:10293000A481B58113961C930E931297158304837B
:10294000EE898E9FF0011124E25DFB4FFB87EA8741
:1029500080818F5F808381E0DF91CF911F910F9104
:1029600008950F930FB6F8940F928091AA04909156
:10297000AB04892BF1F489EB94E0F7D180EB94E080
:10298000F4D189EB94E09093AF048093AE0480EB94
:1029900094E09093AD048093AC0400E024E534E02F
:1029A00044E754E065E08AE05FD89093AB048093FD
:1029B000AA040F900FBE0F910895FC0173836283E8
:1029C000918780874617570778F0421B530B848501
:1029D000958548175907C0F4BF016E5F7F4F8091FE
:1029E000AC049091AD040DC04217530718F4621760
:1029F000730750F4BF016E5F7F4F8091AE049091DA
:102A0000AF04C5D180E0089581E00895EF92FF9270
:102A10000F931F93CF93DF93EC018B017A016C85A9
:102A20007D85600F711F9801A701CE01C6DF882345
:102A300049F08C859D85080F191FE889F989CE0119
:102A40001995EDCFDF91CF911F910F91FF90EF90EE
:102A50000895EF92FF920F931F93CF93DF938C0112
:102A60007B01E091AE04F091AF040580F681E02D8A
:102A7000C681D781CE010296C2D18A8982FF05C064
:102A8000A701B801CE01C2DF02C08E7F8A8BE88920
:102A9000F989CE01DF91CF911F910F91FF90EF90B7
:102AA0001994E091AE04F091AF048081882349F03D
:102AB0000580F681E02D6FEF7FEF80819181C9DF86
:102AC000F0CF8091AC049091AD049093AF048093CB
:102AD000AE04F093AD04E093AC040895CF92DF927E
:102AE000EF92FF920F93CF93DF9300D000D0CDB73A
:102AF000DEB737DF8091AA049091AB04892B19F1DE
:102B00001E821D821C821B82AE014F5F5F4FBE0181
:102B10006D5F7F4FCE010596D3D0CD80DE80EB80F8
:102B2000FC8049815A8103E020E030E068E672E0F1
:102B300083E791E0B9DA9C019093A9048093A804FB
:102B400081E0232B09F480E026960FB6F894DEBFCF
:102B50000FBECDBFDF91CF910F91FF90EF90DF902F
:102B6000CF9008957F928F929F92AF92BF92CF9213
:102B7000DF92EF92FF920F931F93CF93DF934C015D
:102B80005B01742E6901E701209799F082E08A8B3E
:102B9000E8DE99828882BD86AC86DF86CE86198B78
:102BA000088BC7010296EFD0772019F08A898460DC
:102BB0008A8BCE01DF91CF911F910F91FF90EF9003
:102BC000DF90CF90BF90AF909F908F907F900895AF
:102BD0000F931F93CF93DF9300D01F921F92CDB717
:102BE000DEB7A091AA04B091AB04109721F1F901CE
:102BF00069835B834A839D838C8366309CF452DEB9
:102C0000E091AA04F091AB0420E0823011F4A80115
:102C100002C040E050E0BE016F5F7F4FCF010E94D5
:102C2000580D0AC020E0AF01BE016F5F7F4FCD019C
:102C30000E94E20D01C080E00F900F900F900F9066
:102C40000F90DF91CF911F910F9108952091040271
:102C5000309105028FEF91E2821B930B909301025A
:102C6000809300020E94F00455CA08950E94210535
:102C700080E090E0892B11F00C9400000895279AD1
:102C80002F9A08951F9A0895FADF2FEF87EA91E6A9
:102C9000215080409040E1F700C00000F3DFF5CF05
:102CA00020E036E0FC013183208380E495E0FB01E5
:102CB0009183808380EC90E0FA0191838083089572
:102CC00027E135E0FC013183208382EC94E0FB01B5
:102CD0009183808385E590E0FA0191838083089554
:102CE000CF93CFB7F89480912C06811127C0E3E3EE
:102CF000F2E08491EDEEF1E09491E82FF0E0EE0F38
:102D0000FF1FE858FD4FA591B491EC91E92321F400
:102D100061E085E30E94D70661E085E30E949B069F
:102D20008CB580618CBD8CB580648CBD61E084E322
:102D30000E949B0661E083E30E949B0680912C0623
:102D40008F5F80932C06CFBFCF9108950895CF93C6
:102D5000DF93009739F0EC0126DACE012ED2DF9115
:102D6000CF913ACBDF91CF910895FC0103969283E6
:102D700081832FEF3FEF348323839683858390876E
:102D8000878310820895FC011186108608950F93A1
:102D90001F93CF93DF938C01FB01808191818F3F43
:102DA0002FEF920721F4E801AF81B8850EC0D8015A
:102DB000139612962D913C911397E9014881598100
:102DC0008417950710F0D901F4CF12968D919C913C
:102DD000139793838283EC01FD83EC83B583A483F3
:102DE0001396FC93EE93129711870087F801808168
:102DF0008F5F8083DF91CF911F910F910895CF93C3
:102E0000DF93FC01A085B185828193812481358186
:102E1000EC013D832C83C481D5819B838A831196E9
:102E20008D919C911297E817F90721F41296DC9383
:102E3000CE931197118610868C9181508C938C9132
:102E4000DF91CF910895FC016083319770833197B2
:102E5000108231971082319720E8208331971082B9
:102E60003197108231971082779740833197508342
:102E7000869708950F920FB6F8940F920BB60F92A3
:102E80000CB60F921F9211242F923F924F925F9295
:102E90006F927F928F929F92AF92BF92CF92DF926A
:102EA000EF92FF920F931F932F933F934F935F9354
:102EB0006F937F938F939F93AF93BF93CF93DF9342
:102EC000EF93FF93A0915204B09153040DB60D926D
:102ED0000EB60D924ADBA0915204B0915304CD91ED
:102EE000CDBFDD91DEBFFF91EF91DF91CF91BF911B
:102EF000AF919F918F917F916F915F914F913F9192
:102F00002F911F910F91FF90EF90DF90CF90BF9086
:102F1000AF909F908F907F906F905F904F903F9079
:102F20002F901F900F900CBE0F900BBE0F900FBEF6
:102F30000F9008950F920FB6F8940F920BB60F9260
:102F40000CB60F921F9211242F923F924F925F92D4
:102F50006F927F928F929F92AF92BF92CF92DF92A9
:102F6000EF92FF920F931F932F933F934F935F9393
:102F70006F937F938F939F93AF93BF93CF93DF9381
:102F8000EF93FF93A0915204B09153040DB60D92AC
:102F90000EB60D9213BE1AD98111E7DAA091520430
:102FA000B0915304CD91CDBFDD91DEBFFF91EF9184
:102FB000DF91CF91BF91AF919F918F917F916F9151
:102FC0005F914F913F912F911F910F91FF90EF9043
:102FD000DF90CF90BF90AF909F908F907F906F9039
:102FE0005F904F903F902F901F900F900CBE0F90CE
:102FF0000BBE0F900FBE0F900895A89590EC88E13E
:103000000FB6F894A895809360000FBE909360006F
:103010000895F3DFA0915204B0915304CD91CDBF38
:10302000DD91DEBFFF91EF91DF91CF91BF91AF9125
:103030009F918F917F916F915F914F913F912F91D0
:103040001F910F91FF90EF90DF90CF90BF90AF90C6
:103050009F908F907F906F905F904F903F902F90B8
:103060001F900F900CBE0F900BBE0F900FBE0F90D5
:10307000089581E008955EDF1895EE0FFF1F881F09
:103080008BBF0790F691E02D19940F931F93CF9368
:10309000DF938230910510F482E090E0E0913006F9
:1030A000F091310620E030E0A0E0B0E0309719F177
:1030B000408151810281138148175907C8F0841754
:1030C000950769F4109731F012960C9312971396A6
:1030D0001C9327C0009330061093310622C021159F
:1030E000310519F04217530718F49A01BD01EF0199
:1030F000DF01F801DBCF21153105F9F0281B390B71
:103100002430310580F48A819B816115710521F09D
:10311000FB019383828304C0909331068093300631
:10312000FE01329644C0FE01E20FF31F819391939A
:1031300022503109398328833AC020912E063091DC
:103140002F06232B41F42091020230910302309389
:103150002F0620932E0620910002309101022115A6
:10316000310541F42DB73EB740910402509105025C
:10317000241B350BE0912E06F0912F06E217F30782
:10318000A0F42E1B3F0B2817390778F0AC014E5FD7
:103190005F4F2417350748F04E0F5F1F50932F06DF
:1031A00040932E068193919302C0E0E0F0E0CF01BE
:1031B000DF91CF911F910F910895CF93DF930097E7
:1031C00009F481C0FC01329713821282A09130066B
:1031D000B0913106109781F420813181820F931FC5
:1031E00020912E0630912F062817390751F5F093BC
:1031F0002F06E0932E0667C0ED0120E030E0CE17E9
:10320000DF0740F44A815B819E0141155105F1F0D1
:10321000EA01F5CFD383C28340815181840F951F8A
:10322000C817D90759F488819981840F951F029690
:10323000918380838A819B819383828321153105C9
:1032400029F4F0933106E09330063DC0E901FB8399
:10325000EA8349915991C40FD51FEC17FD0761F41A
:1032600080819181840F951F0296E901998388835B
:10327000828193819B838A83E0E0F0E012968D91B6
:103280009C911397009719F0FD01DC01F7CF8D9108
:103290009C9111979D012E5F3F4F820F931F2091AC
:1032A0002E0630912F062817390769F4309729F434
:1032B000109231061092300602C013821282B0932F
:1032C0002F06A0932E06DF91CF910895FB01DC011C
:1032D00002C001900D9241505040D8F70895DC0192
:1032E00001C06D9341505040E0F70895F894FFCF2E
:1032F0000000320620000000130000000100000062
:1033000005000000000000001300000001000000A4
:103310000200000000000000130000000100000097
:1033200001000000000000007A0203000102030413
:103330000500010202000300414F00544500000057
:103340000600606166017071760230313640414698
:1033500050515649444C4500546D722053766300D9
:00000001FF
