:1000000034C1000062C1000060C100005EC1000098
:100010005CC100005AC1000058C1000056C1000078
:1000200054C1000052C1000050C100004EC1000088
:100030004CC100004AC1000048C1000046C1000098
:1000400044C1000042C1000040C100003EC10000A8
:100050003CC100003AC1000038C100002FC60000BA
:1000600034C10000DEC4000012C500002EC1000033
:100070002CC100002AC1000028C1000026C10000D8
:1000800024C1000022C1000020C100001EC10000E8
:100090001CC100001AC1000018C1000016C10000F8
:1000A00014C1000012C1000010C100000EC1000008
:1000B0000CC100000AC1000008C1000006C1000018
:1000C00004C1000002C1000000C10000FEC0000029
:1000D000FCC00000FAC00000F8C00000F6C000003C
:1000E000F4C00000BF07C207B107B507BB07F90797
:1000F000C607CA07D007D407D807DE07E207E60716
:10010000F907EC07F007F4075E0AD209620AD5097D
:10011000D809DC09DF09E2095C0A5C0AE509E8099B
:10012000EB09EE09F109F409660A030A060A5C0AFA
:100130000A0A0E0A110A140A170A1A0A490A1D0A9B
:10014000200A230A260A290A6A0A380A3B0A3F0AB1
:10015000420A5C0A460A490A4D0A510A550A590AD6
:1001600000000A0B02090C0D0E0807030401000031
:10017000000000000000000000000000000000007F
:10018000000000000000000000000000121110003C
:10019000000000000000000000000000000000005F
:1001A000000000000000010210202008081020407C
:1001B000102040800201020108040201010204082B
:1001C00010204080804020100804020180040201B9
:1001D0008040201008040201080402010102040802
:1001E000102040800102040810204080050505050C
:1001F000070508080808020202020A0A080804049F
:1002000004040101010101010101030303030303CC
:100210000303040707070C0C0C0C0C0C0C0C02025B
:10022000020206060606060606060B0B0B0B0B0B58
:100230000B0B00002200250028002B002E003100AF
:10024000340002010000050108010B01000021003B
:10025000240027002A002D00300033000101000097
:10026000040107010A015202790511241FBECFEFD4
:10027000D1E2DEBFCDBF00E00CBF12E0A0E0B2E0F3
:10028000ECE6FEE100E00BBF02C007900D92AC3D32
:10029000B107D9F723E0ACEDB2E001C01D92A33D58
:1002A000B207E1F711E0C5E3D1E000E006C0219715
:1002B0000109802FFE010E94230FC333D10780E084
:1002C0000807A9F744D40C94340F9ACE0F931F93C8
:1002D000CF93DF9380E014D6EC010AE010E080E0D9
:1002E0000FD6C817D90751F401501109C1F720974B
:1002F00039F4DF91CF911F910F91CFC0CFEFD3E0B1
:10030000CE014497893C910528F4DF91CF911F914C
:100310000F91BEC0CE018C599109893C910528F4FA
:10032000DF91CF911F910F91B7C0CE018C519240B8
:10033000893C910528F4DF91CF911F910F91AEC0B8
:10034000C653D140C93CD10528F4DF91CF911F910C
:100350000F919AC0DF91CF911F910F9108958091D5
:100360000003813019F0823019F0089582E001C055
:1003700081E08093E202089580910003823031F0A1
:10038000843031F0813039F483E003C084E001C06F
:1003900085E08093E20208958091F8029091F9023D
:1003A000A091FA02B091FB0280319105A105B1053F
:1003B00051F082319105A105B10531F00997A105F0
:1003C000B10529F4CCCFD8CF86E08093E20208951E
:1003D0001092E3021092E20281E08093DD0210921B
:1003E000DC0220E042E060E180E193E00E941D0E2B
:1003F00080E193E00E94FF0D89E093E00E94480BAA
:1004000042E06BE089E093E0B0D789E093E0ABD7BE
:1004100040E060E080E193E00E94040E6AE072E058
:1004200080E193E0DDD341E060E080E193E00E9471
:10043000040E6BE172E080E193E0D2D360ED77E0EF
:1004400080E090E0B6D480E193E00E94FF0D26E0CA
:1004500040E855E260E070E088E293E079C236DF80
:1004600068EF72E089E093E00E94500D811101C0B5
:1004700093DF8091E302813029F018F0823019F087
:1004800008952FC061C029C181E08093E2020895E0
:1004900084E08093E20208950895089587E08093B0
:1004A000E2020895CF92EF920F931F9387E0C82E38
:1004B00096E0E92E05E024E049E068E080E193E081
:1004C0000E94AA0E00E010E020E836E948E950E07A
:1004D00061E389E093E04DD61F910F91EF90CF90AB
:1004E00008958091DD028823C9F01092DD0280E139
:1004F00093E00E94FF0D40E060E080E193E00E9405
:10050000040E6CE272E080E193E06AD341E060E0C7
:1005100080E193E00E94040E109208038091E202B1
:10052000882341F01092E202813021F48093E302AB
:100530008093DC028091DC02882329F01092DC0297
:1005400081E08093DD0208950F931F938091DD0277
:100550008823D1F01092DD0280E193E00E94FF0D2C
:1005600041E060E080E193E00E94040E68E372E005
:1005700080E193E035D3ECD36093DE027093DF0229
:100580008093E0029093E102E3D30091DE021091A8
:10059000DF022091E0023091E102601B710B820BBF
:1005A000930B28EC30E040E050E00E94010F672BF5
:1005B000682B692BD9F4CCD36093DE027093DF02F1
:1005C0008093E0029093E10240E060E080E193E0FC
:1005D0000E94040E69E472E080E193E001D34AE0F6
:1005E00050E06091080380E193E062D38091E202E1
:1005F000833011F158F4882309F463C0823009F084
:100600005EC01092E2021092E30230C0863019F10F
:10061000873081F1843009F052C01092E20280E10B
:1006200093E00E94FF0D40E060E080E193E00E94D3
:10063000040E65E672E014C01092E20280E193E0DD
:100640000E94FF0D40E060E080E193E00E94040E14
:1006500066E572E005C0809100038093080331C015
:1006600080E193E0BDD282E08093E30281E0809359
:10067000DC0227C01092E20280E190E0A0E0B0E04E
:100680008093E8029093E902A093EA02B093EB0210
:1006900081E08093EC0283E08093F00268EE72E0E8
:1006A00089E093E00E94620C66E772E088E293E0E2
:1006B0009BD261E872E088E293E096D202C0109289
:1006C000E2028091DC02882329F01092DC0281E0B2
:1006D0008093DD021F910F9108958091DD028823A0
:1006E00069F01092DD0241E060E080E193E00E9459
:1006F000040E6DE872E080E193E072D28091E20234
:10070000823069F0853029F0882381F01092E2026E
:100710000DC01092E20281E08093E30205C01092C6
:10072000E2021092E30281E08093DC028091DC021D
:10073000882329F01092DC0281E08093DD02089585
:10074000FC01918D228D892F90E0805C9F4F821B50
:1007500091098F7399270895FC01918D828D9817C7
:1007600031F0828DE80FF11D858D90E008958FEFB7
:100770009FEF0895FC01918D828D981761F0828D15
:10078000DF01A80FB11D5D968C91928D9F5F9F73C5
:10079000928F90E008958FEF9FEF0895FC01538DA5
:1007A000448D252F30E0842F90E0821B930B54174B
:1007B00010F0CF9608950197089580E795E0892B72
:1007C00039F080E090E0892B19F08AD1811125C0A1
:1007D00080E090E0892B41F080E090E0892B21F0CF
:1007E0000E94000081111CC080E090E0892B41F044
:1007F00080E090E0892B21F00E940000811113C05D
:1008000080E090E0892BA1F080E090E0892B81F0DE
:100810000E94000081110AC008950E940000D8CFF4
:100820000E940000E1CF0E940000EACF0C9400007B
:100830000895FC01848DDF01A80FB11DA35ABF4F9D
:100840002C91848D90E001968F739927848FA689CF
:10085000B7892C93A089B1898C91837080648C9323
:10086000938D848D981306C00288F389E02D8081D2
:100870008F7D80830895EF92FF920F931F93CF9304
:10088000DF93EC0181E0888F9B8D8C8D981305C0E0
:10089000E889F989808185FD25C0F62E0B8D10E051
:1008A0000F5F1F4F0F731127E02E8C8DE8120BC0C6
:1008B0000FB607FCFACFE889F989808185FFF5CF6B
:1008C000CE01B7DFF2CF8B8DFE01E80FF11DE35AA9
:1008D000FF4FF0829FB7F8940B8FEA89FB898081E4
:1008E00080620AC09FB7F894EE89FF896083E88927
:1008F000F98980818370806480839FBF81E090E06C
:10090000DF91CF911F910F91FF90EF900895CF93BA
:10091000DF93EC01888D8823C1F0EA89FB8980810F
:1009200085FD05C0A889B9898C9186FD0EC00FB6DA
:1009300007FCF5CF808185FFF2CFA889B9898C911A
:1009400085FFEDCFCE0175DFE8CFDF91CF91089520
:10095000CF92DF92EF92FF921F93CF93DF93EC0140
:100960006A017B01122FE889F98982E080834115B1
:10097000514E61057105B1F060E079E08DE390E0E2
:10098000A70196010E94010FDA01C9010197A1098F
:10099000B109B695A795979587959C01211580E19A
:1009A0003807A8F0E889F989108260E874E88EE1D8
:1009B00090E0A70196010E94010FDA01C901019799
:1009C000A109B109B695A795979587959C01EC85E6
:1009D000FD853083EE85FF852083188EEC89FD89A7
:1009E0001083EA89FB89808180618083EA89FB89A1
:1009F000808188608083EA89FB8980818068808328
:100A0000EA89FB8980818F7D8083DF91CF911F915F
:100A1000FF90EF90DF90CF90089580E090E00895F0
:100A200008951F920F920FB60F9211240BB60F92DA
:100A30002F938F939F93EF93FF93E0913803F0915F
:100A400039038081E0913E03F0913F0382FD12C0A3
:100A50009081809141038F5F8F73209142038217B1
:100A600051F0E0914103F0E0E85DFC4F958F8093F9
:100A7000410301C08081FF91EF919F918F912F9150
:100A80000F900BBE0F900FBE0F901F9018951F92E6
:100A90000F920FB60F9211240BB60F922F933F9324
:100AA0004F935F936F937F938F939F93AF93BF9376
:100AB000EF93FF9388E293E0BCDEFF91EF91BF914B
:100AC000AF919F918F917F916F915F914F913F91E6
:100AD0002F910F900BBE0F900FBE0F901F90189587
:100AE00088E293E02DDE21E0892B09F420E0822FBB
:100AF0000895E8E2F3E01382128288EE93E0A0E02A
:100B0000B0E084839583A683B78382EA92E09183E1
:100B1000808385EC90E09587848784EC90E09787CC
:100B2000868780EC90E0918B808B81EC90E0938BBA
:100B3000828B82EC90E0958B848B86EC90E0978B97
:100B4000868B118E128E138E148E0895089576D191
:100B5000FDDF3EDCCDEDD3E082DC2097E9F32DDE36
:100B6000FBCFCF92DF92EF92FF920F931F93CF9321
:100B7000DF936C017A018B01C0E0D0E0CE15DF0578
:100B800081F0D8016D918D01D601ED91FC9101901C
:100B9000F081E02DC6011995892B11F02196EECF39
:100BA0007E01C701DF91CF911F910F91FF90EF90D0
:100BB000DF90CF9008956115710579F0FB010190E8
:100BC0000020E9F73197AF01461B570BDC01ED918F
:100BD000FC910280F381E02D199480E090E008956B
:100BE000EACF60EB72E0E7CF0F931F93CF93DF93D1
:100BF000EC01E1DF8C01CE01F4DF800F911FDF916A
:100C0000CF911F910F9108958F929F92AF92BF92B3
:100C1000EF92FF920F931F93CF93DF93CDB7DEB781
:100C2000A1970FB6F894DEBF0FBECDBF7C01FA01CD
:100C3000CB0119A2223008F42AE08E010F5D1F4F6C
:100C4000822E912CA12CB12CBF01A50194010E94F0
:100C5000010FF901CA01015011096A3010F4605DF9
:100C600001C0695CD8016C93232B242B252B61F7E1
:100C7000B801C701A0DFA1960FB6F894DEBF0FBE82
:100C8000CDBFDF91CF911F910F91FF90EF90BF905B
:100C9000AF909F908F9008952115310541F4DC01AC
:100CA000ED91FC910190F081E02D642F1994ACCF6F
:100CB0009A01462F50E060E070E0EECF1F920F9255
:100CC0000FB60F9211242F933F938F939F93AF935F
:100CD000BF938091C6039091C703A091C803B091C0
:100CE000C9033091C50323E0230F2D3720F401966B
:100CF000A11DB11D05C026E8230F0296A11DB11D3F
:100D00002093C5038093C6039093C703A093C803A1
:100D1000B093C9038091CA039091CB03A091CC03F7
:100D2000B091CD030196A11DB11D8093CA0390938C
:100D3000CB03A093CC03B093CD03BF91AF919F9110
:100D40008F913F912F910F900FBE0F901F9018958C
:100D50002FB7F8946091C6037091C7038091C803C0
:100D60009091C9032FBF08953FB7F8948091CA03AB
:100D70009091CB03A091CC03B091CD0326B5A89B55
:100D800005C02F3F19F00196A11DB11D3FBFBA2F1D
:100D9000A92F982F8827820F911DA11DB11DBC017D
:100DA000CD0142E0660F771F881F991F4A95D1F742
:100DB00008958F929F92AF92BF92CF92DF92EF925F
:100DC000FF926B017C01D0DF4B015C01C114D104A7
:100DD000E104F104F9F00E94000FC6DFDC01CB0151
:100DE00088199909AA09BB09883E9340A105B10554
:100DF00068F321E0C21AD108E108F10888EE880EF4
:100E000083E0981EA11CB11CC114D104E104F104BB
:100E100021F7DCCFFF90EF90DF90CF90BF90AF90A5
:100E20009F908F9008958230910538F0880F991F18
:100E3000880F991F05970197F1F70895789484B565
:100E4000826084BD84B5816084BD85B5826085BDC6
:100E500085B5816085BDEEE6F0E0808181608083AC
:100E6000E1E8F0E01082808182608083808181608F
:100E70008083E0E8F0E0808181608083E1EBF0E056
:100E8000808184608083E0EBF0E0808181608083FA
:100E9000E1E9F0E0808182608083808181608083ED
:100EA000E0E9F0E0808181608083E1EAF0E0808128
:100EB00082608083808181608083E0EAF0E08081CD
:100EC00081608083E1E2F1E08081826080838081C3
:100ED00081608083E0E2F1E0808181608083EAE7E5
:100EE000F0E0808184608083808182608083808163
:100EF000816080838081806880831092C100089522
:100F0000863308F0865390917B00282F2870977FB6
:100F1000922B90937B002091000290E4299F9001F6
:100F200011248770822B80937C0080917A008064EA
:100F300080937A0080917A0086FDFCCF80917800C2
:100F40002091790090E0922B089590E0FC01319778
:100F5000E231F10508F04DC08827EE58FF4F8F4F62
:100F600072C7809180008F7703C0809180008F7D51
:100F700080938000089580918000877FF9CF84B5A9
:100F80008F7702C084B58F7D84BD08958091B000B5
:100F90008F7703C08091B0008F7D8093B00008955B
:100FA000809190008F7707C0809190008F7D03C063
:100FB00080919000877F8093900008958091A00099
:100FC0008F7707C08091A0008F7D03C08091A00023
:100FD000877F8093A0000895809120018F7707C0BC
:100FE000809120018F7D03C080912001877F8093B5
:100FF00020010895CF93DF9390E0FC01EA55FE4F66
:101000002491FC01E451FE4F8491882361F190E02A
:10101000880F991FFC01E45BFD4FC591D491FC0141
:10102000EE5CFD4FA591B491611109C09FB7F89492
:101030008881209582238883EC912E230BC0623017
:1010400061F49FB7F8948881322F30958323888389
:10105000EC912E2B2C939FBF06C08FB7F894E8819C
:101060002E2B28838FBFDF91CF9108951F93CF93AD
:10107000DF93282F30E0F901E05AFE4F8491F90107
:10108000EA55FE4FD491F901E451FE4FC491CC23AF
:10109000B9F0162F811159DFEC2FF0E0EE0FFF1F92
:1010A000EE5CFD4FA591B4919FB7F894111104C067
:1010B0008C91D095D82302C0EC91DE2BDC939FBF9E
:1010C000DF91CF911F9108958EBD00000DB407FEF2
:1010D000FDCF8EB50895FC014181528163817481F9
:1010E00080E092E1AAE7B0E020E0481759076A07DC
:1010F0007B0740F4B695A795979587952F5F263087
:10110000A1F727E091E09227292F206A2695917078
:101110008091D003882399F08FB7F8943091D00351
:10112000313059F43DB33093CE034DB33091CF03FA
:10113000309534233DBB8FBF02C08093CE032CBDBE
:101140009DBD60E0808192CF61E0FC0180818EDFF7
:101150008091D003882361F09FB7F8942091D00349
:101160008091CE03213019F48DBB9FBF08958FBFAE
:1011700008958F929F92AF92BF92FF920F931F9309
:10118000CF93DF93EC01F62E49015A0101151105A9
:1011900019F01E830D8305C082ED93E09E838D833D
:1011A000FDD5F88289829A82AB82BC8261E08F2D64
:1011B00021DFCE01DF91CF911F910F91FF90BF9062
:1011C000AF909F908F90C0CF1F93CF93DF93EC0190
:1011D000162F81DF83E078DF812F76DF80E074DFF8
:1011E000182FCE01B1DF812FDF91CF911F9108958C
:1011F000DF92EF92FF920F931F93CF93DF938C01B7
:10120000C62FD42EE52EF22E66DF83E05DDF8C2F15
:101210005BDFCD2DDE2DCE018F0D911D7C01CE1516
:10122000DF0521F080E050DF8993F9CFC801DF911D
:10123000CF911F910F91FF90EF90DF9085CF0F938B
:101240001F93CF93DF93EC01062F142F44DF82E02E
:101250003BDF802F39DF812F37DFCE01DF91CF9148
:101260001F910F9171CFDF92EF92FF920F931F9317
:10127000CF93DF938C01C62FD42EE52EF22E2BDFD9
:1012800082E022DF8C2F20DFCD2DDE2DCE018F0DD1
:10129000911D7C01CE15DF0519F0899115DFFACF7C
:1012A000C801DF91CF911F910F91FF90EF90DF90D8
:1012B0004BCFFF920F931F93CF93DF93EC01F62E4A
:1012C000042F122F08DF85E0FFDE8F2DFDDE802F3B
:1012D000FBDE812FF9DECE01DF91CF911F910F91BF
:1012E000FF9032CF1F93CF93DF93EC01F4DE80EABF
:1012F000EBDE80E0E9DE182FCE0126DF812FDF91C3
:10130000CF911F910895CF92DF92EF92FF921F939A
:10131000CF93DF93EC01162F262F40EE6FE0C9DF4D
:1013200017DD6B017C012AE0C20ED11CE11CF11C0F
:101330000FDD6C157D058E059F0540F46EE0CE0136
:1013400043DF807E1813F4CF81E001C080E091E09C
:101350008927DF91CF911F91FF90EF90DF90CF9081
:10136000089560E8D0CF60E0CECF0F931F93CF9366
:10137000DF938C01C62FD42FF4DF8111BAC0D13096
:10138000B1F108F469C0D23009F096C08C2F90E01A
:101390008031910508F090C0FC018827EC57FF4F81
:1013A0008F4F51C5C7E8DFEB33C0C4E8D4EA8CC027
:1013B000C5E8D2EE47E491C0C7E8DFEB6CC0C6E8F1
:1013C000D4EB69C0C7E8DFEB6AC0C6E8D4EB67C0FE
:1013D000C5E8D1EB64C0C6E8D4EB69C0C5E8D1EB81
:1013E00066C0C2E8D0E963C0C0E8D0E860C08C2F16
:1013F00090E08031910508F05FC0FC018827EC5631
:10140000FF4F8F4F20C5C7E8DFEF5AC0C7E8DFEFB7
:101410004FE063C0C5E8D1EF4EE45FC0C7E8DFEF3F
:1014200053C0C7E8DAEF50C0C7E8DFEF34C0C7E009
:10143000DEEB31C0C7E0DDEA2EC0C6E8D0EF2BC03E
:10144000C7E8DAEF2CC0C5E8D1EF2DC0C6E8D0EF71
:101450002EC0C2E8D0ED2BC08C2F90E0FC01349759
:10146000EC30F10548F58827EC55FF4F8F4FEBC462
:10147000C7E8DFEF02C0C7E8DAEF49E02EC0C7E8EF
:10148000DFEF02C0C7E8DEEF44E027C0C7E8DAEFCD
:10149000FBCFC7E8DAEF43E020C0C7E8DFEF41E069
:1014A0001CC0C6E8DBEF41E418C0C7E8DAEF40E053
:1014B00014C0C2E8D9EDFBCF81E01BC0C7E8DFEB69
:1014C0004FE10BC0C7E8DFEB47E007C0C7E8DFEF3D
:1014D0004FE303C0C7E8DFEF4BE06AE2C801AFDECD
:1014E0004D2F69E2C801ABDE4C2F68E2C801A7DED0
:1014F00080E0DF91CF911F910F9108950F931F937B
:10150000FB014423B1F0038312838901222733278F
:10151000902F9C71802F837048E0949F800D112440
:101520008860818355E0169507955A95E1F7008309
:101530000DC0C80123E0969587952A95E1F7808331
:101540000295000F007E0183138212821F910F917A
:1015500008958F929F92AF92BF92CF92DF92EF92B7
:10156000FF920F931F93CF93DF9300D01F92CDB7BD
:10157000DEB77C01D62EC42E48015901F2DE81115E
:1015800019C0950184014C2DBE016F5F7F4FC701CB
:10159000B5DFDD2029F081E0D8120BC064E201C084
:1015A00060E224E0AE014F5F5F4FC7015CDE80E088
:1015B00001C081E00F900F900F900F90DF91CF91BD
:1015C0001F910F91FF90EF90DF90CF90BF90AF9061
:1015D0009F908F9008958F929F92AF92BF92CF92DB
:1015E000DF92EF92FF920F931F93CF93DF9300D080
:1015F0001F92CDB7DEB76C01F62EE42E48015901DB
:10160000B0DE811134C082E0F816A9F08F1540F0E9
:10161000FF20D1F081E0F81229C044E0F42E15C07B
:1016200084E0F81671F0F81648F085E0F8121EC054
:1016300088E1F82E0AC038E0F32E07C020E1F22E30
:1016400004C094E1F92E01C0F12C950184014E2DC6
:10165000BE016F5F7F4FC60151DF24E0AE014F5FD7
:101660005F4F6F2DC601FFDD80E001C081E00F906C
:101670000F900F900F90DF91CF911F910F91FF90DE
:10168000EF90DF90CF90BF90AF909F908F90089594
:10169000AF92BF92CF92DF92EF92FF920F931F9380
:1016A000CF93DF93CDB7DEB764970FB6F894DEBF64
:1016B0000FBECDBF7C010FDD80EC06DDC70144DD30
:1016C0006AE070E080E090E074DB8E010F5F1F4FF6
:1016D0008EE0F80111928A95E9F72EE0A80160E307
:1016E000C701C1DD2EE0A80160E4C701BCDD2EE02A
:1016F000A80160E5C701B7DD40E060E6C7019FDDF6
:1017000040E060E7C7019BDD43EA6BE2C70197DD7C
:1017100024E047E660E6C701CCDD21E047E660E76C
:10172000C701C7DD86E0E1E0F2E0DE011F9601902F
:101730000D928A95E1F75E01FFE0AF0EB11CC12C5E
:10174000D12CF50161915F0141E0F1E0CF16D104A8
:1017500009F040E000E010E09801C7013CDF811192
:1017600017C08FEFC81AD80AE6E0CE16D10449F7A1
:1017700000E010E0980141E060E0C701EADE81117D
:1017800007C000E010E0980141E061E0C701E1DE40
:1017900064960FB6F894DEBF0FBECDBFDF91CF9138
:1017A0001F910F91FF90EF90DF90CF90BF90AF907F
:1017B00008954F925F926F927F92AF92BF92CF92B5
:1017C000DF92EF92FF920F931F93CF93DF93CDB7EA
:1017D000DEB72D970FB6F894DEBF0FBECDBF5C010C
:1017E000FA012481293008F057C0E62EF12C8081BF
:1017F0009181A281B381AC01BD01442777FD43955E
:101800005527662777272C013D014424552466245B
:1018100020E47222B7FD05C00FEF17E020E030E0B2
:1018200004C00FEF1FEF2FEF3FE16F0108231923D3
:101830002A233B23BE016F5F7F4FC5015FDEF601A8
:101840001481812F45284628472809F080648D831C
:10185000412F50E0B601685F7F4FCE010696FBD264
:1018600025E0210F8701000F111F0E0D1F1D0953C9
:101870001D4FAE014F5F5F4FF8016181C501F3DC81
:10188000F801108128E048E0612FC50112DD612FC9
:10189000C5019ADC807709F084E02D960FB6F894A4
:1018A000DEBF0FBECDBFDF91CF911F910F91FF9093
:1018B000EF90DF90CF90BF90AF907F906F905F9050
:1018C0004F9008959F92AF92BF92CF92DF92EF9286
:1018D000FF920F931F93CF93DF9300D0CDB7DEB766
:1018E000FB0124812930D8F57B018C01809107020E
:1018F00090910802A091090289839A83AB83CE015B
:1019000001966C015E0194E0A90EB11CF601919064
:101910006F01292D30E0F901EE0FFF1F2E0F3F1F41
:10192000F901E953FD4F6081C8014EDC83FD12C00F
:10193000A701692DC8010F900F900F90DF91CF91F3
:101940001F910F91FF90EF90DF90CF90BF90AF90DD
:101950009F902FCFCA14DB04C9F682E001C084E057
:101960000F900F900F90DF91CF911F910F91FF90EB
:10197000EF90DF90CF90BF90AF909F9008957F92AF
:101980008F929F92AF92BF92CF92DF92EF92FF928F
:101990000F931F93CF93DF9300D01F921F92CDB769
:1019A000DEB74C015A0124E0629F80011124F80146
:1019B000E154FD4F25E0AE014F5F5F4F618118DCC0
:1019C0008A819981C82ED12C45E0D594C7944A9537
:1019D000E1F7E8E09E9FC00CD11C11240D2C000CF7
:1019E000EE08FF0883FF20C092E0CC0CDD1CEE1C4B
:1019F000FF1C9A95D1F78370C80ED11CE11CF11C15
:101A0000FE2CED2CDC2CCC248B81C80ED11CE11CCF
:101A1000F11CFE2CED2CDC2CCC248C81C80ED11CAE
:101A2000E11CF11C6894F7F88D818F70782EF8E036
:101A3000F81710F1F801E154FD4F6081C401C4DBD7
:101A400083FF02C06894F6F8F501C082D182E28279
:101A5000F3827482A501485F5F4F01541D4F272D0B
:101A6000F8016281C401C4DB20E0F80143816CE22B
:101A7000C4011FDC80E001C081E00F900F900F9047
:101A80000F900F90DF91CF911F910F91FF90EF90EA
:101A9000DF90CF90BF90AF909F908F907F900895F0
:101AA0000F931F93CF93DF93EC018B011BDC80FF1F
:101AB00003C0A80160E004C081FF08C0A80161E084
:101AC000CE01DF91CF911F910F9159CF85E0DF912A
:101AD000CF911F910F910895CF93DF93EC0160E0B8
:101AE0008E81C4DA81E090E09ED961E08E81BEDA19
:101AF00081E090E098D960E08E81B8DA84E690E0E9
:101B0000DF91CF9190C9CF92DF92EF92FF920F9326
:101B10001F93CF93DF936C017C0187E0E80EF11CEB
:101B2000C0E0D0E0062F10E0B8010C2E02C0759581
:101B300067950A94E2F76170F70181917F0196DA67
:101B40002196C430D10581F7C601DF91CF911F9155
:101B50000F91FF90EF90DF90CF90BECFCF92DF92AA
:101B6000EF92FF920F931F93CF93DF936C017C0151
:101B700087E0E80EF11CC0E0D0E0062F10E0B801CD
:101B80000C2E02C0759567950A94E2F76170F70113
:101B900081917F016BDA2196C830D10581F7C601AA
:101BA000DF91CF911F910F91FF90EF90DF90CF9039
:101BB00093CF1F93CF93DF93EC01162F642F8C816B
:101BC00055DA8D818F3F11F060E050DA8F85612FFB
:101BD00084FF05C0CE01DF91CF911F91BFCF70E090
:101BE00084E0759567958A95E1F7CE018CDF612FCA
:101BF000CE01DF91CF911F9186CF40E0DACF61E037
:101C0000FCDF80ED97E00FC9FC01443008F043E0B1
:101C10008389481710F04FEF480FDF01A40FB11D63
:101C200054969C91690F6068CF01E7CFFC016089F1
:101C3000262F2460208B6C60E0CFEF92FF920F93F1
:101C40001F93CF93DF93EC01423018F08F858860AB
:101C50008F874B8B1C8A80E48D8B6E8B70E0605C71
:101C60007F4F6F8B222329F0413019F48F858460D8
:101C70008F8761E08C81BED98D818F3F11F061E04B
:101C8000B9D961E08E81B6D97E0187E0E80EF11CFA
:101C900000E010E08F8584FD03C084E090E002C086
:101CA00088E090E00817190744F461E0F70181919A
:101CB0007F01A0D90F5F1F4FEDCF80E593ECB3D824
:101CC00060E08C81D3D960E08E81D0D98D818F3F47
:101CD00011F060E0CBD96F8564FD16C063E0CE01E2
:101CE00012DF84E991E19FD863E0CE010CDF84E943
:101CF00091E199D863E0CE0106DF86E990E093D8C0
:101D000062E0CE0100DF11C06062CE0176DF84E9BF
:101D100091E189D86F856062CE016FDF86E990E03E
:101D200082D86F856062CE0168DF6F856062CE0108
:101D300064DF84E0888BCE0179DFCE0160DF82E052
:101D4000898B66E0CE01DF91CF911F910F91FF90BB
:101D5000EF9053CFCF92EF920F93FC011382128238
:101D600084ED92E09183808364838FEF8583468343
:101D700027830087E186C286138614861586168619
:101D8000178620E041E060E1CF010F91EF90CF9006
:101D900054CF41E00EDF81E090E00895CF93CFB7BC
:101DA000F8948091D103811123C0E1E2F2E08491A3
:101DB000EBEDF1E09491E82FF0E0EE0FFF1FE45B14
:101DC000FD4FA591B491EC91E92319F461E085E30D
:101DD0004DD961E085E30ED98CB580618CBD8CB5A1
:101DE00080648CBD61E084E305D961E083E302D9BE
:101DF0008091D1038F5F8093D103CFBFCF9108959E
:101E00000895A1E21A2EAA1BBB1BFD010DC0AA1F3B
:101E1000BB1FEE1FFF1FA217B307E407F50720F053
:101E2000A21BB30BE40BF50B661F771F881F991FCE
:101E30001A9469F760957095809590959B01AC0117
:101E4000BD01CF010895EE0FFF1F881F8BBF0790C4
:101E5000F691E02D1994FB01DC0102C001900D9276
:0C1E600041505040D8F70895F894FFCF8F
:101E6C00010001020304050001023C2047524144D9
:101E7C002050524F4A454354203E0048454C574150
:101E8C004E204543452020323032330057414954CF
:101E9C00494E47202E2E2E005354415445202020CD
:101EAC0020203A2049444C45005350454544284B8A
:101EBC004D48293A2000534F5320545249473A2059
:101ECC004155544F00534F5320545249473A204DDB
:101EDC00414E55414C004F56455220484552452ED7
:101EEC00004F56455220484552452E2E0053544122
:101EFC0054452020203A20414354495645000000C7
:101F0C0000003B04B105CE038704A003BA03AC0365
:101F1C000D0A006E616E00696E66006F7666006079
:101F2C00616601707176023031364041465051562F
:0C1F3C0000000000C90EB1050D051005E5
:00000001FF
