S00E00004543555F52542E7372656334
S11300005BC2000089C2000087C2000085C20000F4
S113001083C2000081C200007FC200007DC20000D4
S11300207BC2000079C2000077C2000075C20000E4
S11300300C94671771C200006FC200006DC200000B
S11300406BC2000069C2000067C2000065C2000004
S113005063C2000061C200005FC2000012C500005C
S11300605BC2000059C2000057C2000055C2000024
S113007053C2000051C200004FC200004DC2000034
S11300804BC2000049C2000047C2000045C2000044
S113009043C2000041C200003FC200003DC2000054
S11300A03BC2000039C2000037C2000035C2000064
S11300B033C2000031C200002FC200002DC2000074
S11300C02BC2000029C2000027C2000025C2000084
S11300D023C2000021C200001FC200001DC2000094
S11300E01BC2000035049A043A0443044B049A04E6
S11300F0D10473067606650669066F06AD067A06B0
S11301007E06840688068C06920696069A06AD0636
S1130110A006A406A8063E09B0084209B308B6081A
S1130120BA08BD08C0083C093C09C308C608C90888
S1130130CC08CF08D2084609E208E5083C09E908DA
S1130140ED08F008F308F608F9082909FC08FF0887
S11301500209050908094A0918091B091F09220986
S11301603C09260929092D093109350939091002E3
S1130170100257023E0251021002100257023E02C0
S113018000000A0B02090C0D0E080703040100000D
S1130190000000000000000000000000000000005B
S11301A00000000000000000000000001211100018
S11301B0000000000000000000000000000000003B
S11301C00000000000000102102020080810204058
S11301D01020408002010201080402010102040807
S11301E01020408080402010080402018004020195
S11301F080402010080402010804020101020408DE
S113020010204080010204081020408005050505E7
S1130210070508080808020202020A0A080804047A
S113022004040101010101010101030303030303A8
S11302300303040707070C0C0C0C0C0C0C0C020237
S1130240020206060606060606060B0B0B0B0B0B34
S11302500B0B000020002300260029002C002F0097
S11302603200000100000301060109010000220020
S1130270250028002B002E0031003400020100006C
S1130280050108010B0100002100240027002A00B9
S11302902D003000330001010000040107010A01B0
S11302A08091C0038823E9F00FB6F8940F92E0918F
S11302B0C603F091C703C681D781CE0102960E947E
S11302C02B168091B60381508093B6038091C003AE
S11302D081508093C0030F900FBECE010E94EC0E9C
S11302E0DFCF8091E903823010F00E9466160E94ED
S11302F06215D6CFCF93DF9300D01F921F92CDB754
S1130300DEB7E0916904F0916A04D080DD2031F019
S11303100580F681E02D0081118102C000E010E02B
S11303200E94FF0F0E9405107C018091610490914E
S11303306204E816F90620F40E947D1481E001C0ED
S113034080E0F0926204E0926104811124C0DD2017
S113035051F0E016F10670F00E941811B701C801BF
S11303600E9455141EC0E0916704F09168048081D6
S113037041E0811140E0B8016E197F098091650464
S1130380909166040E94C30D0E941811811109C046
S11303900E94661606C00E94181103C0898187FF57
S11303A00EC040E050E0BE016F5F7F4F8091650456
S11303B0909166040E943F0D8111F0CFA2CF0C8171
S11303C01D81D8011A968D919C911B97892B21F040
S11303D0C80102960E942B160E9405107C01809190
S11303E0610490916204E816F90610F40E947D14E9
S11303F0F0926204E0926104E9818E2FEE0F990B72
S1130400AA0BBB0BFC013197E930F10550F6D8017A
S113041052969C918827E954FF4F8F4F0C9469178B
S11304209160F801928B2A813B8164857585620F06
S1130430731FA701C8010E940914882309F4B1CFCE
S1130440D80152968C91529782FF0DC06A817B81AC
S11304501C968D919C911D97680F791FA701C80167
S11304600E94321403C08E7FF801828BD80150960B
S1130470ED91FC915197C801199593CF9160D801E2
S113048052969C9352976A817B811D967C936E93BE
S11304901C976E0D7F1D9701A701C8010E940914C6
S11304A080CF91FD04C0C8010E94D3157ACF9E7FEE
S11304B0F801928B76CF050311241FBECFEFD1E252
S11304C0DEBFCDBF00E00CBF12E0A0E0B2E0E8E484
S11304D0F1E300E00BBF02C007900D92AC33B1070B
S11304E0D9F725E0ACE3B2E001C01D92AD3EB207FE
S11304F0E1F712E0CCE5D2E000E006C02197010963
S1130500802FFE010E946917CB35D10780E00807D0
S1130510A9F7ABD20C94A21873CD61E089E21ED482
S113052061E08CE21BD461E08AE218D461E08DE2E0
S113053015D462E080E312D48DE392E089D742E0DF
S11305406BE08DE392E0EED58DE392E0E9C561E0E6
S11305508CE240C460E08CE23DC461E08AE23AC4CB
S113056060E08AE237C461E089E234C460E089E291
S113057031C461E08DE22EC460E08DE22BC480E3DF
S113058057C4BC018DE392E00E944A0B21E030E0A5
S1130590882311F020E030E0C9010895CF93DF9360
S11305A01F92CDB7DEB71982EADF20913C022130D9
S11305B019F118F0223081F021C08130910561F4E5
S11305C0AE014F5F5F4F64E172E08091060290914B
S11305D00702B2D082E00DC0892B81F4AE014F5FD7
S11305E05F4F62E172E08091060290910702A4D00D
S11305F081E080933C0202C0019711F3CE01019681
S1130600DDD00F90DF91CF9108950F931F9300E0F9
S113061010E020E836E948E950E061E38DE392E038
S113062084D41F910F910895CF93DF931F921F924B
S1130630CDB7DEB78C017C018DE4E80EF11CD70147
S1130640ED91FC916CE172E0C80119954FEF5FEFF9
S1130650BE016F5F7F4FF80183A594A50E943F0DF3
S113066069817A81D701ED91FC91EECF835B9F4F35
S1130670FC017183608308954F925F926F927F9221
S11306808F929F92AF92BF92CF92DF92EF92FF929E
S11306900F931F93CF93DF93CDB7DEB74C01162F83
S11306A0802F250136019401235D3F4F00E062E075
S11306B00E94600CF40194A783A76401F2E0CF0EBA
S11306C0D11C012F9401A20166E172E084E193E060
S11306D00E94800FF40191838083DF91CF911F9159
S11306E00F91FF90EF90DF90CF90BF90AF909F90CD
S11306F08F907F906F905F904F900895CF93DF938A
S11307001F921F92CDB7DEB77A83698320E040E061
S113071050E0BE016F5F7F4FFC0183A594A50E944A
S1130720840C0F900F90DF91CF9108950697BC0130
S1130730FC0182819381E2CFCF93DF931F921F92BA
S1130740CDB7DEB77A83698320E0BE016F5F7F4F48
S1130750FC0183A594A50E940E0D0F900F90DF91CC
S1130760CF910895EF92FF920F931F93CF93DF934E
S1130770EC01798368835B834A837C0186E0E80E1D
S1130780F11C06E913E09E01498D61E070E089E106
S113079092E00E94DE149D838C83DF91CF911F91A0
S11307A00F91FF90EF900895FC0171836083538350
S11307B0428390934502809344020895CF93DF933C
S11307C0EC0180914402909145020496DADE01978F
S11307D059F4E0914402F0914502AE01BF018281D7
S11307E09381DF91CF91A8CFDF91CF9108950F939B
S11307F01F9324E076956795579547952A95D1F7E9
S11308004115510511F441E050E000E010E020E012
S113081030E064E0FC01848195810E9414151F91ED
S11308200F9108950F931F9300E010E020E030E053
S113083040E050E063E0FC01848195810E9414153E
S11308401F910F9108950F931F93CF93DF93DB01B3
S1130850ED91FC91E730F10508F0ADC0EC0188277B
S1130860EE58FF4F8F4F0C946917DF91CF911F9172
S11308700F9179CEC258DF4F81E08883DF91CF9109
S11308801F910F916ACEC258DF4F1882DF91CF912A
S11308901F910F9165CEFE01E359FF4F8081918135
S11308A0A281B3814197A105B10509F084C03496B2
S11308B08081813009F07FC059DE49DEFE01E158B4
S11308C0FF4F1182108232971082389780818130D5
S11308D081F43C968AEF90E09183808332969183F1
S11308E0808332968CE090E09183808364E272E0AE
S11308F015C08230C9F4FE01EF57FF4F84EF91E039
S11309009183808332968CED95E091838083329637
S113091083E090E09183808362E272E0CE01DF9114
S1130920CF911F910F91EACE833009F044C060E269
S113093072E0F4CF8E0103581F4FF80180818111BA
S11309401CC0329680819181019691838083369672
S113095020813181281739071CF46EE172E0DECF63
S1130960FE01E258FF4F8081811103DE81E0D8014E
S11309708C93FE01EF57FF4F06C0FEDDF801108295
S1130980FE01ED57FF4F40815181052E000C660B8F
S1130990770BCE01815B9F4FDF91CF911F910F9118
S11309A026CFCE01815B9F4F3DDFDDDDD3DDE4DD6E
S11309B0C358DF4F1882DF91CF911F910F91089593
S11309C0CF93DF93EC0163E274E050DEFE01E8595B
S11309D0FF4F1082AE0161E070E0CE01815B9F4F5A
S11309E0C1DEFE01E358FF4F10823196108231962A
S11309F011821082AE0164E070E0CE0187599F4FEE
S1130A00DF91CF91D1CE8F929F92AF92BF92CF922E
S1130A10DF92EF92FF920F931F937FDD86E492E0C3
S1130A20CFDF812C912C80ECA82EB12CC12CD12CA1
S1130A3091EEE92E92E0F92E0AE010E020E030E099
S1130A404DEC52E061E0809106029091070214DEC1
S1130A501F910F91FF90EF90DF90CF90BF90AF90D8
S1130A609F908F900C94B60F0895C0D00E94521599
S1130A70CADFC0E0D0E0F8DF2097E9F30E9400006D
S1130A80FACF1F920F920FB60F9211242F933F9318
S1130A908F939F93AF93BF938091A2039091A303ED
S1130AA0A091A403B091A5033091A10323E0230FE7
S1130AB02D3720F40196A11DB11D05C026E8230F92
S1130AC00296A11DB11D2093A1038093A2039093CC
S1130AD0A303A093A403B093A5038091A6039091CC
S1130AE0A703A091A803B091A9030196A11DB11D6C
S1130AF08093A6039093A703A093A803B093A9039C
S1130B00BF91AF919F918F913F912F910F900FBE05
S1130B100F901F9018952FB7F8946091A2037091CD
S1130B20A3038091A4039091A5032FBF08953FB719
S1130B30F8948091A6039091A703A091A803B09183
S1130B40A90326B5A89B05C02F3F19F00196A11D46
S1130B50B11D3FBFBA2FA92F982F8827820F911D4F
S1130B60A11DB11DBC01CD0142E0660F771F881F96
S1130B70991F4A95D1F708958F929F92AF92BF9291
S1130B80CF92DF92EF92FF926B017C01D0DF4B0199
S1130B905C01C114D104E104F104F9F00E94D215FE
S1130BA0C6DFDC01CB0188199909AA09BB09883E73
S1130BB09340A105B10568F321E0C21AD108E10808
S1130BC0F10888EE880E83E0981EA11CB11CC114A4
S1130BD0D104E104F10421F7DCCFFF90EF90DF9022
S1130BE0CF90BF90AF909F908F900895789484B5E4
S1130BF0826084BD84B5816084BD85B5826085BD15
S1130C0085B5816085BDEEE6F0E0808181608083FA
S1130C10E1E8F0E0108280818260808380818160DD
S1130C208083E0E8F0E0808181608083E1EBF0E0A4
S1130C30808184608083E0EBF0E080818160808348
S1130C40E1E9F0E08081826080838081816080833B
S1130C50E0E9F0E0808181608083E1EAF0E0808176
S1130C6082608083808181608083E0EAF0E080811B
S1130C7081608083E1E2F1E0808182608083808111
S1130C8081608083E0E2F1E0808181608083EAE733
S1130C90F0E08081846080838081826080838081B1
S1130CA0816080838081806880831092C100089570
S1130CB090E0FC013197E231F10508F04EC088273D
S1130CC0E758FF4F8F4F0C946917809180008F77FE
S1130CD003C0809180008F7D80938000089580916F
S1130CE08000877FF9CF84B58F7702C084B58F7D6C
S1130CF084BD08958091B0008F7703C08091B000C7
S1130D008F7D8093B0000895809190008F7707C005
S1130D10809190008F7D03C080919000877F8093A5
S1130D20900008958091A0008F7707C08091A00063
S1130D308F7D03C08091A000877F8093A0000895D9
S1130D40809120018F7707C0809120018F7D03C09F
S1130D5080912001877F809320010895CF93DF93B2
S1130D6090E0FC01EA53FE4F2491FC01E45FFD4F47
S1130D708491882361F190E0880F991FFC01EA5760
S1130D80FD4FC591D491FC01E459FD4FA591B49157
S1130D90611109C09FB7F8948881209582238883C4
S1130DA0EC912E230BC0623061F49FB7F8948881D4
S1130DB0322F309583238883EC912E2B2C939FBF65
S1130DC006C08FB7F894E8812E2B28838FBFDF915C
S1130DD0CF9108951F93CF93DF93282F30E0F9012B
S1130DE0E058FE4F8491F901EA53FE4FD491F90182
S1130DF0E45FFD4FC491CC23B9F0162F811158DF65
S1130E00EC2FF0E0EE0FFF1FE459FD4FA591B491D4
S1130E109FB7F894111104C08C91D095D82302C0C7
S1130E20EC91DE2BDC939FBFDF91CF911F9108954E
S1130E30CF93DF93282F30E0F901E058FE4F8491DF
S1130E40F901EA53FE4FD491F901E45FFD4FC491D7
S1130E50CC2389F081112CDFEC2FF0E0EE0FFF1F83
S1130E60EE5AFD4FA591B491EC91ED2381E090E011
S1130E7021F480E002C080E090E0DF91CF910895FA
S1130E808EBD00000DB407FEFDCF8EB50895FC01A4
S1130E90418152816381748180E092E1AAE7B0E0EC
S1130EA020E0481759076A077B0740F4B695A795D1
S1130EB0979587952F5F2630A1F727E091E0922739
S1130EC0292F206A269591708091E605882399F050
S1130ED08FB7F8943091E605313059F43DB330932F
S1130EE0E4054DB33091E505309534233DBB8FBF08
S1130EF002C08093E4052CBD9DBD60E080816ACF73
S1130F0061E0FC01808166DF8091E605882361F061
S1130F109FB7F8942091E6058091E405213019F4F7
S1130F208DBB9FBF08958FBF08958F929F92AF92FC
S1130F30BF92FF920F931F93CF93DF93EC01F62E92
S1130F4049015A010115110519F01E830D8306C0CC
S1130F5088EE95E09E838D830E949C15F882898299
S1130F609A82AB82BC8261E08F2DF8DECE01DF91E4
S1130F70CF911F910F91FF90BF90AF909F908F9052
S1130F80BFCF1F93CF93DF93EC01162F80DF83E055
S1130F9077DF812F75DF80E073DF182FCE01B0DF9C
S1130FA0812FDF91CF911F910895DF92EF92FF92ED
S1130FB00F931F93CF93DF938C01C62FD42EE52E6E
S1130FC0F22E65DF83E05CDF8C2F5ADFCD2DDE2D22
S1130FD0CE018F0D911D7C01CE15DF0521F080E03F
S1130FE04FDF8993F9CFC801DF91CF911F910F9102
S1130FF0FF90EF90DF9084CF0F931F93CF93DF93F5
S1131000EC01062F142F43DF82E03ADF802F38DF14
S1131010812F36DFCE01DF91CF911F910F9170CFD9
S1131020DF92EF92FF920F931F93CF93DF938C0184
S1131030C62FD42EE52EF22E2ADF82E021DF8C2F5C
S11310401FDFCD2DDE2DCE018F0D911D7C01CE1520
S1131050DF0519F0899114DFFACFC801DF91CF9130
S11310601F910F91FF90EF90DF904ACFFF920F9363
S11310701F93CF93DF93EC01F62E042F122F07DF7B
S113108085E0FEDE8F2DFCDE802FFADE812FF8DE78
S1131090CE01DF91CF911F910F91FF9031CF1F931C
S11310A0CF93DF93EC01F3DE80EAEADE80E0E8DE52
S11310B0182FCE0125DF812FDF91CF911F91089545
S11310C0CF92DF92EF92FF921F93CF93DF93EC01C5
S11310D0162F262F40EE6FE0C9DF1DDD6B017C016A
S11310E02AE0C20ED11CE11CF11C15DD6C157D0536
S11310F08E059F0540F46EE0CE0143DF807E181319
S1131100F4CF81E001C080E091E08927DF91CF91A5
S11311101F91FF90EF90DF90CF90089560E8D0CFBB
S113112060E0CECF0F931F93CF93DF938C01C62F34
S1131130D42FF4DF8111BDC0D130B9F108F46BC0F4
S1131140D23009F099C08C2F90E08031910508F0DD
S113115093C0FC018827E557FF4F8F4F0C94691704
S1131160C7E8DFEB34C0C4E8D4EA8EC0C5E8D2EEE9
S113117047E493C0C7E8DFEB6EC0C6E8D4EB6BC0AE
S1131180C7E8DFEB6CC0C6E8D4EB69C0C5E8D1EBB7
S113119066C0C6E8D4EB6BC0C5E8D1EB68C0C2E852
S11311A0D0E965C0C0E8D0E862C08C2F90E08031FF
S11311B0910508F061C0FC018827E556FF4F8F4F69
S11311C00C946917C7E8DFEF5BC0C7E8DFEF4FE0B7
S11311D064C0C5E8D1EF4EE460C0C7E8DFEF54C097
S11311E0C7E8DAEF51C0C7E8DFEF35C0C7E0DEEB90
S11311F032C0C7E0DDEA2FC0C6E8D0EF2CC0C7E894
S1131200DAEF2DC0C5E8D1EF2EC0C6E8D0EF2FC06D
S1131210C2E8D0ED2CC08C2F90E0FC013497EC3068
S1131220F10550F58827E555FF4F8F4F0C9469174A
S1131230C7E8DFEF02C0C7E8DAEF49E02EC0C7E82D
S1131240DFEF02C0C7E8DEEF44E027C0C7E8DAEF0B
S1131250FBCFC7E8DAEF43E020C0C7E8DFEF41E0A7
S11312601CC0C6E8DBEF41E418C0C7E8DAEF40E091
S113127014C0C2E8D9EDFBCF81E01BC0C7E8DFEBA7
S11312804FE10BC0C7E8DFEB47E007C0C7E8DFEF7B
S11312904FE303C0C7E8DFEF4BE06AE2C801ACDE0E
S11312A04D2F69E2C801A8DE4C2F68E2C801A4DE14
S11312B080E0DF91CF911F910F9108950F931F93B9
S11312C0FB014423B1F003831283890122273327CE
S11312D0902F9C71802F837048E0949F800D11247F
S11312E08860818355E0169507955A95E1F7008348
S11312F00DC0C80123E0969587952A95E1F7808370
S11313000295000F007E0183138212821F910F91B8
S113131008958F929F92AF92BF92CF92DF92EF92F5
S1131320FF920F931F93CF93DF9300D01F92CDB7FB
S1131330DEB77C01D62EC42E48015901EFDE81119F
S113134019C0950184014C2DBE016F5F7F4FC70109
S1131350B5DFDD2029F081E0D8120BC064E201C0C2
S113136060E224E0AE014F5F5F4FC70159DE80E0C9
S113137001C081E00F900F900F900F90DF91CF91FB
S11313801F910F91FF90EF90DF90CF90BF90AF909F
S11313909F908F9008958F929F92AF92BF92CF9219
S11313A0DF92EF92FF920F931F93CF93DF9300D0BE
S11313B01F92CDB7DEB76C01F62EE42E4801590119
S11313C0ADDE811134C082E0F816A9F08F1540F02B
S11313D0FF20D1F081E0F81229C044E0F42E15C0BA
S11313E084E0F81671F0F81648F085E0F8121EC093
S11313F088E1F82E0AC038E0F32E07C020E1F22E6F
S113140004C094E1F92E01C0F12C950184014E2D04
S1131410BE016F5F7F4FC60151DF24E0AE014F5F15
S11314205F4F6F2DC601FCDD80E001C081E00F90AD
S11314300F900F900F90DF91CF911F910F91FF901C
S1131440EF90DF90CF90BF90AF909F908F900895D2
S1131450AF92BF92CF92DF92EF92FF920F931F93BE
S1131460CF93DF93CDB7DEB764970FB6F894DEBFA2
S11314700FBECDBF7C010BDD80EC02DDC70140DD7A
S11314806AE070E080E090E077DB8E010F5F1F4F31
S11314908EE0F80111928A95E9F72EE0A80160E345
S11314A0C701BEDD2EE0A80160E4C701B9DD2EE06E
S11314B0A80160E5C701B4DD40E060E6C7019CDD3A
S11314C040E060E7C70198DD43EA6BE2C70194DDC1
S11314D024E047E660E6C701C9DD21E047E660E7AE
S11314E0C701C4DD86E0E9E0F2E0DE011F96019069
S11314F00D928A95E1F75E01FFE0AF0EB11CC12C9D
S1131500D12CF50161915F0141E0F1E0CF16D104E6
S113151009F040E000E010E09801C7013CDF8111D0
S113152017C08FEFC81AD80AE6E0CE16D10449F7DF
S113153000E010E0980141E060E0C701EADE8111BB
S113154007C000E010E0980141E061E0C701E1DE7E
S113155064960FB6F894DEBF0FBECDBFDF91CF9176
S11315601F910F91FF90EF90DF90CF90BF90AF90BD
S113157008957F928F929F92AF92BF92CF92DF9203
S1131580EF92FF920F931F93CF93DF9300D01F929C
S11315901F92CDB7DEB74C015A0124E0629F80014F
S11315A01124F801EA5DFD4F25E0AE014F5F5F4F66
S11315B06181FBDC8A819981C82ED12C45E0D594C8
S11315C0C7944A95E1F7E8E09E9FC00CD11C112412
S11315D00D2C000CEE08FF0883FF20C092E0CC0C19
S11315E0DD1CEE1CFF1C9A95D1F78370C80ED11C2C
S11315F0E11CF11CFE2CED2CDC2CCC248B81C80EC0
S1131600D11CE11CF11CFE2CED2CDC2CCC248C8197
S1131610C80ED11CE11CF11C6894F7F88D818F7001
S1131620782EF8E0F81710F1F801EA5DFD4F6081BB
S1131630C401A7DC83FF02C06894F6F8F501C082F8
S1131640D182E282F3827482A501485F5F4F0A5D12
S11316501D4F272DF8016281C401A7DC20E0F801A9
S113166043816CE2C40102DD80E001C081E00F909F
S11316700F900F900F900F90DF91CF911F910F91CA
S1131680FF90EF90DF90CF90BF90AF909F908F909E
S11316907F9008950F931F93CF93DF93EC018B01F9
S11316A0FEDC80FF03C0A80160E004C081FF08C025
S11316B0A80161E0CE01DF91CF911F910F9159CF25
S11316C085E0DF91CF911F910F9108950FB6F894A3
S11316D00F92FC01928D0F900FBE81E0911180E07A
S11316E008950F931F93CF93DF93EC01042F1A8D6A
S11316F04C8D41110BC088819981892BE9F58C812E
S11317009D810E948C131D821C8237C050E0011100
S113171015C08A819B810E9492182C8D8A819B819D
S1131720820F911D9B838A832C813D8182179307AD
S113173018F1888199819B838A831EC08E819F8141
S11317400E9492188C8D90E09195819591092E813B
S11317503F81280F391F3F832E83488159812417E5
S1131760350730F42C813D81820F931F9F838E8334
S1131770023011F41111115080E01F5F1A8FDF91B4
S1131780CF911F910F910895FC01CB01448D442307
S1131790A1F050E026813781240F351F378326833B
S11317A0648175812617370720F0208131813783C2
S11317B02683668177810C9492180895EF92FF92A4
S11317C01F93CF93DF93EC010FB6F8940F921E8D05
S11317D07C0181E1E80EF11C11164CF489898823FF
S11317E031F0C7019FD6811185D71150F5CF8FEF06
S11317F08E8F0F900FBE0FB6F8940F921D8D7E0141
S113180088E0E80EF11C11164CF48885882331F029
S1131810C70188D681116ED71150F5CF8FEF8D8F08
S11318200F900FBEDF91CF911F91FF90EF9008951D
S1131830CF93DF93009709F43FC0FC01238D22234B
S113184009F43AC0EC010FB6F8940F92408151812B
S1131850838D748D9A01879F200D311D112435834A
S11318602483128E5383428390E00197789F9001E2
S1131870799F300D1124CA01820F931F97838683A9
S11318808FEF858F868F61110BC08085882381F04F
S1131890CF01089647D6882359F00E94661608C0DF
S11318A0CF0108960E94E115CE0141960E94E115F0
S11318B00F900FBE81E001C080E0DF91CF910895C9
S11318C0CF93DF93E9018823C9F02097C9F041152C
S11318D0510519F0611103C011C061110FC091E0ED
S11318E09F8F611103C0D983C88302C05983488381
S11318F08B8F6C8F61E0CE019BDF02C0C0E0D0E033
S1131900CE01DF91CF910895AF92BF92CF92DF9233
S1131910FF920F931F93CF93DF9300D01F921F92D8
S1131920CDB7DEB78C016B015D834C83F22E80E072
S1131930580198E0A90EB11C0FB6F8940F92F80163
S1131940228D938D291718F0F2E0FF1212C04F2D4B
S1131950B601C801C6DEF8019189992319F0C801BE
S11319604196E0D581110E9466160F900FBE81E06A
S113197046C02C813D81232B19F40F900FBE3EC02D
S1131980811103C0CE01019679D60F900FBE37D3D3
S11319900FB6F8940F92F801858D8F3F09F4158ED8
S11319A0F801868D8F3F09F4168E0F900FBEBE018D
S11319B06C5F7F4FCE0101966CD681111CC00FB6AF
S11319C0F8940F92F801928D838D0F900FBE9813A7
S11319D00EC06C817D81C5014FD5C801EFDE28D4CE
S11319E0882311F081E0A8CF0E946616FBCFC801BE
S11319F0E5DE1ED4F7CFC801E1DE1AD480E00F90F3
S1131A000F900F900F900F90DF91CF911F910F9136
S1131A10FF90DF90CF90BF90AF900895EF92FF9228
S1131A201F93CF93DF93EC019A8D8B8D981710F051
S1131A302230F1F47A011E8D8A8D422FCE0151DEBF
S1131A401F3F79F48989882389F0CE0141966AD5AC
S1131A50882361F0E114F10449F081E0F701808307
S1131A6008C0DDD2181710F41F5F1E8F81E001C07B
S1131A7080E0DF91CF911F91FF90EF900895AF9296
S1131A80BF92CF92DF92FF920F931F93CF93DF9376
S1131A9000D01F921F92CDB7DEB78C016B015D831E
S1131AA04C8380E0580191E1A90EB11C0FB6F89463
S1131AB00F92F801F28CFF2099F0B601C80164DEA0
S1131AC0FA94F801F28E8085882331F0C8010896D3
S1131AD029D581110E9466160F900FBE81E044C083
S1131AE02C813D81232B19F40F900FBE3CC0811132
S1131AF003C0CE010196C2D50F900FBE80D20FB69F
S1131B00F8940F92F801858D8F3F09F4158EF80132
S1131B10868D8F3F09F4168E0F900FBEBE016C5F49
S1131B207F4FCE010196B5D5811116C0C801CEDD17
S1131B30882371F06C817D81C5019ED4C8013EDE8D
S1131B4077D3882311F081E0B1CF0E946616FBCFD2
S1131B50C80134DE6DD3F7CFC80130DE69D3C801C4
S1131B60B5DD882381F380E00F900F900F900F90E4
S1131B700F90DF91CF911F910F91FF90DF90CF9045
S1131B80BF90AF900895CF93DF93EC010FB6F89414
S1131B900F928D8D8F3F09F41D8E8E8D8F3F09F42A
S1131BA01E8E0F900FBE8A8D811103C0CE01419607
S1131BB072D4CE01DF91CF9101CECF93DF93EC01AC
S1131BC00FB6F8940F928091B6038F5F8093B6039B
S1131BD080910D0490910E04892B89F5D0930E0405
S1131BE0C0930D048091B603813009F038C089EEAA
S1131BF093E0E7D782EF93E0E4D78BEF93E0E1D76C
S1131C0084E094E0DED780EE93E0DBD787ED93E0C9
S1131C10D8D78AEC93E0D5D781EC93E0D2D787EB81
S1131C2093E0CFD780EE93E09093D6038093D503CF
S1131C3087ED93E09093D4038093D30310C08091F5
S1131C40B20381110CC0E0910D04F0910E04968949
S1131C508E89891720F0D0930E04C0930D048091CF
S1131C60AD038F5F8093AD03EE898091B3038E172C
S1131C7010F4E093B30389E08E9FF0011124E7513F
S1131C80FC4F0180F281E02DFD83EC8324813581BA
S1131C903F832E83A481B5819E012E5F3F4F13960F
S1131CA03C932E93129735832483EE898E9FF00103
S1131CB01124E751FC4FFB87EA8780818F5F808383
S1131CC00F900FBE8091B203882349F0E0910D0478
S1131CD0F0910E0496898E89981708F4F7D7DF914E
S1131CE0CF910895E091D503F091D60380818111BD
S1131CF003C08FEF9FEF09C0E091D503F091D603A5
S1131D000580F681E02D808191819093AC038093CE
S1131D10AB0308956F927F928F929F92AF92BF927E
S1131D20CF92DF92EF92FF920F93CF93DF934C0108
S1131D30EB015A01390165EA70E0F6018789908D5B
S1131D400E949B18F1E0AF1AB108F6018789908DC3
S1131D50A80EB91E209771F07996CE010896DE017F
S1131D60299121932C91222319F0C817D907B9F787
S1131D70F60110A2043008F003E0F601068B01A37B
S1131D80C60102962CD7C6010C9629D7F601D18636
S1131D90C08684E090E0801B910995878487D38A6C
S1131DA0C28AA301B401C5017AD7F6019183808365
S1131DB0E114F10419F0F701D182C082DF91CF91CF
S1131DC00F91FF90EF90DF90CF90BF90AF909F90D6
S1131DD08F907F906F900895CF93DF93FC0120A59F
S1131DE0211106C0EC018789908DDDD6CE0102C099
S1131DF0213019F4DF91CF91D6C6DF91CF910895A8
S1131E00FF920F931F93CF93DF93EC01F62E009173
S1131E10B4031091B50380910D0490910E040296C1
S1131E201AD7CF3F8FEFD807C1F5FF20B1F1E0916A
S1131E30B803F091B903A0910D04B0910E04159666
S1131E40FC93EE931497A0910D04B0910E04848139
S1131E50958117969C938E93169780910D0490917B
S1131E600E04A481B581029613969C938E931297C7
S1131E7080910D0490910E04029695838483E091E1
S1131E800D04F0910E0487EB93E093878287809191
S1131E90B7038F5F8093B7032DC0C00FD11FE091AC
S1131EA00D04F0910E04D383C28360910D047091EC
S1131EB00E04C017D10760F48091D3039091D4032A
S1131EC06E5F7F4FDF91CF911F910F91FF908BC673
S1131ED08091D5039091D6036E5F7F4F84D6809115
S1131EE0AB039091AC03C817D90720F4D093AC038B
S1131EF0C093AB03DF91CF911F910F91FF90089591
S1131F00AF92BF92CF92DF92EF92FF920F93CF9353
S1131F10DF931F921F92CDB7DEB7C114D104C1F075
S1131F20E114F104A9F0E9E2D6011D92EA95E9F77A
S1131F30F601F08EE78AE2E0D6019896EC93FE0172
S1131F4031967F01E7DEC60138DE89819A8102C0BD
S1131F5080E090E00F900F90DF91CF910F91FF9070
S1131F60EF90DF90CF90BF90AF900895CF92DF9223
S1131F70EF92FF920F93CF93DF9300D000D0CDB7B1
S1131F80DEB71E821D821C821B82AE014F5F5F4F33
S1131F90BE016D5F7F4FCE010596AED5CD80DE804C
S1131FA0EB80FC8049815A8100E020E030E06EE261
S1131FB072E080E591E0A4DF892B89F0BBD4813005
S1131FC071F4F8942FEF3FEF3093AC032093AB03FD
S1131FD08093B2031092B5031092B40346D7809154
S1131FE0080226960FB6F894DEBF0FBECDBFDF9170
S1131FF0CF910F91FF90EF90DF90CF900895809153
S1132000AA038F5F8093AA0308950FB6F8940F92E2
S11320108091B4039091B5030F900FBE0895809101
S1132020B6030895DF92EF92FF920F931F93CF931D
S1132030DF938091AA038111E6C00091B40310914B
S1132040B5030F5F1F4F1093B5030093B40301153D
S11320501105B1F48091D5039091D6032091D30357
S11320603091D4033093D6032093D5039093D403B3
S11320708093D3038091AE038F5F8093AE0332DEEF
S11320808091AB039091AC03D12C0817190708F485
S11320909BC049E0E091D503F091D6038081811182
S11320A003C08FEF9FEF0FC0E091D503F091D603EB
S11320B00580F681E02D0680F781E02D82819381F1
S11320C00817190728F49093AC038093AB037CC0E2
S11320D0A285B3858481958126813781EC013D8376
S11320E02C8326813781E9019B838A83CF01029661
S11320F011966D917C9112976817790721F41296C5
S11321003C932E931197138612862C9121502C9375
S1132110A489B5891097F9F0268537856089718976
S1132120E9017D836C8360897189EB013B832A8398
S11321301196ED90FC9012979F01245F3F4FE21699
S1132140F30621F412967C936E931197158A148AE0
S11321502C9121502C93A6892091B3032A1710F4B3
S1132160A093B3034A9FD0011124A751BC4F1196E9
S11321700D90BC91A02DB583A48314962D913C9110
S113218015973783268314962D913C911597E90171
S11321909B838A8315969C938E9314979689499F63
S11321A0D0011124A751BC4FB387A2878C918F5FB4
S11321B08C93E0910D04F0910E048689891708F040
S11321C069CFDD24D39466CFE0910D04F0910E0421
S11321D0E689D9E0ED9FF0011124E751FC4F80819D
S11321E0823010F0DD24D3948091B0039091B10338
S11321F0892B11F40E94CE028091AF03882379F0D9
S1132200DD24D3940CC08091B0039091B103019666
S11322109093B1038093B0030E94CE02D12C8D2DF4
S1132220DF91CF911F910F91FF90EF90DF90089570
S1132230EF92FF920F931F93CF93DF930FB6F8940F
S11322400F928091AA0381508093AA038091AA03DC
S1132250882311F080E0ACC08091B6038823D1F3C9
S1132260E090CF03F090D003E0E0F0E039E041E00B
S11322708091CA03882309F480C0D7011696ED9192
S1132280FC911797A489B58966857785808991899A
S1132290EB019D838C8380899189EC017B836A8324
S11322A0BF01645F7F4F11960D911C911297061721
S11322B0170721F412969C938E931197158A148A0A
S11322C08C9181508C93A285B3858481958166819C
S11322D07781EC017D836C8366817781EB019B833D
S11322E08A83CF01029611960D911C9112970817BB
S11322F0190721F412967C936E9311971386128614
S11323002C9121502C93A6892091B3032A1710F401
S1132310A093B3033A9FD0011124A751BC4F119647
S11323200D90BC91A02DB583A48314966D917C91DE
S113233015977783668314966D917C911597EB01BD
S11323409B838A8315969C938E9314979689399FC1
S1132350D0011124A751BC4FB387A2878C918F5F02
S11323608C93A0910D04B0910E0456968C9189170C
S113237008F07ECF4093AF037BCFEF2B09F0B2DCA4
S1132380C091B003D091B103209759F011E04ADE17
S113239081111093AF032197D1F71092B1031092DA
S11323A0B0038091AF03882309F454CF8FD481E024
S11323B00F900FBEDF91CF911F910F91FF90EF907F
S11323C008958091AA03882321F081E08093AF03CC
S11323D008951092AF03A0910D04B0910E04E09102
S11323E00D04F0910E042D913C918789908D8217F4
S11323F0930758F060910D0470910E0480910D04C0
S113240090910E04675E7F4F6BD38091B30369E0B4
S1132410482F50E0649F9001659F300D1124F9010D
S1132420E751FC4F9081911102C08150F1CFA181FD
S1132430B28112966D917C911397728361832451BA
S11324403C4F6217730721F425813681328321833F
S113245099E0949FF001959FF00D1124E751FC4FF2
S11324600180F281E02D2681378130930E04209380
S11324700D048093B3030895CF93DF93EB01609130
S11324800D0470910E04645F7F4FADD361E0CE0103
S1132490DF91CF91B5CC0F931F93CF93DF93FC01C2
S11324A08B01A181B28180910D0490910E04EC0105
S11324B0BF87AE8780910D0490910E0414962D91E0
S11324C03C911597EC01398B288B20910D043091A8
S11324D00E0414968D919C911597245F3F4FEC0147
S11324E03B832A8320910D0430910E04245F3F4FD7
S11324F015963C932E931497A0910D04B0910E045D
S11325005596FC93EE93549790819F5F9083442358
S113251011F00FEF1FEF642FC801DF91CF911F91CE
S11325200F916ECCCF93DF93DC011596ED91FC9166
S113253016970680F781E02DA489B589868597854D
S113254020893189EC013D832C83C089D1899B8307
S11325508A83CF010C9611962D913C9112972817DE
S1132560390721F41296DC93CE931197158A148AB5
S11325702C9121502C932091AA0321114FC0A285A4
S1132580B3858481958126813781EC013D832C8339
S1132590C681D7819B838A839F012E5F3F4F11960B
S11325A08D919C9112978217930721F41296DC93D4
S11325B0CE931197138612868C9181508C93A689A1
S11325C08091B3038A1710F4A093B30389E08A9F20
S11325D0D0011124A751BC4F11960D90BC91A02D90
S11325E0B583A48314964D915C91159757834683C4
S11325F01496CD91DC9115973B832A8315963C93D1
S11326002E931497A6898A9FD0011124A751BC4FF9
S1132610B387A2878C918F5F8C931FC0A091CB034B
S1132620B091CC03B787A68714962D913C9115974A
S1132630318B208B1496CD91DC9115979B838A83E3
S113264015969C938E9314978AEC93E0958B848BC8
S11326508091CA038F5F8093CA03A0910D04B09147
S11326600E04968956968C91891720F481E0809304
S1132670AF0301C080E0DF91CF9108952091AE03B4
S1132680FC0120832091B4033091B503328321836C
S11326900895CF93DF930FB6F8940F924091B4034B
S11326A05091B503DB012D913C912F3FBFEF3B07C8
S11326B0D9F0EC01E981FA81A091AE03B881BA178F
S11326C041F04E175F0728F0FB011182108281E070
S11326D00CC04E1B5F0B42175307B0F7FB01241BC2
S11326E0350B31832083CADF80E00F900FBEDF916A
S11326F0CF91089581E08093AF0308958091B20350
S1132700882331F08091AA03882321F080E0089582
S113271081E0089582E008950F931F93CF93DF9390
S1132720EC01892B11F480E043C08AA181508AA373
S11327302E8999A12917B9F38111F5CF8E010E5F66
S11327401F4FC80188D289A18E8B482F50E024E006
S113275030E0241B350B3D872C879091B3039817E9
S113276010F48093B30389E0849FF001859FF00DFA
S11327701124E751FC4F0180F281E02DFD83EC83AD
S1132780248135813F832E83A481B58113961C93C4
S11327900E93129715830483EE898E9FF001112402
S11327A0E751FC4FFB87EA8780818F5F808381E05C
S11327B0DF91CF911F910F9108950F930FB6F89465
S11327C00F928091650490916604892BF1F484E75B
S11327D094E0F7D18BE694E0F4D184E794E090930D
S11327E06A04809369048BE694E090936804809370
S11327F0670400E02FE034E04FE254E065E08AE053
S11328005FD890936604809365040F900FBE0F9178
S11328100895FC0173836283918780874617570765
S113282078F0421B530B8485958548175907C0F4EB
S1132830BF016E5F7F4F80916704909168040DC063
S11328404217530718F46217730750F4BF016E5F01
S11328507F4F8091690490916A04C5D180E0089506
S113286081E00895EF92FF920F931F93CF93DF932C
S1132870EC018B017A016C857D85600F711F9801D5
S1132880A701CE01C6DF882349F08C859D85080FFA
S1132890191FE889F989CE011995EDCFDF91CF9100
S11328A01F910F91FF90EF900895EF92FF920F9375
S11328B01F93CF93DF938C017B01E0916904F09126
S11328C06A040580F681E02DC681D781CE01029687
S11328D0C2D18A8982FF05C0A701B801CE01C2DF37
S11328E002C08E7F8A8BE889F989CE01DF91CF916E
S11328F01F910F91FF90EF901994E0916904F0916A
S11329006A048081882349F00580F681E02D6FEF09
S11329107FEF80819181C9DFF0CF8091670490912E
S1132920680490936A0480936904F0936804E093C4
S113293067040895CF92DF92EF92FF920F93CF93A3
S1132940DF9300D000D0CDB7DEB737DF80916504C8
S113295090916604892B19F11E821D821C821B82B0
S1132960AE014F5F5F4FBE016D5F7F4FCE01059695
S1132970D3D0CD80DE80EB80FC8049815A8103E096
S113298020E030E063E372E08AE791E0B9DA9C0189
S1132990909364048093630481E0232B09F480E022
S11329A026960FB6F894DEBF0FBECDBFDF91CF9150
S11329B00F91FF90EF90DF90CF9008957F928F92C8
S11329C09F92AF92BF92CF92DF92EF92FF920F93BA
S11329D01F93CF93DF934C015B01742E6901E701D0
S11329E0209799F082E08A8BE8DE99828882BD86FE
S11329F0AC86DF86CE86198B088BC7010296EFD092
S1132A00772019F08A8984608A8BCE01DF91CF9177
S1132A101F910F91FF90EF90DF90CF90BF90AF90F8
S1132A209F908F907F9008950F931F93CF93DF9380
S1132A3000D01F921F92CDB7DEB7A0916504B0916C
S1132A406604109721F1F90169835B834A839D83AE
S1132A508C8366309CF452DEE0916504F091660448
S1132A6020E0823011F4A80102C040E050E0BE0131
S1132A706F5F7F4FCF010E94840C0AC020E0AF013A
S1132A80BE016F5F7F4FCD010E940E0D01C080E03B
S1132A900F900F900F900F900F90DF91CF911F9197
S1132AA00F91089520910402309105028FEF91E275
S1132AB0821B930B90930102809300020E940305F2
S1132AC055CA08950E94340580E090E0892B11F0E6
S1132AD00C9400000895279A2F9A08951F9A089538
S1132AE0FADF2FEF87EA91E6215080409040E1F72A
S1132AF000C00000F3DFF5CF2BEB35E0FC013183A0
S1132B0020838BEF94E0FB019183808380EC90E041
S1132B10FA0191838083089522ED34E0FC0131832E
S1132B2020838DE794E0FB019183808385E590E029
S1132B30FA01918380830895CF93CFB7F89480915D
S1132B40E705811127C0E1E4F2E08491EBEFF1E0C5
S1132B509491E82FF0E0EE0FFF1FEA57FD4FA59187
S1132B60B491EC91E92321F461E085E30E94EA0643
S1132B7061E085E30E94AE068CB580618CBD8CB5A6
S1132B8080648CBD61E084E30E94AE0661E083E36F
S1132B900E94AE068091E7058F5F8093E705CFBF63
S1132BA0CF9108950895CF93DF93009739F0EC0106
S1132BB026DACE012ED2DF91CF913ACBDF91CF919D
S1132BC00895FC010396928381832FEF3FEF3483B2
S1132BD02383968385839087878310820895FC01DD
S1132BE01186108608950F931F93CF93DF938C0162
S1132BF0FB01808191818F3F2FEF920721F4E8013F
S1132C00AF81B8850EC0D801139612962D913C91D0
S1132C101397E901488159818417950710F0D90168
S1132C20F4CF12968D919C91139793838283EC0138
S1132C30FD83EC83B583A4831396FC93EE931297E0
S1132C4011870087F80180818F5F8083DF91CF91A6
S1132C501F910F910895CF93DF93FC01A085B18557
S1132C608281938124813581EC013D832C83C4814D
S1132C70D5819B838A8311968D919C911297E81735
S1132C80F90721F41296DC93CE93119711861086DE
S1132C908C9181508C938C91DF91CF910895FC019C
S1132CA06083319770833197108231971082319706
S1132CB020E8208331971082319710823197108257
S1132CC07797408331975083869708950F920FB674
S1132CD0F8940F920BB60F920CB60F921F92112418
S1132CE02F923F924F925F926F927F928F929F9218
S1132CF0AF92BF92CF92DF92EF92FF920F931F9306
S1132D002F933F934F935F936F937F938F939F93EF
S1132D10AF93BF93CF93DF93EF93FF93A0910D04F1
S1132D20B0910E040DB60D920EB60D924ADBA09131
S1132D300D04B0910E04CD91CDBFDD91DEBFFF91A6
S1132D40EF91DF91CF91BF91AF919F918F917F913F
S1132D506F915F914F913F912F911F910F91FF9030
S1132D60EF90DF90CF90BF90AF909F908F907F9027
S1132D706F905F904F903F902F901F900F900CBEDC
S1132D800F900BBE0F900FBE0F9008950F920FB6C9
S1132D90F8940F920BB60F920CB60F921F92112457
S1132DA02F923F924F925F926F927F928F929F9257
S1132DB0AF92BF92CF92DF92EF92FF920F931F9345
S1132DC02F933F934F935F936F937F938F939F932F
S1132DD0AF93BF93CF93DF93EF93FF93A0910D0431
S1132DE0B0910E040DB60D920EB60D9213BE1AD903
S1132DF08111E7DAA0910D04B0910E04CD91CDBFFD
S1132E00DD91DEBFFF91EF91DF91CF91BF91AF9143
S1132E109F918F917F916F915F914F913F912F91EE
S1132E201F910F91FF90EF90DF90CF90BF90AF90E4
S1132E309F908F907F906F905F904F903F902F90D6
S1132E401F900F900CBE0F900BBE0F900FBE0F90F3
S1132E500895A89590EC88E10FB6F894A89580930E
S1132E6060000FBE909360000895F3DFA0910D04FD
S1132E70B0910E04CD91CDBFDD91DEBFFF91EF91F6
S1132E80DF91CF91BF91AF919F918F917F916F917E
S1132E905F914F913F912F911F910F91FF90EF9070
S1132EA0DF90CF90BF90AF909F908F907F906F9066
S1132EB05F904F903F902F901F900F900CBE0F90FB
S1132EC00BBE0F900FBE0F90089581E008955EDF52
S1132ED01895EE0FFF1F881F8BBF0790F691E02D0A
S1132EE019940F931F93CF93DF938230910510F4BD
S1132EF082E090E0E091EB05F091EC0520E030E019
S1132F00A0E0B0E0309719F1408151810281138132
S1132F1048175907C8F08417950769F4109731F0DA
S1132F2012960C93129713961C9327C00093EB05EB
S1132F301093EC0522C02115310519F042175307EF
S1132F4018F49A01BD01EF01DF01F801DBCF21156F
S1132F503105F9F0281B390B2430310580F48A81BE
S1132F609B816115710521F0FB019383828304C069
S1132F709093EC058093EB05FE01329644C0FE016C
S1132F80E20FF31F819391932250310939832883EF
S1132F903AC02091E9053091EA05232B41F42091B0
S1132FA00202309103023093EA052093E90520914F
S1132FB00002309101022115310541F42DB73EB7CD
S1132FC04091040250910502241B350BE091E90560
S1132FD0F091EA05E217F307A0F42E1B3F0B281724
S1132FE0390778F0AC014E5F5F4F2417350748F07E
S1132FF04E0F5F1F5093EA054093E9058193919327
S113300002C0E0E0F0E0CF01DF91CF911F910F917A
S11330100895CF93DF93009709F481C0FC013297A0
S113302013821282A091EB05B091EC05109781F404
S113303020813181820F931F2091E9053091EA05A7
S11330402817390751F5F093EA05E093E90567C0BD
S1133050ED0120E030E0CE17DF0740F44A815B81C8
S11330609E0141155105F1F0EA01F5CFD383C283E6
S113307040815181840F951FC817D90759F488815D
S11330809981840F951F0296918380838A819B8105
S1133090938382832115310529F4F093EC05E093A1
S11330A0EB053DC0E901FB83EA8349915991C40FC3
S11330B0D51FEC17FD0761F480819181840F951F62
S11330C00296E90199838883828193819B838A8311
S11330D0E0E0F0E012968D919C911397009719F01F
S11330E0FD01DC01F7CF8D919C9111979D012E5F1D
S11330F03F4F820F931F2091E9053091EA0528176D
S1133100390769F4309729F41092EC051092EB0515
S113311002C013821282B093EA05A093E905DF91FD
S1133120CF910895FB01DC0102C001900D92415042
S11331305040D8F70895DC0101C06D9341505040D0
S10B3140E0F70895F894FFCFB5
S11331480000ED0520004602030001020304050007
S1133158010202000300414F00544500000006002C
S11331680600050005006061660170717602494435
S10F31784C4500546D7220537663000037
S9030000FC
